:100000000C9453010C947B010C947B010C947B01A8
:100010000C947B010C947B010C947B010C947B0170
:100020000C947B010C947B010C947B010C947B0160
:100030000C947B010C947B010C947B010C947B0150
:100040000C945F270C947B010C94432A0C94752A22
:100050000C947B010C947B010C947B010C947B0130
:100060000C9432260C947B014E226522652262227A
:1000700065224C2265226522652240226522652286
:10008000552260225E226522652265225C2207637A
:100090004236B79BD8A71A39685618AEBAAB558CFA
:1000A0001D3CB7CC5763BD6DEDFD753EF617723143
:1000B000BF000000803F08000000BE922449123EAD
:1000C000ABAAAA2ABECDCCCC4C3E00000080BEAB71
:1000D000AAAAAA3E00000000BF000000803F000066
:1000E000000000084178D3BB4387D1133D190E3C73
:1000F000C3BD4282AD2B3E68EC8276BED98FE1A9AA
:100100003E4C80EFFFBE01C4FF7F3F0000000000B7
:1001100041707220323520323031360032303A327E
:10012000373A3337007C3C3E5E2B3D3F2F5B5D3BD7
:100130002C2A225C00005EBCE2613FDD83C29C7E13
:1001400020A3FD1F419DC3217FFCA2401E5F01E350
:10015000BD3E6082DC237D9FC1421CFEA0E1BF5DED
:100160000380DE3C62BEE0025CDF81633D7C22C036
:100170009E1D43A1FF4618FAA427799BC584DA384F
:1001800066E5BB5907DB856739BAE406581947A508
:10019000FB7826C49A653BD987045AB8E6A7F91BB1
:1001A00045C6987A24F8A6441A99C7257B3A6486EE
:1001B000D85B05E7B98CD2306EEDB3510F4E10F21B
:1001C000AC2F7193CD114FADF3702ECC92D38D6FB8
:1001D00031B2EC0E50AFF1134DCE90722C6D33D185
:1001E0008F0C52B0EE326C8ED0530DEFB1F0AE4C9E
:1001F0001291CF2D73CA947628ABF517490856B4DF
:10020000EA6937D58B5709EBB536688AD495CB297F
:1002100077F4AA4816E9B7550B88D6346A2B759738
:10022000C94A14F6A8742AC896154BA9F7B6E80A65
:1002300054D7896B351F1C1F1E1F1E1F1F1E1F1E1C
:100240001F00000008000201000003040700000076
:100250000000000000010204081020408001020498
:1002600008102001020408102004040404040404FB
:10027000040202020202020303030303030000005C
:100280000023002600290000000000250028002B84
:100290000000000000240027002A00008F02260A28
:1002A0006B0D4825A52A11241FBECFEFD8E0DEBF75
:1002B000CDBF12E0A0E0B1E0E8E3F5E602C00590B2
:1002C0000D92AE37B107D9F726E0AEE7B2E001C034
:1002D0001D92A33BB207E1F712E0C6EAD2E004C0E8
:1002E0002297FE010E942531CC39D107C9F70E941F
:1002F000E92A0C949A320C940000EC016BE071E056
:1003000082E196E00E94362BBE0182E196E00E94D7
:10031000432B61E087E00E94C828FFCF0F931F9313
:10032000CF93DF93CDB7DEB7A8970FB6F894DEBFB3
:100330000FBECDBF26E040E855E260E070E082E10C
:1003400096E00E94E12963E171E082E196E00E947B
:10035000432B61E08AE00E948F2861E086E00E94E2
:100360008F2861E087E00E948F2861E084E00E948E
:100370008F2860E084E00E94C82880E00E94462820
:100380008DEB92E00E94501B89E495E00E94B82416
:100390008CEB92E00E94C12281110CC06BE271E0F3
:1003A0008EE792E00E94432B6BE271E082E196E0DF
:1003B0000E94432B8CEB92E00E94372381110CC0EA
:1003C0004CE151E060E171E0CE0101960E94122201
:1003D000CE0101960E94C7226AE080EF92E00E945F
:1003E0007408811103C086E391E066C062E571E0A4
:1003F00082E196E00E94432B8DE0E8E1F2E0DE012D
:100400005C9601900D928A95E1F710E00AE0812F49
:10041000602F0E94CD30805D8AA3905D9BA3BE01BA
:10042000645E7F4F80EF92E00E941B0A811138C00A
:1004300023E1AE01445E5F4F60EF72E0CE010196B2
:100440000E948D098B819C81909381028093800210
:100450008D819E81AF81B8858093820290938302C3
:10046000A0938402B093850289859A85AB85BC856B
:100470008093860290938702A0938802B0938902AA
:100480008DE0FE013D96AAE8B2E001900D928A95BA
:10049000E1F78A8D9B8D909398028093970204C018
:1004A0001F5F143609F0B3CF8EE792E00E94720707
:1004B000811104C084E691E00E947D0168E771E04B
:1004C00082E196E00E94362BBE01645E7F4F82E19E
:1004D00096E00E94432B65E871E08EE792E00E946F
:1004E000432B65E871E082E196E00E94432BCE0148
:1004F00001960E94602386E0FE013196A9E9B2E0F0
:1005000001900D928A95E1F7A8960FB6F894DEBF98
:100510000FBECDBFDF91CF911F910F91089563E082
:1005200082EE92E00E94AC2062EE72E08FEC92E0EC
:100530000E94481926E046E162E08DEB92E00E94BD
:100540002F1B40E050E0BA0189E992E00E94B421FB
:100550008EE792E00C941007CF92DF92EF92FF9219
:100560000F931F93CF93DF9300D000D000D0CDB76F
:10057000DEB70E94A92720EA3CE840E050E00E9454
:1005800001318B019C016FE97CE880E090E0601B09
:10059000710B820B930B0E94D82761E086E00E94CA
:1005A000C82866E970E080E090E00E94D82760E00B
:1005B00086E00E94C82866E970E080E090E00E9432
:1005C000D82761E086E00E94C82866E970E080E0F4
:1005D00090E00E94D82760E086E00E94C82866E983
:1005E00070E080E090E00E94D82761E086E00E9401
:1005F000C82866E970E080E090E00E94D82760E0BB
:1006000086E00E94C82810919B02CE0101960E94AC
:1006100060238B81181310929F02CE0101960E94D5
:10062000602386E0FE013196A9E9B2E001900D92C7
:100630008A95E1F789E992E00E949322AB01BC011F
:100640002AE030E08EE792E00E94F82B65E272E04B
:100650008EE792E00E94362B6091990270E0605321
:10066000784F4AE050E08EE792E00E940C2C67E25F
:1006700072E08EE792E00E94362B4AE050E06091F3
:100680009A028EE792E00E94052C67E272E08EE704
:1006900092E00E94362B4AE050E060919B028EE788
:1006A00092E00E94052C63E871E08EE792E00E94E0
:1006B000362B4AE050E060919C028EE792E00E9467
:1006C000052C69E272E08EE792E00E94362B4AE048
:1006D00050E060919D028EE792E00E94052C69E255
:1006E00072E08EE792E00E94362B4AE050E0609183
:1006F0009E028EE792E00E94052C65E272E08EE792
:1007000092E00E94362B89E992E00E949322AB018D
:10071000BC012AE030E082E196E00E94F82B65E21D
:1007200072E082E196E00E94362B6091990270E0BF
:100730006053784F4AE050E082E196E00E940C2C32
:1007400067E272E082E196E00E94362B4AE050E0D8
:1007500060919A0282E196E00E94052C67E272E0C5
:1007600082E196E00E94362B4AE050E060919B02C5
:1007700082E196E00E94052C63E871E082E196E058
:100780000E94362B4AE050E060919C0282E196E0A4
:100790000E94052C69E272E082E196E00E94362B0D
:1007A0004AE050E060919D0282E196E00E94052CB3
:1007B00069E272E082E196E00E94362B4AE050E066
:1007C00060919E0282E196E00E94052C65E272E053
:1007D00082E196E00E94362B8FEC92E00E94691A2B
:1007E00060E08FEC92E00E94041B6093B80270936B
:1007F000B9028093BA029093BB0264E170E080E09A
:1008000090E00E94D8278EE00E944928BC018827EA
:1008100077FD8095982F0E94042E20ED34E448ED5A
:100820005BE30E94B82E6093B4027093B50280938C
:10083000B6029093B70264E170E080E090E00E941D
:10084000D827C090B402D090B502E090B602F090E4
:10085000B7022DEC3CEC4CE85FE3C701B6010E9407
:10086000652D87FF0DC020E030E040E251E4C70174
:10087000B6010E94B82E20E030E040E85FE351C0AE
:1008800026E636E646EA5FE3C701B6010E94652D1B
:1008900087FF0DC020E030E048EC51E4C701B6010D
:1008A0000E94B82E20E030E04CE851E43AC023EC3E
:1008B00035EF48EE5FE3C701B6010E94652D87FF63
:1008C0000DC02CEE31E540E452E4C701B6010E94B0
:1008D000B82E20E030E04EE352E423C02DEC3CEC97
:1008E0004CE050E4C701B6010E94652D87FF0DC0A2
:1008F0002CE53FE842ED51E4C701B6010E94B82E55
:1009000021EE3AE74CEF50E40CC020E030E04AE73B
:1009100052E4C701B6010E94B82E20E030E04FEA51
:1009200052E40E94002D6093B0027093B102809354
:10093000B2029093B30260E08DEB92E00E942D1F13
:100940006093AC027093AD028093AE029093AF02BD
:1009500064E170E080E090E00E94D82740E061E030
:100960008DEB92E00E94CD1E6093A8027093A902C5
:100970008093AA029093AB0264E170E080E090E083
:100980000E94D8270091AC021091AD022091AE02D6
:100990003091AF024091A8025091A9026091AA0241
:1009A0007091AB02EE24E3948DEB92E00E94621B07
:1009B0006093A4027093A5028093A6029093A7026D
:1009C00081E10E944928BC01882777FD8095982FF6
:1009D0000E94042E2AE337E044E55CE30E94B82E2F
:1009E0009B01AC0160E070E887EF93E40E94692D01
:1009F00020E030E046E153E40E94002D20E038EB97
:100A000048E857E40E94692D20E030E040EA5FEBBF
:100A10000E941B2F6093A0027093A1028093A202F8
:100A20009093A30264E170E080E090E00E94D827F8
:100A30004091B8025091B9026091BA027091BB0224
:100A400022E030E08EE792E00E94FD2C65E272E049
:100A50008EE792E00E94362B4091A8025091A902A5
:100A60006091AA027091AB0222E030E08EE792E042
:100A70000E94FD2C65E272E08EE792E00E94362B28
:100A80004091B0025091B1026091B2027091B302F4
:100A900022E030E08EE792E00E94FD2C65E272E0F9
:100AA0008EE792E00E94362B4091AC025091AD024D
:100AB0006091AE027091AF0222E030E08EE792E0EA
:100AC0000E94FD2C65E272E08EE792E00E94362BD8
:100AD0004091A4025091A5026091A6027091A702D4
:100AE00022E030E08EE792E00E94FD2C65E272E0A9
:100AF0008EE792E00E94362B4091A0025091A10215
:100B00006091A2027091A30222E030E08EE792E0B1
:100B10000E94FD2C65E272E08EE792E00E94362B87
:100B20004091B8025091B9026091BA027091BB0233
:100B300022E030E082E196E00E94FD2C65E272E066
:100B400082E196E00E94362B4091A8025091A902C2
:100B50006091AA027091AB0222E030E082E196E05F
:100B60000E94FD2C65E272E082E196E00E94362B45
:100B70004091B0025091B1026091B2027091B30203
:100B800022E030E082E196E00E94FD2C65E272E016
:100B900082E196E00E94362B4091AC025091AD026A
:100BA0006091AE027091AF0222E030E082E196E007
:100BB0000E94FD2C65E272E082E196E00E94362BF5
:100BC0004091A4025091A5026091A6027091A702E3
:100BD00022E030E082E196E00E94FD2C65E272E0C6
:100BE00082E196E00E94362B4091A0025091A10232
:100BF0006091A2027091A30222E030E082E196E0CF
:100C00000E94FD2C65E272E082E196E00E94362BA4
:100C100020E030E040E751E46091B0027091B10211
:100C20008091B2029091B3020E94652D87FF07C0A8
:100C300080919C028451823010F410929F026BE2EA
:100C400072E08EE792E00E94362B6BE272E082E166
:100C500096E00E94362B8EE792E00E943F2B82E1C5
:100C600096E00E943F2B62E370E080E090E00E94FB
:100C7000D8278EE792E00E94830668E873E180E05F
:100C800090E00E94D82726960FB6F894DEBF0FBEDC
:100C9000CDBFDF91CF911F910F91FF90EF90DF902B
:100CA000CF900895CF93DF931F92CDB7DEB76983BE
:100CB000DC01ED91FC910280F381E02D41E050E0F8
:100CC000BE016F5F7F4F09950F90DF91CF9108951F
:100CD000CF93DF93EC01898D9A8D009759F0FC0139
:100CE000138212820E94EC12E98DFA8D22813381E7
:100CF000232B31F081E090E09B838A8380E090E0B9
:100D0000DF91CF910895FC01818D928D009711F0B4
:100D10000C948C100895CF93DF931F92CDB7DEB75C
:100D200041E050E0BE016F5F7F4F0E949D0E019732
:100D300019F4898190E002C08FEF9FEF0F90DF914F
:100D4000CF910895FC01818D928D009711F00C9444
:100D50008B068FEF9FEF08950F931F93CF93DF9331
:100D60008C01FC01818D928D0097B9F00E948B0659
:100D7000EC018F3FFFEF9F0799F0F801818D928D75
:100D8000FC0142855385648575854150510961098F
:100D900071090E94F00FCE0105C080E090E002C012
:100DA0008FEF9FEFDF91CF911F910F910895CF9219
:100DB000DF92EF92FF920F931F93CF93DF93EC019B
:100DC0007B016A011B821A8208EE13E020E030E00A
:100DD0000C831D832E833F8385E392E09983888370
:100DE0008DE190E00E9443319A8F898F009779F0CE
:100DF0002DE1F701DC0101900D922A95E1F74CE01D
:100E000050E0B601CE010C960E948B32188EDF9115
:100E1000CF911F910F91FF90EF90DF90CF900895A9
:100E2000FC011382128248EE53E060E070E04483DC
:100E300055836683778385E392E091838083128E66
:100E4000118E14860895DC015996ED91FC915A9704
:100E5000309729F0628573858485958508956FEFB5
:100E60007FEFCB010895DC015996ED91FC915A97E3
:100E7000309729F06389748985899689089560E09F
:100E800070E0CB010895CF92DF92EF92FF92CF9363
:100E9000DF93EC01898D9A8D892BD9F0CE010E94C8
:100EA00033076B017C01CE010E942307A701960145
:100EB000261B370B480B590BDA01C901811530E8A5
:100EC0009307A105B10538F08FEF9FE7A0E0B0E0F0
:100ED00002C080E090E0DF91CF91FF90EF90DF9033
:100EE000CF900895DC015996ED91FC915A97309777
:100EF00021F081E09581911101C080E008951F9358
:100F0000CF93DF93CDB7DEB76D970FB6F894DEBF02
:100F10000FBECDBFAB011C821B8225E432E03A83B9
:100F200029831E8221E0BC01CE0101960E94071296
:100F300011E0811102C010E004C0CE0101960E94B0
:100F4000D310812F6D960FB6F894DEBF0FBECDBFC4
:100F5000DF91CF911F910895CF93DF93FB01208103
:100F60003181FC01E20FF31FE081EF3211F42F5FBA
:100F70003F4FDA01E0E0F0E0EC01C20FD31FC8817F
:100F8000CF3249F0CC2339F031962F5F3F4FCD93CC
:100F9000EC30F10589F7E40FF51F1082FC01E20F38
:100FA000F31F40814F3211F42F5F3F4FFB0131831C
:100FB0002083FC01E20FF31F81E09081911101C0B9
:100FC00080E0DF91CF9108954F925F926F927F9270
:100FD0008F929F92AF92BF92CF92DF92EF92FF9249
:100FE0000F931F93CF93DF93CDB7DEB7C954D109C9
:100FF0000FB6F894DEBF0FBECDBF5C016B013A01A6
:10100000490119A218A285E492E09F8F8E8F1BA23E
:101010001C821B829A8389831E822A961FAE1EAE73
:101020002A978B017E018EE1E80EF11C4424439443
:10103000AE01455C5F4FBE01685B7F4FC5010E94FA
:10104000AC07582E482F44259401BE01655C7F4FA4
:10105000C801F3010995811108C00C151D0519F08F
:10106000C8010E94D31080E027C05520B9F021E0CC
:10107000AE01455C5F4FB801C7010E940712582EB0
:101080000C151D0599F0C8010E94D310552059F385
:10109000902F812F8701E92EF82ECACF0C151D0540
:1010A00019F0C8010E94D31081E006C08823D9F24C
:1010B0008E010F5F1F4FECCFC75BDF4F0FB6F89469
:1010C000DEBF0FBECDBFDF91CF911F910F91FF907B
:1010D000EF90DF90CF90BF90AF909F908F907F90D8
:1010E0006F905F904F9008950F931F93CF93DF936E
:1010F000EC01462F61E00E94630B811102C080E089
:101100001DC08E01045F1F4F41E0BE01C8010E9457
:101110003318882359F0B801CE018A960E944D0EEB
:1011200091E0811101C090E0892F08C040E0BE012C
:10113000C8010E943318882311F3EDCFDF91CF91BE
:101140001F910F910895FC01DB0112968D919C91E6
:1011500013979383828385E492E09183808314962E
:101160008C911497848315968C9115978583169688
:101170004D915D916D917C9119974683578360875E
:1011800071871A964D915D916D917C911D97428763
:101190005387648775871E964D915D916D917C9103
:1011A000519746875787608B718B52968C915297D7
:1011B000828B53964D915D916D917C915697438BA7
:1011C000548B658B768B57964D915D916D917C918B
:1011D0005A97478B508F618F728F5B968D919C9140
:1011E0005C97948F838F08954F925F926F927F9256
:1011F0008F929F92AF92BF92CF92DF92EF92FF9227
:101200000F931F93CF93DF93CDB7DEB7C754D109A8
:101210000FB6F894DEBF0FBECDBF6C014A01390195
:10122000665D7F4F5E018EE1A80EB11CC5010E9474
:10123000A3081C821B8285E492E09A8389831E8224
:101240008401FE0131967F015A2C4B2C6FE270E035
:10125000C8010E9480320097E9F1F80120812F3205
:1012600019F40F5F1F4FF2CF801B8D3008F08CE018
:10127000A82EB12CA501B801CE01CB960E948B32CD
:10128000EBE3F0E0EC0FFD1FEA0DFB1D1082C70140
:101290000E94D31021E0AE01455C5F4F652D742D97
:1012A000C7010E940712811109C0F6011382128240
:1012B00085E492E091838083158216C00A0D1B1D80
:1012C000852D942D0E94D310C2015E2C4F2CE92E47
:1012D000F82EBCCF08191909F30111830083652D7D
:1012E000742DC6010E94A308C601C95BDF4F0FB66B
:1012F000F894DEBF0FBECDBFDF91CF911F910F914C
:10130000FF90EF90DF90CF90BF90AF909F908F9025
:101310007F906F905F904F9008959F92AF92BF9291
:10132000CF92DF92EF92FF920F931F93CF93DF93B1
:10133000CDB7DEB7C955D1090FB6F894DEBF0FBEE1
:10134000CDBF7C016B015A01922E9E01285A3F4F5E
:10135000CE01CB960E94F4086A960EAD1FAD6A9737
:101360000A0D1B1DF801808181110AC0BE01655C58
:101370007F4FCE0101960E94A30847E252E041C090
:1013800019A218A285E492E09F8F8E8F1BA221964E
:101390008FAD2197811104C0C7010E94100737C08B
:1013A0008250823060F4B601665D7F4F292DA8011E
:1013B000CE014E960E940712811110C0EDCF292D4B
:1013C000A801BE01655C7F4FCE014E960E940712B8
:1013D000882311F3CE01CB960E94D310892D8670FD
:1013E00041F049A95AA96BA97CA9CE014E960E9449
:1013F000F00FBE01625E7F4FCE0101960E94A308EE
:10140000A801BE016F5F7F4FC7010E94D706C701C9
:10141000C75ADF4F0FB6F894DEBF0FBECDBFDF91C6
:10142000CF911F910F91FF90EF90DF90CF90BF90E1
:10143000AF909F900895FB01BC01665D7F4F20E057
:1014400030E04FE757E0CF010C94E4071092F5022B
:101450001092F6021092F9021092FB0282E090E0E4
:10146000A0E0B0E08093FC029093FD02A093FE0206
:10147000B093FF021092130310921D0310921C03ED
:1014800085E492E090931B0380931A0310921F034C
:1014900008959FB7F8942091470580914505213024
:1014A00019F48DBB9FBF08958FBF08952091470504
:1014B000222399F03FB7F89420914705213059F441
:1014C0002DB3209345054DB3209146052095242347
:1014D0002DBB3FBF02C0309345058CBD9DBD089517
:1014E0008EBD00000DB407FEFDCF8EB508958FEFC1
:1014F0000C94700A61E0FC0184810E94C8288091EC
:101500003903882339F010923903809147058111FE
:101510000C94490A0895CF93DF93EC01809139032D
:10152000811109C081E08093390380913A03909141
:101530003B030E94560A60E08C81DF91CF910C94AE
:10154000C828CF93DF93EC018E81882389F08F81A7
:1015500098859C012F5F3F4F38872F8382309240C0
:1015600018F40E94770AF3CFCE010E947A0A1E82F5
:10157000DF91CF910895673028F026E1FC012583A3
:1015800080E00895623081F030F4662359F06130D4
:10159000B1F480E515C0643059F040F0653079F45D
:1015A00082E50EC080E505C081E503C081E508C085
:1015B00082E580933A0381E080933B03089583E5BD
:1015C00080933A0310923B0381E008950F931F9399
:1015D000CF93DF93EB010E94A9278B010E94770A2A
:1015E0008F3F49F00E94A927601B710B6C177D0784
:1015F000A8F380E001C081E0DF91CF911F910F91AE
:101600000895CF92DF92FF920F931F93CF93DF93B2
:1016100000D000D0CDB7DEB76C01F62E29833A8317
:101620004B835C830E94A10AC6010E948B0A6CE274
:1016300071E0C6010E94E60A8F2D80640E94700A44
:1016400008E110E05C814B813A812981DA01C9010E
:10165000002E04C0B695A795979587950A94D2F762
:1016600029833A834B835C830E94700A08501109D6
:1016700029813A814B815C81083F8FEF180731F750
:10168000FF2029F0E8E0FE1621F08FEF03C085E986
:1016900001C087E80E94700A10E00E94770AF601F4
:1016A000828787FF04C01F3F11F01F5FF6CF0F90A6
:1016B0000F900F900F90DF91CF911F910F91FF909E
:1016C000DF90CF900895BF92CF92DF92EF92FF927A
:1016D0000F931F93CF93DF93EC01B62E1B861986D1
:1016E0001E821D824C830E94A9278B0161E08C81A0
:1016F0000E948F2861E08C810E94C8280E94EB2301
:1017000082E580933A0310923B0380913A039091D3
:101710003B030E94560A2AE0F22E8FEF0E94700AC5
:10172000FA94D9F78091470581110E94490ACE01A8
:101730000E948B0A20E030E0A90160E0CE010E9407
:10174000010BF82E8A8781E0F81649F00E94A9273C
:10175000601B710B613D774068F381E04BC02AEA62
:1017600031E040E050E068E0CE010E94010B82FFD2
:1017700002C0FB860DC094E0F92E0E94770A8A878A
:10178000FA94D9F78A3A11F082E034C082E08B876C
:101790008B85823031F4C12CD12CE12C80E4F82EE1
:1017A00003C0C12CD12C760120E030E0A90167E311
:1017B000CE010E94010BA701960169E2CE010E94B1
:1017C000010B8A87882349F00E94A927601B710BAF
:1017D000613D774048F388E00DC08B85823031F55C
:1017E00020E030E0A9016AE3CE010E94010B8823CA
:1017F00081F086E08D83CE010E947A0A80E0DF913D
:10180000CF911F910F91FF90EF90DF90CF90BF90FD
:1018100008950E94770A807C803C11F483E08B87D6
:101820000E94770A0E94770A0E94770ACE010E94DE
:101830007A0A6B2DCE01DF91CF911F910F91FF900E
:10184000EF90DF90CF90BF900C94BB0A0F931F9343
:10185000CF93DF93EC010E94A9278B010E94770AA6
:101860008A878F3F49F40E94A927601B710B6D3254
:101870007140A0F38FE003C08E3F39F08DE08D837F
:10188000CE010E947A0A80E001C081E0DF91CF9111
:101890001F910F910895CF92DF92EF92FF920F93D5
:1018A0001F93CF93DF93EC0169010115110509F432
:1018B00062C0C801820F931F8130924008F05DC062
:1018C0008E81882371F088819981AA81BB81481714
:1018D00059076A077B0729F48F819885C816D906AE
:1018E00010F5488359836A837B838B85833039F075
:1018F00039E0440F551F661F771F3A95D1F79A01BB
:10190000AB0161E1CE010E94010B882319F083E055
:101910008D8333C0CE010E94260C882371F1188676
:101920001F8281E08E838F8198858C159D0540F400
:101930000E94770A8F819885019698878F83F3CFCD
:101940006701E00EF11ECE14DF0431F00E94770A29
:10195000F60181936F01F7CF8F819885800F911FDA
:1019600098878F832985222319F08115924018F0DA
:10197000CE010E94A10A81E004C0CE010E947A0A31
:1019800080E0DF91CF911F910F91FF90EF90DF905A
:10199000CF900895EF92FF920F931F93790100E08B
:1019A00012E020E030E00E944B0C1F910F91FF905D
:1019B000EF900895CF92DF92EF92FF920F931F93D3
:1019C000CF93DF9300D0CDB7DEB78C01862F49834C
:1019D0005A830E94700A4981C42E5A81D52EE12C67
:1019E000F12CF60181916F010E94700AFFEFEF1A4E
:1019F000FF0AE11482E0F806A1F78FEF0E94700A57
:101A00008FEF0E94700A0E94770AF80182878F7117
:101A1000853039F081E18583C8010E947A0A80E02F
:101A200001C081E00F900F90DF91CF911F910F9136
:101A3000FF90EF90DF90CF9008950F931F93CF9377
:101A4000DF93EC018901411551056105710511F420
:101A500082E132C08B85833039F089E0440F551F15
:101A6000661F771F8A95D1F79A01AB0168E1CE0115
:101A70000E94010B882311F084E01EC0A8016EEFC4
:101A8000CE010E94DA0C8823C1F068E572E0CE0135
:101A90000E94E60A811102C085E10EC020E030E01C
:101AA000A9016DE0CE010E94010B811104C00E94CA
:101AB000770A882339F084E18D83CE010E947A0A67
:101AC00080E004C0CE010E947A0A81E0DF91CF91CC
:101AD0001F910F91089580E580933A0310923B0384
:101AE0000895CF93DF93EC019C012A5F3F4F41E0C3
:101AF00050E060E070E08B8D9C8D0E94C8168823BA
:101B0000A1F04F89588D698D7A8D452B462B472B37
:101B100071F44E815F81688579854F8B588F698F0D
:101B20007A8F8C8180688C8302C080E001C081E064
:101B3000DF91CF910895CF92DF92EF92FF921F93A2
:101B4000CF93DF93EC010E94710D811102C080E000
:101B50004BC0EB8DFC8DCE80DF80E884F98482E081
:101B6000C81AD108E108F108058404C0CC0CDD1CBA
:101B7000EE1CFF1C0A94D2F746855785608971894F
:101B8000C40ED51EE61EF71E148181E0C81AD108C6
:101B9000E108F108112361F0C701B601610F711D61
:101BA000811D911D0E941215882389F21150F2CFD8
:101BB000EB8DFC8DC12C82E0D82EE12CF12C05841C
:101BC00004C0CC0CDD1CEE1CFF1C0A94D2F74B8920
:101BD0005C896D897E894C0D5D1D6E1D7F1D4B8B53
:101BE0005C8B6D8B7E8B81E0DF91CF911F91FF909D
:101BF000EF90DF90CF900895CF93DF93EC01462FC5
:101C00006E857F85888999890E94D714882341F041
:101C10008A8920E2829FC00111248B5B9C4F02C005
:101C200080E090E0DF91CF910895282FFB018BE0B9
:101C300030E231938150E9F7A22FB92F20E037E04D
:101C40009D91992319F19E3219F0E5E2F1E008C067
:101C50003A3011F128E03AE0F3CF31964917E1F03C
:101C600044914111FACF3217B8F04FED490F4E357C
:101C700098F441E0420FFB01E20FF11D2FE9290F1B
:101C80002A3108F490529083242FDACF81E0FB01AF
:101C90009081903209F480E008950F931F93CF93C1
:101CA000DF93EC018B018D81882311F080E040C02F
:101CB000FB0187898031B1F482E08D831F8A188E01
:101CC000198E1A8E408D518D60E070E095E0440FC2
:101CD000551F661F771F9A95D1F74B8B5C8B6D8BC9
:101CE0007E8B15C0803211F783E08D83FB01428D1E
:101CF000538D648D758D4F8B588F698F7A8F9E01B0
:101D00002D5E3F4FC8010E94BC15882379F21C8FBD
:101D10000B8F81E08C831E821F82188619861A869B
:101D20001B861C861D861E861F86188A198A1A8A9B
:101D3000DF91CF911F910F9108952F923F924F9273
:101D40005F926F927F928F929F92AF92BF92CF924B
:101D5000DF92EF92FF920F931F93CF93DF93EC01EB
:101D60006B015A018D81811103C08FEF9FEFDAC0A3
:101D70008C8180FFFACF4B895C896D897E898A8549
:101D80009B85AC85BD852501612C712C8A019B0149
:101D9000081B190B2A0B3B0B0415150526053705E7
:101DA00018F45A01A81AB90A25011E0126E0220ECC
:101DB000311C4114510409F47BC04A855B856C8554
:101DC0007D854A0181E09822ED818A019B01F9E03D
:101DD0003695279517950795FA95D1F78B8D9C8D9C
:101DE000E23051F4FC01628D738D848D958D600F0E
:101DF000711F821F931F3EC0FC0174807A94702271
:101E000081149104C9F4711017C0452B462B472B40
:101E100049F48F89988DA98DBA8D8E839F83A88769
:101E2000B9870AC04E815F816885798591010E94DA
:101E30003815882309F499CFEB8DFC8D6E817F8155
:101E4000888599856250710981099109058404C0CA
:101E5000660F771F881F991F0A94D2F7068517858A
:101E600020893189600F711F821F931F670D711DBB
:101E7000811D911D20E032E0281939093201241515
:101E8000350508F439012C8126FD04C06114F2E007
:101E90007F06A1F50091060110910701209108012C
:101EA00030910901601771078207930719F426C062
:101EB000C50138C0760183019401AB01BC0180915A
:101EC0004303909144030E944B0C882309F44DCFA7
:101ED000C60CD71C04C0E81BF90BCE0EDF1E8A858A
:101EE0009B85AC85BD85860D971DA11DB11D8A877B
:101EF0009B87AC87BD87461857085BCF40E00E94A0
:101F0000D714882309F431CFC4018B5B9C4FD601D1
:101F10009C01260D371DFC01E217F307E1F2419108
:101F20004D93FACFDF91CF911F910F91FF90EF90DA
:101F3000DF90CF90BF90AF909F908F907F906F90E9
:101F40005F904F903F902F900895FF920F931F93B3
:101F5000CF93DF931F92CDB7DEB78C01FC01858153
:101F6000823018F480E090E034C0F8014285538557
:101F700064857585A5E07695679557954795AA95EB
:101F8000D1F7F42FFF70FF2E41E050E0BE016F5FEC
:101F90007F4FC8010E949D0E019719F4298130E0FE
:101FA00002C02FEF3FEF2F3F3F4FE1F2F801428594
:101FB000538564857585415E5F4F6F4F7F4F4287C4
:101FC000538764877587F0E2FF9EC00111248B5B05
:101FD0009C4F0F90DF91CF911F910F91FF9008952B
:101FE0004F925F926F927F92AF92BF92CF92DF92A9
:101FF000EF92FF920F931F93CF93DF93EC016A014F
:102000007B012D81222309F457C08B899C89AD89DE
:10201000BE8984179507A607B70708F44DC04EC0C0
:102020008A859B85AC85BD85EB8DFC8DE585F0E0D3
:102030003996AC01BD0141505109610971090E2E5B
:1020400004C076956795579547950A94D2F79701FE
:102050008601015011092109310904C036952795DF
:1020600017950795EA95D2F704171507260737073E
:10207000B0F58F89988DA98DBA8D8E839F83A8879F
:10208000B987280139015E0186E0A80EB11C411410
:1020900051046104710461F14E815F816885798525
:1020A00095018B8D9C8D0E94381591E0491A51083D
:1020B000610871088111EBCF80E01FC02230C1F0B0
:1020C000C114D104E104F10409F0AACF1E821F82D9
:1020D000188619861A861B861C861D860DC0892BBC
:1020E0008A2B8B2B31F2041B150B260B370BC9CF18
:1020F000CA86DB86EC86FD8681E0DF91CF911F9159
:102100000F91FF90EF90DF90CF90BF90AF907F90B6
:102110006F905F904F9008950F931F93CF93DF932D
:10212000EC018D818823C9F18C8187FF30C061E08B
:10213000CE010E94FC0D8C01009779F18D818230D7
:1021400048F44B895C896D897E89F801448F558FED
:10215000668F778F4F89588D698D7A8DF801538FEF
:10216000428F758B648BE0913C03F0913D03309777
:1021700059F0B8016A5E7F4FC80148960995F80189
:10218000808D918D938B828B8C818F778C83DF9167
:10219000CF911F910F910C949C1480E0DF91CF910F
:1021A0001F910F910895CF93DF93EC010E948C1043
:1021B000882319F01D8281E001C080E0DF91CF917A
:1021C00008954F925F926F927F92AF92BF92CF929B
:1021D000DF92EF92FF920F931F93CF93DF9300D084
:1021E00000D0CDB7DEB75C016A017B01FC018581BF
:1021F0008130F1F4848181FF1BC0F50183899489CA
:10220000A589B68984179507A607B70788F0892B93
:102210008A2B8B2B09F479C0F501428453846484A2
:102220007584B701A601C5010E94F00F811102C09B
:1022300080E06CC0F501838D948DC114D104E1045C
:10224000F10471F44789508D618D728D0E94DD1704
:10225000882371F3F501178A108E118E128E3AC001
:10226000F50146815781608571859E012F5F3F4F43
:102270000E9438158823E1F249815A816B817C8163
:10228000F501838D948DFC012789203129F408EF15
:102290001FEF20E030E004C008EF1FEF2FEF3FE01A
:1022A0004017510762077307A8F40E94DD178823BF
:1022B00009F4BECFF50146815781608571850FEF26
:1022C0001FEF2FEF3FE0838D948D0E942716882308
:1022D00009F4AECFF501C38AD48AE58AF68A8481EF
:1022E00080688483C5010E948C10882309F4A0CFE4
:1022F000B701A6014C145D046E047F0410F4B30111
:10230000A201C5010E94F00F01C081E00F900F9063
:102310000F900F90DF91CF911F910F91FF90EF9051
:10232000DF90CF90BF90AF907F906F905F904F9075
:102330000895FF920F931F93CF93DF93EC01F42E38
:1023400080E2689FF0011124EB5BFC4F8385817173
:1023500029F0842F827411F080E053C06A8B809141
:10236000060190910701A0910801B09109018E87A3
:102370009F87A88BB98B4489558960E070E0BA01CA
:1023800055274427028D138D20E030E0402B512B40
:10239000622B732B4F8B588F698F7A8F838588714F
:1023A00051F4048D158D268D378D0B8B1C8B2D8B49
:1023B0003E8B81E00CC0803179F69E012D5E3F4F4F
:1023C0008B8D9C8D0E94BC15882331F284E08D8317
:1023D0008F2D8F708C831E821F82188619861A8615
:1023E0001B861C861D86F6FE0BC040E050E0BA013D
:1023F000CE01DF91CF911F910F91FF900C94E110CE
:1024000081E0DF91CF911F910F91FF900895AF92DE
:10241000BF92CF92DF92EF92FF920F931F93CF93D1
:10242000DF93CDB7DEB72B970FB6F894DEBF0FBEA4
:10243000CDBF7C016B01CA01B22EF70125812111AC
:10244000B9C0BE016F5F7F4F0E94150E882309F44B
:10245000B1C0F601838D948DF701948F838FF601BF
:1024600016821782108611861286138614861586A8
:10247000A12CF601028513852485358583899489ED
:10248000A589B689081719072A073B07E8F545E02B
:1024900036952795179507954A95D1F70F70C60180
:1024A0000E94A50F009709F485C0FC01208122231A
:1024B00011F0253EB9F4A1100EC0F701028B409136
:1024C000060150910701609108017091090146874A
:1024D0005787608B718BFC018081AA24A3948111A2
:1024E000C8CF12C04BE050E0BC01CE0101960E9463
:1024F0007332892B09F0BDCF8B2D8073803309F4A3
:1025000059C04B2D602F52C08B2D8271823109F042
:1025100051C0AA2041F061E0C7010E94FC0D8C016E
:10252000009779F447C0F6018581823009F442C0F2
:10253000C6010E949B0D8823E9F1F701128A05E488
:1025400013E080E2F80111928A95E9F78BE0FE0131
:102550003196D80101900D928A95E1F7E0913C0304
:10256000F0913D03309739F0B801625F7F4FC801A9
:102570004096099509C081E298E2F801918B808B21
:1025800080E098E097878687F80180899189938B0E
:10259000828B918F808F86859785978B868B0E9403
:1025A0009C14882339F04B2DF7016289C7010E94E2
:1025B000991101C080E02B960FB6F894DEBF0FBED4
:1025C000CDBFDF91CF911F910F91FF90EF90DF90E2
:1025D000CF90BF90AF9008952F923F924F925F920D
:1025E0006F927F928F929F92AF92BF92CF92DF9223
:1025F000EF92FF920F931F93CF93DF9300D000D001
:102600001F92CDB7DEB78C017B013A01DC01159634
:102610008C9115978130C9F414968C9181FF15C067
:1026200082FF1BC0F80143895489658976898285B8
:102630009385A485B58584179507A607B70769F024
:10264000C8010E94F00F811108C081E090E0F801FC
:102650009383828380E090E046C1630180C0D8010B
:102660005B968D919C915C97FC01F481F150B501D2
:10267000A40129E076956795579547952A95D1F756
:10268000F423FD8321E09222FF2309F474C080E04B
:1026900092E08819990956018C159D0508F45C0192
:1026A000D8015B96ED91FC915C9716962D903D902C
:1026B0004D905C901997B2E02B1A310841085108EF
:1026C000058404C0220C331C441C551C0A94D2F708
:1026D00086859785A089B189280E391E4A1E5B1E02
:1026E000ED812E0E311C411C511CA114F2E0BF06DD
:1026F00009F088C08091060190910701A09108011E
:10270000B091090182159305A405B50559F48FEF21
:102710009FEFDC018093060190930701A0930801CD
:10272000B09309019701B201A101809143039091F7
:1027300044030E941D0D882309F487CF9EEFF91AE8
:10274000CA18DB08F80182859385A485B5858A0DB2
:102750009B1DA11DB11D82879387A487B587D801D2
:102760001A968D909D90AD90BC901D97C114D10488
:1027700009F075CF8AC08114910409F088CF1696AC
:102780004D915D916D917C911997411551056105B0
:10279000710559F457968D919D910D90BC91A02D86
:1027A0000097A105B10541F521C09E012F5F3F4F64
:1027B0000E943815882309F44ECF89819A81AB8114
:1027C000BC81F801238D348DF9012789203129F44A
:1027D00048EF5FEF60E070E004C048EF5FEF6FEF3D
:1027E0007FE084179507A607B70730F0C8010E945D
:1027F000710D81114CCF29CFF80186839783A08773
:10280000B18745CF8114910429F5D8011A964D91CD
:102810005D916D917C911D9753968D919D910D9039
:10282000BC91A02D481759076A077B0798F00E94B2
:102830009C14882309F409CF2092060130920701E5
:102840004092080150920901809142038160809377
:10285000420308C041E0C201B1010E94D71488239D
:1028600009F4F3CEC4018B5B9C4FD7019C012A0D68
:102870003B1DFC01E217F30719F04D914193FACF8C
:10288000E81BF90BEE0EFF1E5BCF53968D919D91C9
:102890000D90BC91A02DF801248188159905AA05F9
:1028A000BB0538F4838A948AA58AB68A2068248373
:1028B0000CC080913C0390913D03892B31F0611451
:1028C000710419F02068F8012483D80114968C91C2
:1028D00083FD02C0C30107C0C8010E948C10882379
:1028E00009F4B3CEF7CF0F900F900F900F900F9089
:1028F000DF91CF911F910F91FF90EF90DF90CF90DC
:10290000BF90AF909F908F907F906F905F904F900F
:102910003F902F900895CF93DF931F92CDB7DEB7EE
:10292000698341E050E0BE016F5F7F4F0E94EC126F
:102930000F90DF91CF91089580914203882399F100
:1029400040910601509107016091080170910901C1
:1029500025E433E080914303909144030E941D0DD0
:10296000882319F140913E0350913F036091400349
:1029700070914103411551056105710591F025E400
:1029800033E080914303909144030E941D0D8823FE
:1029900061F010923E0310923F0310924003109298
:1029A00041031092420381E0089580E00895CF92A0
:1029B000DF92EF92FF92CF936B017C01C42F809145
:1029C000060190910701A0910801B09109018C15B1
:1029D0009D05AE05BF05D1F00E949C14811102C077
:1029E00080E01AC025E433E0B701A60180914303DB
:1029F000909144030E94CA0C882391F3C09206016F
:102A0000D0920701E0920801F092090180914203FF
:102A10008C2B8093420381E0CF91FF90EF90DF9069
:102A2000CF900895CF92DF92EF92FF926B017C01DD
:102A30000E949C148823B1F0E5E4F3E0119285E054
:102A4000E534F807D9F7C0920601D0920701E09269
:102A50000801F09209018091420381608093420352
:102A600081E001C080E0FF90EF90DF90CF9008956B
:102A70008F929F92AF92BF92CF92DF92EF92FF928E
:102A80000F931F93CF93DF938C016A017B01E901C0
:102A9000FC0181859285A385B4850196A11DB11D98
:102AA00084179507A607B70710F480E058C0F8010F
:102AB00043895489658976898789803129F4BB27C0
:102AC000AF2D9E2D8D2D09C0D701C60127E0B695EB
:102AD000A795979587952A95D1F74C015D01840EAE
:102AE000951EA61EB71EC501B401809006019090E8
:102AF0000701A0900801B0900901681579058A05C1
:102B00009B0589F4F8018789803199F4DD24EE244E
:102B1000FF24F601EE0FFF1FEB5BFC4F80819181DC
:102B2000A0E0B0E017C040E00E94D7148111EACFC6
:102B3000BCCFE894C7F8DD24EE24FF24F601EE0FA5
:102B4000FF1FEE0FFF1FEB5BFC4F80819181A28185
:102B5000B381BF7088839983AA83BB8381E0DF91AF
:102B6000CF911F910F91FF90EF90DF90CF90BF908A
:102B7000AF909F908F9008954F925F926F927F9247
:102B8000AF92BF92CF92DF92EF92FF920F931F937B
:102B9000CF93DF9300D000D0CDB7DEB78C0149834F
:102BA0005A836B837C835901C12CD12C7601412C33
:102BB00042E0542E612C712C49815A816B817C81B9
:102BC0009E012F5F3F4FC8010E943815882359F19D
:102BD000D301C201F801058404C0880F991FAA1F00
:102BE000BB1F0A94D2F7C80ED91EEA1EFB1E4981EC
:102BF0005A816B817C818789803129F488EF9FEF2E
:102C0000A0E0B0E004C088EF9FEFAFEFBFE048174F
:102C100059076A077B0780F2F501C082D182E28200
:102C2000F38281E001C080E00F900F900F900F9031
:102C3000DF91CF911F910F91FF90EF90DF90CF9098
:102C4000BF90AF907F906F905F904F9008954F929C
:102C50005F926F927F928F929F92AF92BF92CF922C
:102C6000DF92EF92FF920F931F93CF93DF93EC01CC
:102C70006A017B0128013901423051056105710566
:102C800008F474C049855A856B857C854F5F5F4F1A
:102C90006F4F7F4F4C155D056E057F0508F466C0CC
:102CA0008B889C88AD88BE888F89803129F47727EE
:102CB0006F2D5E2D4D2D09C0B701A601E7E0769579
:102CC000679557954795EA95D1F7840E951EA61EF0
:102CD000B71E409106015091070160910801709163
:102CE000090184169506A606B70671F48F8980310E
:102CF00099F4DD24EE24FF24F601EE0FFF1FEB5BB9
:102D0000FC4F5182408218C040E0C501B4010E94CE
:102D1000D7148111EBCF2AC0E894C7F8DD24EE2444
:102D2000FF24F601EE0FFF1FEE0FFF1FEB5BFC4FC2
:102D300040825182628273828091420381608093DB
:102D400042038A89823080F08D819E81AF81B8856F
:102D5000880D991DAA1DBB1D80933E0390933F03D0
:102D6000A0934003B093410381E001C080E0DF9174
:102D7000CF911F910F91FF90EF90DF90CF90BF9078
:102D8000AF909F908F907F906F905F904F9008953D
:102D90002F923F924F925F926F927F929F92AF924B
:102DA000BF92CF92DF92EF92FF920F931F93CF9338
:102DB000DF93CDB7DEB760970FB6F894DEBF0FBED6
:102DC000CDBF5C014D875E876F87788B1901D90174
:102DD0004D905D906D907C9041145104610471049C
:102DE00031F0BFEF4B1A5B0A6B0A7B0A10C0FC0183
:102DF0004080518062807380992493940D851E8554
:102E00002F853889013011052105310509F0912CF4
:102E1000D50119962D913D914D915C911C972F5F95
:102E20003F4F4F4F5F4F29873A874B875C8773012E
:102E300062011D821E821F821886F501818592859E
:102E4000A385B4850D811E812F8138850817190748
:102E50002A073B0708F056C029853A854B855C85D3
:102E60002C153D054E055F0550F4A2E0CA2ED12C6D
:102E7000E12CF12CB2E04B2E512C612C712C9E01D7
:102E80002F5F3F4FB701A601C5010E943815882367
:102E9000C9F149815A816B817C81D701C6010196B4
:102EA000A11DB11D452B462B472B19F02C013D01CF
:102EB0000FC0AC01BD0144195509660977090D859C
:102EC0001E852F853889401751076207730779F0EF
:102ED0002D813E814F8158852F5F3F4F4F4F5F4F70
:102EE0002D833E834F8358876C017D01A6CF0FEF62
:102EF0001FEF2FEF3FE0B701A601C5010E94271683
:102F0000811118C080E041C0D701C6010197A10915
:102F1000B1098D839E83AF83B88797018601AC0189
:102F2000BD01C5010E942716882361F3CD80DE8094
:102F3000EF80F8844C145D046E047F0428F3D10103
:102F40004D915D916D917C91411551056105710522
:102F500099F4F10140825182628273829920A1F03A
:102F6000FFEF4F1A5F0A6F0A7F0AD5014D925D92FB
:102F70006D927C92139708C093018201C5010E9453
:102F800027168111E6CFBECF81E060960FB6F89488
:102F9000DEBF0FBECDBFDF91CF911F910F91FF908C
:102FA000EF90DF90CF90BF90AF909F907F906F9009
:102FB0005F904F903F902F900895AF92BF92CF9225
:102FC000DF92EF92FF920F931F93CF93DF9300D086
:102FD00000D0CDB7DEB75C016A017B0182E090E0F2
:102FE000A0E0B0E0F50180839183A283B3839E01CA
:102FF0002F5F3F4FB701A601C5010E9438158823F6
:1030000011F100E010E09801B701A601C5010E948E
:1030100027168823C1F0C980DA80EB80FC80F50197
:103020008789803129F488EF9FEFA0E0B0E004C0E9
:1030300088EF9FEFAFEFBFE0C816D906EA06FB06A0
:10304000B0F281E001C080E00F900F900F900F90E0
:10305000DF91CF911F910F91FF90EF90DF90CF9074
:10306000BF90AF9008958F929F92AF92BF92CF92F0
:10307000DF92EF92FF920F931F93CF93DF93EC01B8
:10308000142F7093440360934303442341F145306C
:1030900010F080E0EFC040E060E070E0CB010E9403
:1030A000D7148823B1F320E1129FF0011124ED50D1
:1030B000FB4F80818F7769F784859585A685B785D5
:1030C00084369105A105B10520F3C084D184E28442
:1030D000F384C114D104E104F10421F4DACFC12C4A
:1030E000D12C760140E0C701B6010E94D714882395
:1030F00081F280915003909151038115924049F6DD
:1031000030915503332329F2809153039091540356
:10311000892B09F4BECF20915203222309F4B9CFA1
:103120003A8B2C831D8630E041E050E06D85062F00
:10313000CA01062E02C0880F991F0A94E2F72817C9
:10314000390731F081E0860F8D87683078F3A1CFA1
:1031500020915B0330915C032115310519F040E0AB
:1031600050E008C02091690330916A0340916B03DD
:1031700050916C032D833E834F8358878091530376
:103180009091540346015701880E991EA11CB11C51
:103190008B8A9C8AAD8ABE8AE0915603F0915703D0
:1031A000F98FE88FA0915503B0E00E943831680D87
:1031B000791D8A1D9B1D6A8F7B8F8C8F9D8F15E0DB
:1031C000EE0FFF1F1A95E1F7E150FE4FEF2FFF279B
:1031D000E695DC01CB018E0F9F1FA11DB11D8E87CF
:1031E0009F87A88BB98B80905803909059038114C6
:1031F000910419F0A12CB12C08C080906503909027
:103200006603A0906703B0906803A7019601281B8E
:10321000390B4A0B5B0BDA01C901880D991DAA1DF8
:10322000BB1D04C0B695A795979587950A95D2F7CB
:1032300089879A87AB87BC87853F3FE09307A105C5
:10324000B10510F48CE014C0853F9F4FA105B10576
:1032500010F480E10DC08091710390917203A091F0
:103260007303B09174038A8F9B8FAC8FBD8F80E204
:103270008F8B81E0DF91CF911F910F91FF90EF90A5
:10328000DF90CF90BF90AF909F908F90089508955A
:10329000FC0187E499E1928B818B768365831482AC
:1032A000108289E0818381E0828383830895CF93B4
:1032B000DF93EB0167E0CE010E94672191E02F814F
:1032C000821390E0892FDF91CF910895EF92FF92C2
:1032D0000F931F93CF93DF93EC018B01E42E8D812D
:1032E0009E810E949A20F12CB8018D819E810E94BE
:1032F000CF20882359F0FE1006C0B801CE010E94ED
:103300005719811104C0F394EF1470F780E0DF9136
:10331000CF911F910F91FF90EF900895CF92DF9280
:10332000EF92FF920F931F93CF93DF9300D0CDB70F
:10333000DEB76C01F42EE52EFC0185819681698350
:103340007A830E94731F69817A81882311F1F601C3
:10335000858196810E946E2040E06EEBF6018581AA
:1033600096810E9410200F2D1E2D89E0F82EF60167
:10337000858196810E945220F80181938F01FA94F1
:10338000B1F7F601858196810E94731F91E081302B
:1033900009F090E0892F0F900F90DF91CF911F914E
:1033A0000F91FF90EF90DF90CF900895CF93DF9330
:1033B000EA010E948E19882351F068E0CE010E9434
:1033C000672191E02885821390E0892F01C080E079
:1033D000DF91CF910895CF93DF93CDB7DEB72997D3
:1033E0000FB6F894DEBF0FBECDBFAE014F5F5F4F8B
:1033F0000E948E1981E09981911101C080E0299687
:103400000FB6F894DEBF0FBECDBFDF91CF91089508
:103410008F929F92AF92BF92CF92DF92EF92FF92E4
:103420000F931F93CF93DF93EC018A0169506330B0
:1034300048F4E62FF0E0EE0FFF1FE75BFD4F8080C2
:10344000918004C09EEE892E92E0992E01151105FF
:1034500001F18B818823E9F0888181111AC00E94D3
:10346000A9276B017C01AA2497FCA094BA2CB8016F
:10347000CE010E94EB1981111FC00E94A927681973
:1034800079098A099B096C157D058E059F05A0F4B5
:10349000EECFB401882777FD8095982FDF91CF91EB
:1034A0001F910F91FF90EF90DF90CF90BF90AF9062
:1034B0009F908F900C94D827DF91CF911F910F91FF
:1034C000FF90EF90DF90CF90BF90AF909F908F9044
:1034D0000895CF93DF93EC018D819E810E94731F2D
:1034E0008D819E810E949620488164E48D819E8119
:1034F0000E9410208A81882341F040E050E06981D9
:10350000CE01DF91CF910C94081ADF91CF910895ED
:10351000FA01208148E0249F90011124818190E0EC
:10352000982F8827990F990F990F282B392BDB019A
:103530008C918031C1F4678170E08681AB01481BBA
:103540005109CA019695982F8827979587950E94CB
:10355000ED3060517109207F53E0220F331F5A95DF
:10356000E1F7260F371FC9010895EF92FF920F93DD
:103570001F93CF93DF93CDB7DEB729970FB6F8949B
:10358000DEBF0FBECDBF8C017B01AE014F5F5F4F31
:103590000E94D619882341F0AE014F5F5F4FB701FB
:1035A000C8010E94881A02C080E894EE29960FB6DE
:1035B000F894DEBF0FBECDBFDF91CF911F910F9169
:1035C000FF90EF900895813824EE9207A4F0BC019B
:1035D000882777FD8095982F0E94042E26E636E6F0
:1035E00046E65CE30E94B82E20E030E040E052E482
:1035F0000E94012D08956AE979E984E493EC089525
:103600000E94B51A0C94E31A0F931F93CF93DF9384
:10361000CDB7DEB728970FB6F894DEBF0FBECDBF8B
:103620008C01462FBE016F5F7F4F0E946619882371
:1036300039F0BE016F5F7F4FC8010E94001B04C0BC
:103640006AE979E984E493EC28960FB6F894DEBF32
:103650000FBECDBFDF91CF911F910F910895DC0177
:1036600015966C93159716964C93169770E0FB0180
:10367000EB5AFD4FE4911796EC931797FB01E7592E
:10368000FD4F649118966C93189740E85EE360E0F4
:1036900070E01D964D935D936D937C9350970895C4
:1036A000CF93DF93EC0162E08D810E948F2840E38D
:1036B00058EF6FEF7FEF49875A876B877C87DF91E1
:1036C000CF9108954F925F926F927F928F929F92C7
:1036D000AF92BF92CF92DF92EF92FF920F931F9320
:1036E000CF93DF93CDB7DEB728970FB6F894DEBF40
:1036F0000FBECDBF4A015B01280139011E2DE1102B
:1037000010C026E636E646EE5FE3C501B4010E942E
:10371000B82E20E030E040E052E40E94012D4B0141
:103720005C0120E030E044E752E4C501B4010E94AE
:10373000012D6B017C0120E030E048E852E4C50136
:10374000B4010E94002D2AE939E949E95FE30E94AA
:10375000B82E9B01AC01C701B6010E94012D6B017F
:103760007C0122E133E840EC5DE3C301B2010E9439
:10377000B82E9B01AC01C701B6010E94012D20E0CB
:1037800030E040E05FE30E94B82EF62ED72EE82E00
:10379000C92E20E030E04EE952E40E94B42E181603
:1037A0000CF07DC1A5019401C501B4010E94B82EA1
:1037B0006B017C01A3019201C301B2010E94B82EEA
:1037C0006D837E838F83988721E133E243E050E469
:1037D000C501B4010E94B82E29E134E849E252E45F
:1037E0000E94002D69837A838B839C8326E13BE4CE
:1037F00042E251E4C301B2010E94B82E9B01AC0128
:1038000069817A818B819C810E94012D69837A83F1
:103810008B839C8328E436E246E65EEBC501B40167
:103820000E94B82EA30192010E94B82E9B01AC0108
:1038300069817A818B819C810E94012D69837A83C1
:103840008B839C8320EE3FE040EE5BEBC701B6012B
:103850000E94B82E9B01AC0169817A818B819C8189
:103860000E94012D69837A838B839C8328EF37E83C
:1038700040E65DEB6D817E818F8198850E94B82E38
:103880009B01AC0169817A818B819C810E94012D11
:1038900069837A838B839C832CEA3DE041EA5AE377
:1038A000C701B6010E94B82EA30192010E94B82E52
:1038B0009B01AC0169817A818B819C810E94012DE1
:1038C00069837A838B839C8328EC3FE84FE55AE336
:1038D000C501B4010E94B82E2D813E814F815885CB
:1038E0000E94B82E9B01AC0169817A818B819C81F9
:1038F0000E94012D69837A838B839C8321EF3BE8AF
:1039000045E056EBC701B6010E94B82E2D813E81DD
:103910004F8158850E94B82E9B01AC0169817A8144
:103920008B819C810E94012DF62ED72EE82EC92E68
:1039300020E030E040E551E4C301B2010E94652D72
:1039400087FF5EC020E030E040EA52E4C501B401E8
:103950000E94B42E87FD54C020E030E040EE52E4D7
:10396000C501B4010E94652D18160CF4AFC0A30167
:10397000920160E070E080E591E40E94002D20E07B
:1039800030E040E85EE30E94B82E2B013C0120E0CD
:1039900030E04EEB52E4C501B4010E94002D4B0112
:1039A0005C0120E030E0A9010E94B42E18164CF40E
:1039B000A501940160E070E088E891E40E94002D88
:1039C00008C020E030E048E851E4C501B4010E949D
:1039D000012D2EE33DEE40E75DE30E94B82E0E94EC
:1039E0006B2F9B01AC01C301B2010E94B82E9B0159
:1039F000AC016F2D7D2D8E2D9C2D0E94002D4BC076
:103A000020E030E04AEA52E4C301B2010E94B42E41
:103A100018160CF044C020E030E040EA52E4C50142
:103A2000B4010E94B42E87FD3AC020E030E04EEA97
:103A300052E4C501B4010E94652D181684F120E0FE
:103A400030E04AEA52E4C301B2010E94002D2DEC9D
:103A50003CEC4CEC5DE30E94B82E2B013C01A5012F
:103A6000940160E070E08EEA92E40E94002D2DEC5B
:103A70003CEC4CE45EE30E94B82E9B01AC01C30118
:103A8000B2010E94B82E9B01AC016F2D7D2D8E2DB1
:103A90009C2D0E94012DF62ED72EE82EC92E111135
:103AA00021C020E030E040E052E46F2D7D2D8E2DCE
:103AB0009C2D0E94002D26E838E34EE05FE30E9433
:103AC000B82EF62ED72EE82EC92E0CC020E030E0FE
:103AD0004AEA52E4C301B2010E94B42E18160CF453
:103AE000A4CFDDCF6F2D7D2D8E2D9C2D28960FB66A
:103AF000F894DEBF0FBECDBFDF91CF911F910F9124
:103B0000FF90EF90DF90CF90BF90AF909F908F90FD
:103B10007F906F905F904F900895AF92BF92CF9239
:103B2000DF92EF92FF920F931F93CF93DF93EC01FD
:103B3000AF80662311F0BA2C01C0B12CA885B0E08B
:103B4000AA0FBB1FA358BD4F40E050E0BA01FD01D2
:103B500085919491FC0180818A218B1112C08A0188
:103B60009B010F5F1F4F2F4F3F4FCD84DE84EF84AB
:103B7000F8884C155D056E057F0538F4B901A8017C
:103B8000E6CF342F252FCB0104C030E020E080E0C9
:103B900090E0632F722FDF91CF911F910F91FF90D3
:103BA000EF90DF90CF90BF90AF900895CF92DF92CB
:103BB000EF92FF920F931F93CF93DF93CDB7DEB7B2
:103BC000C054D1400FB6F894DEBF0FBECDBF8C01FC
:103BD000F62E0E94A927F11016C0F801C184D284E4
:103BE000E384F4849B01AC012C193D094E095F0963
:103BF00069017A0130EDC31637E0D306E104F10420
:103C000010F48189BAC0F80161877287838794872D
:103C10001482138212821182108261E085810E94D7
:103C2000C8286AEF70E080E090E00E94D82761E049
:103C3000F80185810E948F2860E0F80185810E944B
:103C4000C82864E170E080E090E00E94D827F894F2
:103C500061E0F80185810E94C82888E290E00E9416
:103C6000002862E0F80185810E948F288AE090E0B8
:103C70000E94002860E0C8010E948D1D672B682B00
:103C8000692B41F061E0C8010E948D1D672B682BF4
:103C9000692B21F4F801118A78946EC06E01FFEB54
:103CA000CF1AFEEFDF0A9E012F5F3F4F790160E0E0
:103CB000C8010E948D1DF701608371838283938305
:103CC00061E0C8010E948D1DF701648375838683BE
:103CD0009783F8E0EF0EF11CEC14FD0441F77894A3
:103CE0009E012F5F3F4F790120E030E0F7014081D6
:103CF00051816281738184819581A681B78141154B
:103D0000510561057105B1F10097A105B10591F16A
:103D1000F901F595E795F595E795F595E795E00FA8
:103D2000F11FD080DD0C481759076A077B0710F098
:103D3000D08203C08D2D816080832F5F3F4FF8E0DC
:103D4000EF0EF11C2832310589F6F801248130E0AC
:103D50004081818190E0840F911D4281840F911DEB
:103D60004381840F911D99272817390719F481E0A1
:103D7000818B03C0F801118A80E0C05CDE4F0FB672
:103D8000F894DEBF0FBECDBFDF91CF911F910F9191
:103D9000FF90EF90DF90CF900895CF92DF92EF9257
:103DA000FF920F931F93CF93DF93EC01162F642F95
:103DB0000E94D61D882309F443C08E818B3031F0D8
:103DC00008F43EC08551823040F03AC06A8170E00C
:103DD00080E090E00E94022E24C00A81602F6F775D
:103DE00070E080E090E00E94042E20E030E040E8A7
:103DF00053E40E94B82E6B017C016B8170E080E07F
:103E000090E00E94042E9B01AC01C701B6010E9404
:103E1000012D2DEC3CEC4CEC5DE30E94B82E07FD2F
:103E20009058112389F026E636E646EE5FE30E94BD
:103E3000B82E20E030E040E052E40E94012D04C0A2
:103E400060E070E080EC9FE7DF91CF911F910F91D0
:103E5000FF90EF90DF90CF900895CF92DF92EF9296
:103E6000FF92CF93DF93EC0160E00E94D61D882380
:103E700079F18E818B3029F158F18551823040F5EE
:103E8000688170E080E090E00E94022E20E030E047
:103E900040E853E40E94B82E6B017C01698170E018
:103EA00080E090E00E94042E9B01AC01C701B601A6
:103EB0000E94012D2DEC3CEC4CEC5DE30E94B82EF1
:103EC0000BC0688170E080E090E00E94022E04C088
:103ED00060E070E080EC9FE7DF91CF91FF90EF9082
:103EE000DF90CF900895FF920F931F93CF93DF93AE
:103EF000FC010081C181D281F8948981F02EF09477
:103F00008F21898378941DE7115029F182E090E098
:103F10000E94002888818023B9F3F8948A818F2138
:103F20008A838981802B8983789480EE91E00E9436
:103F30000028F89489818F21898386E490E00E948B
:103F400000288881802311E009F010E078948AE944
:103F500091E00E940028812FDF91CF911F910F9156
:103F6000FF9008951F93CF93DF93FC011081C181CF
:103F7000D281912F909560FF12C0F8948A81892395
:103F80008A838981812B89838AE090E00E940028BE
:103F90008A81812B8A83789487E390E011C0F8941A
:103FA0008A8189238A838981812B898381E490E0B6
:103FB0000E9400288A81812B8A83789485E090E092
:103FC000DF91CF911F910C9400280F931F93CF93F3
:103FD000DF93FC011081C181D281F8948981812B0A
:103FE00089838A81012F009580238A8383E090E072
:103FF0000E9400288981802389838AE090E00E94C2
:104000000028C881789485E390E00E9400281C2352
:1040100081E009F480E0DF91CF911F910F91089525
:10402000CF92DF92EF92FF920F931F93CF93DF9384
:104030001F92CDB7DEB76C01E62E08E010E0FF243A
:10404000F39461E09F2D9E2109F460E0C60149834D
:104050000E94B21FFF0C0150110949810115110581
:1040600081F7411115C0F894D6011196ED91FC919C
:10407000129791818C918095892381831196ED917E
:10408000FC91129792818C918095892382837894F8
:104090000F90DF91CF911F910F91FF90EF90DF90E4
:1040A000CF900895EF92FF920F931F93CF93DF93DA
:1040B0008C01C8E0D0E0F12CEE24E394C8010E940A
:1040C000E51F8111FE28EE0C2197C1F78F2DDF919E
:1040D000CF911F910F91FF90EF900895CF92DF92B3
:1040E000FF920F931F93CF93DF931F92CDB7DEB74D
:1040F0008C01F62E40E065E579830E941020CF2CDC
:104100007981D72E88E0F82EF60161916F0140E0A9
:10411000C8010E941020FA94B9F70F90DF91CF9157
:104120001F910F91FF90DF90CF90089540E06CECCD
:104130000C941020FC0113861586148627E030E0CD
:10414000DF01A20FB31F13961C922115310519F040
:1041500021503109F5CF08951F93CF93DF93EC01E0
:10416000162F60E0812F0E948F28612F70E0FB01E5
:10417000EB5AFD4FE491E883FB01E759FD4FE491D1
:10418000F0E0EE0FFF1FE358FD4F859194919A8365
:104190008983CE01DF91CF911F910C949A20AF9229
:1041A000BF92CF92DF92EF92FF920F931F93CF9324
:1041B000DF931F92CDB7DEB75C01E62ED72EFC0150
:1041C000858581115DC0C5010E94731F811105C0E5
:1041D000F5011386158614866EC040E060EFC501B8
:1041E0000E94102001E0F12CC12C11E0C5010E94B9
:1041F000E51F682FC50169830E94E51F6981613051
:1042000019F48130B9F433C02F2D30E068131BC08E
:10421000F5018385181730F4E20FF31F83818023A3
:1042200049F402C0181731F060E0193058F4F50174
:10423000148708C0F501EF0DF11D8381802B838366
:1042400061E009C0C12EF501E20FF31F8381902FB9
:10425000909589238383C5010E94B21F1F5F000FC1
:1042600011F4F39401E0F7E0FF1508F0BFCF11342B
:1042700038F0F501C386C11018C081E0858715C0EC
:10428000F50113861586148680E0EE2DFD2D20E0C5
:1042900030E0D501A20FB31F13969C9191932F5F2D
:1042A0003F4F28303105A9F706C0F50183818823E7
:1042B00039F381E0EACF0F90DF91CF911F910F91F9
:1042C000FF90EF90DF90CF90BF90AF900895DC010A
:1042D00080E0615038F0ED91E827F0E0EB5CFE4FB4
:1042E0008491F7CF0895803D27E0920710F0805D1C
:1042F000974050E0E5E3F2E021E02E1B322F3E0F25
:10430000361728F43491430F511D3196F7CF63309F
:1043100038F09C0123703327232B11F44F5F5F4F3C
:104320006DE671E0869F9001879F300D969F300D5E
:104330001124215031090396969587959695879576
:10434000280F391FC901840F951F0895FC01208192
:1043500020532A3008F020E0FC0181818053FAE0EC
:104360002F9F800D11240895CF92DF92EF92FF923C
:10437000CF93DF93EC01405853446D467843ECE310
:10438000CE2ED12CE12CF12CCB01BA01A701960144
:104390000E9401316D83CA01B901A70196010E94F3
:1043A00001316C83CA01B90128E130E040E050E0FE
:1043B0000E9401316B83188243E95EEFE8818E2F02
:1043C0008370A1E009F0A0E08A2F90E0BC0163595E
:1043D0007E4F2617370740F0BA01681B790B260F6E
:1043E000371FEF5FE883EACF81E089838981E82F77
:1043F000F0E0EC5CFD4FE491AA2319F0823009F45F
:10440000EF5FF0E02E173F0720F02E1B3F0B8F5F72
:10441000ECCF2F5F2A83DF91CF91FF90EF90DF9059
:10442000CF900895CF92DF92EF92FF920F931F9358
:10443000CF93DF93CDB7DEB72B970FB6F894DEBFDF
:104440000FBECDBF7C016A014BE050E0CE0101966A
:104450000E946A32CE010A960E94A621F70180834B
:104460000981112707FD1095212F312FF801E15403
:10447000F109E331F10548F5EC5CFF4F0C94233171
:104480008A81813639F08B818E3611F486E01BC02B
:1044900087E019C081E017C082E015C08B818237A8
:1044A00011F484E010C088E00EC08B81823711F4D3
:1044B00083E009C085E007C089E005C08AE003C049
:1044C0008BE001C08CE0F7018183CE0105960E944C
:1044D000A621F701828348E050E0B601CE010196A3
:1044E0000E946A32CE0101960E94A621F7018383C1
:1044F000CE0104960E94A621F7018483CE0107967F
:104500000E94A621F70185832B960FB6F894DEBF93
:104510000FBECDBFDF91CF911F910F91FF90EF9014
:10452000DF90CF900895CF93DF93EC0188814A818B
:10453000698190E00E9473219C01A8E1B0E00E9493
:1045400029319B01AC018B81280F311D411D511D6B
:10455000ACE3B0E00E9438319B01AC018C81280FA4
:10456000311D411D511D0E9438312D81620F711D79
:10457000811D911D60587C4B8249974CDF91CF91F2
:10458000089589E495E00E94B82481E008951F937E
:10459000CF93DF93EC0168E670E089E495E00E9438
:1045A000CC2460E089E495E00E9479242D811AE012
:1045B000822F612F0E94CD30682F660F680F660F23
:1045C000620F89E495E00E9479242C81822F612F6B
:1045D0000E94CD30682F660F680F660F620F89E466
:1045E00095E00E9479242B81822F612F0E94CD308B
:1045F000682F660F680F660F620F89E495E00E94CE
:10460000792460E089E495E00E9479242A81822F50
:10461000612F0E94CD30682F660F680F660F620F02
:1046200089E495E00E9479242981822F612F0E94DC
:10463000CD30682F660F680F660F620F89E495E032
:104640000E9479242881822F612F0E94CD30682F0B
:10465000660F680F660F620F89E495E00E94792467
:1046600089E495E0DF91CF911F910C944525CF937C
:10467000DF9368E670E089E495E00E94CC2460E076
:1046800089E495E00E94792489E495E00E9445251B
:1046900041E050E068E670E089E495E00E94422540
:1046A00089E495E00E94292487FB882780F9C82F98
:1046B00080E0D82F81E0C8278C2FDF91CF9108951B
:1046C000CF92DF92EF92FF920F931F93CF93DF93DE
:1046D000EC0168E670E089E495E00E94CC2460E09B
:1046E00089E495E00E94792489E495E00E944525BB
:1046F00047E050E068E670E089E495E00E944225DA
:1047000089E495E00E9429248F77982F92959F70D5
:104710001AEF082F919F000D112489E495E00E9463
:1047200029249C013327A4E035952795AA95E1F724
:10473000F82E129FF00C112489E495E00E942924A0
:104740009C013327B4E035952795BA95E1F7E82E1B
:10475000129FE00C112489E495E00E94292489E449
:1047600095E00E9429249C01332794E035952795F4
:104770009A95E1F7D82E129FD00C112489E495E088
:104780000E9429249C01332744E0359527954A95BA
:10479000E1F7C82E129FC00C112489E495E00E9415
:1047A00029249C01332754E0359527955A95E1F744
:1047B000129F800D11248883C982DA82EB82FC82E9
:1047C0000D83CE01DF91CF911F910F91FF90EF905C
:1047D000DF90CF900895CF93CFB7F894809148059C
:1047E000811127C0E3E7F2E08491EFE5F2E09491D4
:1047F000E82FF0E0EE0FFF1FEF56FD4FA591B491AB
:104800008C91892321F461E08AE00E94C82861E04C
:104810008AE00E948F288CB580618CBD8CB5806445
:104820008CBD61E08DE00E948F2861E08BE00E94EA
:104830008F28809148058F5F80934805CFBFCF9127
:1048400008958091790590E020917A05821B910965
:10485000089520917A0580917905281750F4E22F68
:10486000F0E0E558FA4F808190E02F5F20937A05C1
:1048700008958FEF9FEF0895E0917A058091790573
:10488000E81730F4F0E0E558FA4F808190E00895A1
:104890008FEF9FEF08950895CF92DF92EF92FF92EE
:1048A0000F931F93CF93DF937C01CB018A0120915B
:1048B0005505222389F0EB016B01C40ED51ECC15E2
:1048C000DD0569F06991D701ED91FC910190F081CE
:1048D000E02DC7010995F3CF642F0E940926C80176
:1048E000DF91CF911F910F91FF90EF90DF90CF90CC
:1048F0000895CF93DF931F92CDB7DEB769832091E0
:1049000055052223D1F020915605203240F021E0B8
:1049100030E0FC013383228380E090E015C0809179
:104920005705E82FF0E0E85AFA4F998190838F5F9E
:10493000809357058093560505C061E0CE0101962E
:104940000E94092681E090E00F90DF91CF910895B9
:10495000FC011382128248EE53E060E070E0448371
:1049600055836683778383E592E0918380830895FE
:1049700010927A05109279051092570510925605FB
:104980000C944C2581E08093550560937805109236
:1049900057051092560508950C94C2240F93062FC4
:1049A00021E04091560568E575E0809178050E9408
:1049B000B2251092570510925605109255050F9189
:1049C00008958F929F92AF92BF92CF92DF92EF9213
:1049D000FF920F931F93CF93DF93EC01F62ED42E0B
:1049E00048015901EE2019F10E94C2241E2D1430F5
:1049F00008F013E01150B8F0E881F98128E0129F27
:104A0000B0011124A501940104C05695479537952E
:104A100027956A95D2F7CA01B9010190F081E02D7E
:104A2000CE010995E7CF60E0CE010E94CE244D2D46
:104A3000413208F040E22C2D6BE775E08F2D0E948B
:104A40006A2510927A0580937905DF91CF911F91A5
:104A50000F91FF90EF90DF90CF90BF90AF909F901D
:104A60008F900895CF92EF920F931F93C22EE12C57
:104A700000E010E098010E94E1241F910F91EF9057
:104A8000CF90089521E00C94322561E00C94CE245F
:104A900089E495E00C94A8241092080681E08093A4
:104AA00006061092050661E082E10E94C82861E0D6
:104AB00083E10E94C828E9EBF0E080818E7F80834B
:104AC00080818D7F808388E48093B80085E4809323
:104AD000BC000895413208F043C09091080691113E
:104AE000FCCF91E090930806209306062FEF2093C9
:104AF0009B051092E005240F2093DF059093070695
:104B000090910706880F892B8093070680910506F0
:104B1000813061F410920506809107068093BB00F6
:104B20008091BC0083FDF8CF85EC01C085EE8093B9
:104B3000BC00809108068130E1F38091E005841784
:104B400010F44091E00521EE35E0FB01D9018A2FF8
:104B5000821B841718F48D918193F9CF842F0895C7
:104B600080E008950F93413208F04AC09091080602
:104B70009111FCCF92E090930806009306069FEFF8
:104B800090939B051092E0054093DF05FB0161EED9
:104B900075E0DB019A2F961B941718F491919D9361
:104BA000F9CF1092070690910706880F892B809302
:104BB000070680910506813061F410920506809108
:104BC00007068093BB008091BC0083FDF8CF85EC85
:104BD00001C085EE8093BC00222321F0809108065D
:104BE0008230E1F380919B058F3F61F080919B05BE
:104BF000803251F080919B05803341F483E007C0FF
:104C000081E005C080E003C082E001C084E00F9134
:104C10000895613298F420910806243089F4609355
:104C2000BD05FC018FEB95E0DC012A2F281B261720
:104C300018F421912D93F9CF80E0089581E0089533
:104C400082E0089585ED8093BC008091BC0084FDD6
:104C5000FCCF10920806089585EC8093BC0010925A
:104C6000080608951F920F920FB60F9211242F93EA
:104C70003F934F935F936F937F938F939F93AF93E4
:104C8000BF93EF93FF938091B900887F803609F43A
:104C90009EC078F5883209F45DC090F4803109F443
:104CA00056C038F4882309F4F5C0883009F44FC0A1
:104CB000F5C0883109F44EC0803209F45FC0EEC0FF
:104CC000803409F46AC058F4803309F457C088333B
:104CD00009F0E4C080939B050E942C26DFC080353C
:104CE00009F44FC0883509F45DC0883409F0D6C096
:104CF000D3C0883909F4C4C0A8F4883709F467C060
:104D000038F4883609F463C0803709F460C0C6C03F
:104D1000883809F4B5C0803909F45FC0803809F0DB
:104D2000BDC05BC0803B09F483C038F4803A09F40D
:104D300066C0883A09F47CC0B1C0803C09F4A4C0C4
:104D4000883C09F4A1C0883B09F487C0A7C08091C2
:104D5000070610C09091E0058091DF05981770F567
:104D6000E091E00581E08E0F8093E005F0E0EF51E7
:104D7000FA4F80818093BB0085EC83C080939B05B4
:104D80008BC0E091E00581E08E0F8093E00580917B
:104D9000BB00F0E0EF51FA4F80839091E0058091E5
:104DA000DF056BC0E091E00581E08E0F8093E005A8
:104DB0008091BB00F0E0EF51FA4F808380910606AE
:104DC00081116AC081E08093050684EA5EC083E0B9
:104DD0008093080610929C05CFCF80919C0580326D
:104DE00008F04EC0E0919C0581E08E0F80939C05F9
:104DF0008091BB00F0E0E356FA4F8083BDCF0E9464
:104E00002C2680919C05803230F4E0919C05F0E0E6
:104E1000E356FA4F108260919C0570E0E091010624
:104E2000F09102068DE995E0099510929C0536C037
:104E300084E0809308061092BE051092BD05E091B3
:104E40000306F091040609958091BD05811105C006
:104E500081E08093BD051092BF05E091BE0581E021
:104E60008E0F8093BE05F0E0E154FA4F808180936D
:104E7000BB009091BE058091BD05981708F47CCFCA
:104E800085E88093BC000AC085EC8093BC0010923A
:104E9000080604C010929B050E942226FF91EF9104
:104EA000BF91AF919F918F917F916F915F914F9142
:104EB0003F912F910F900FBE0F901F9018951F924A
:104EC0000F920FB60F9211242F933F938F939F93BE
:104ED000AF93BF9380910A0690910B06A0910C06A8
:104EE000B0910D063091090623E0230F2D3720F4F1
:104EF0000196A11DB11D05C026E8230F0296A11D34
:104F0000B11D2093090680930A0690930B06A09387
:104F10000C06B0930D0680910E0690910F06A0919D
:104F20001006B09111060196A11DB11D80930E06C9
:104F300090930F06A0931006B0931106BF91AF9106
:104F40009F918F913F912F910F900FBE0F901F90C7
:104F500018952FB7F89460910A0670910B0680910E
:104F60000C0690910D062FBF08953FB7F8948091DD
:104F70000E0690910F06A0911006B091110626B56D
:104F8000A89B05C02F3F19F00196A11DB11D3FBF81
:104F90006627782F892F9A2F620F711D811D911D11
:104FA00042E0660F771F881F991F4A95D1F7089531
:104FB000CF92DF92EF92FF92CF93DF936B017C0150
:104FC0000E94B527EB01C114D104E104F10489F07A
:104FD0000E94FF2C0E94B5276C1B7D0B683E73401E
:104FE00090F381E0C81AD108E108F108C851DC4FFC
:104FF000EACFDF91CF91FF90EF90DF90CF900895AF
:105000008230910538F0880F991F880F991F0597F6
:105010000197F1F70895789484B5826084BD84B5D2
:10502000816084BD85B5826085BD85B5816085BDA3
:10503000EEE6F0E0808181608083E1E8F0E01082BC
:10504000808182608083808181608083E0E8F0E0FD
:10505000808181608083E1EBF0E0808184608083E7
:10506000E0EBF0E0808181608083EAE7F0E080811E
:10507000846080838081826080838081816080837E
:105080008081806880831092C100089580930A0116
:1050900008958E3008F08E50877020910A0190E4B8
:1050A000299F90011124822B80937C0080917A00AB
:1050B000806480937A0080917A0086FDFCCF809195
:1050C00078002091790090E0922B0895833081F050
:1050D00028F4813099F08230A1F008958730A9F04A
:1050E0008830B9F08430D1F4809180008F7D03C086
:1050F000809180008F7780938000089584B58F77AA
:1051000002C084B58F7D84BD08958091B0008F77F3
:1051100003C08091B0008F7D8093B0000895CF933D
:10512000DF9390E0FC01EB5AFD4F2491FC01E7591D
:10513000FD4F8491882349F190E0880F991FFC016D
:10514000EF56FD4FA591B49189579D4FFC01C59134
:10515000D4919FB7611108C0F8948C912095822357
:105160008C93888182230AC0623051F4F8948C9128
:10517000322F309583238C938881822B888304C0BF
:10518000F8948C91822B8C939FBFDF91CF910895DF
:105190000F931F93CF93DF931F92CDB7DEB7282FC6
:1051A00030E0F901EF5BFD4F8491F901EB5AFD4FBF
:1051B0001491F901E759FD4F04910023C9F08823A8
:1051C00021F069830E9466286981E02FF0E0EE0FEC
:1051D000FF1FE957FD4FA591B4919FB7F8948C91AB
:1051E000611103C01095812301C0812B8C939FBF57
:1051F0000F90DF91CF911F910F910895FC01818D48
:10520000228D90E0805C9F4F821B91098F739927BC
:105210000895FC01918D828D981731F0828DE80FF1
:10522000F11D858D90E008958FEF9FEF0895FC01AB
:10523000918D828D981761F0828DDF01A80FB11DCD
:105240005D968C91928D9F5F9F73928F90E00895F1
:105250008FEF9FEF08958BE99AE2892B49F080E068
:1052600090E0892B29F00E949B2A81110C94000068
:105270000895FC01848DDF01A80FB11DA35ABF4F13
:105280002C91848D90E001968F739927848FA68945
:10529000B7892C93A089B1898C9180648C93938D6C
:1052A000848D981306C00288F389E02D80818F7D5C
:1052B00080830895CF93DF93EC01888D8823C9F014
:1052C000EA89FB89808185FD05C0A889B9898C910F
:1052D00086FD0FC00FB607FCF5CF808185FFF2CFAA
:1052E000A889B9898C9185FFEDCFCE010E9439291B
:1052F000E7CFDF91CF910895CF92DF92FF920F9386
:105300001F93CF93DF931F92CDB7DEB76C0181E07F
:10531000D60158968C9358975B969C915B975C96B8
:105320008C915C97981307C05096ED91FC91519722
:10533000808185FD2EC0F601038D10E00F5F1F4FA9
:105340000F731127F02EF601848DF81211C00FB6DD
:1053500007FCF9CFD6015096ED91FC9151978081D1
:1053600085FFF1CFC60169830E9439296981EBCF9E
:10537000838DE80FF11DE35AFF4F6083D6015B96E2
:105380000C935B975296ED91FC91539780818062CC
:105390000CC0D6015696ED91FC91579760835096BC
:1053A000ED91FC91519780818064808381E090E051
:1053B0000F90DF91CF911F910F91FF90DF90CF90D1
:1053C0000895BF92CF92DF92EF92FF92CF93DF9337
:1053D000EC016A017B01B22EE889F98982E08083C1
:1053E000411581EE580761057105A1F060E079E093
:1053F0008DE390E0A70196010E940131215031090F
:10540000410951095695479537952795211580E112
:10541000380798F0E889F989108260E874E88EE12D
:1054200090E0A70196010E94013121503109410904
:1054300051095695479537952795EC85FD8530831D
:10544000EE85FF852083188EEC89FD89B082EA897C
:10545000FB89808180618083EA89FB898081886003
:105460008083EA89FB89808180688083EA89FB895F
:1054700080818F7D8083DF91CF91FF90EF90DF90CF
:10548000CF90BF9008951F920F920FB60F921124E4
:105490002F938F939F93EF93FF93E0912206F091C8
:1054A00023068081E0912806F091290682FD12C032
:1054B000908180912B068F5F8F7320912C0682172D
:1054C00051F0E0912B06F0E0EE5EF94F958F80935E
:1054D0002B0601C08081FF91EF919F918F912F91B9
:1054E0000F900FBE0F901F9018951F920F920FB63E
:1054F0000F9211242F933F934F935F936F937F935A
:105500008F939F93AF93BF93EF93FF9382E196E0C6
:105510000E943929FF91EF91BF91AF919F918F9197
:105520007F916F915F914F913F912F910F900FBE9F
:105530000F901F90189582E196E00E94FE2821E0CE
:10554000892B09F420E0822F0895109215061092FD
:10555000140688EE93E0A0E0B0E0809316069093E6
:105560001706A0931806B093190683E692E090936D
:1055700013068093120685EC90E090931F068093AB
:105580001E0684EC90E0909321068093200680EC28
:1055900090E0909323068093220681EC90E0909314
:1055A00025068093240682EC90E090932706809352
:1055B000260686EC90E090932906809328061092A8
:1055C0002B0610922C0610922D0610922E0608958E
:1055D00008950E940B280E94E82A0E948E01CBE2C7
:1055E000D9E20E94AC022097E1F30E942B29F9CF67
:1055F000CF92DF92EF92FF920F931F93CF93DF939F
:105600007C016A01EB0100E010E00C151D0571F052
:105610006991D701ED91FC910190F081E02DC701D6
:105620000995892B19F00F5F1F4FEFCFC801DF914C
:10563000CF911F910F91FF90EF90DF90CF90089541
:105640006115710581F0DB010D900020E9F7AD01D6
:1056500041505109461B570BDC01ED91FC91028032
:10566000F381E02D099480E090E008950C94202BC4
:10567000DC01ED91FC910190F081E02D09946FE641
:1056800072E00C94202B0F931F93CF93DF93EC01C8
:105690000E94202B8C01CE010E943F2B800F911F76
:1056A000DF91CF911F910F9108958F929F92AF92AA
:1056B000BF92CF92DF92EF92FF920F931F93CF93FF
:1056C000DF93CDB7DEB7A1970FB6F894DEBF0FBE5C
:1056D000CDBF7C01C42EE52FCB01D22E19A221E033
:1056E0002D1510F02AE0D22E8E010F5D1F4F8D2C4C
:1056F000912CA12CB12C6C2D7E2FA50194010E9420
:1057000001318C2DD29E80191124015011098A304B
:1057100014F4805D01C0895CF80180832115310596
:105720004105510521F0C22EE32FCA01E4CFB80193
:10573000C7010E94202BA1960FB6F894DEBF0FBEC2
:10574000CDBFDF91CF911F910F91FF90EF90DF9030
:10575000CF90BF90AF909F908F900895CF92DF929F
:10576000EF92FF920F931F93CF93DF93EC016A01A7
:105770007B012115310579F4E881F9810190F081EF
:10578000E02D642FDF91CF911F910F91FF90EF904B
:10579000DF90CF9009942A303105E9F477FF1AC0E1
:1057A0006DE20E94382B8C0144275527BA014C1911
:1057B0005D096E097F092AE0CE010E94552B800FFA
:1057C000911FDF91CF911F910F91FF90EF90DF908C
:1057D000CF9008952AE0B701A601CE01DF91CF91C5
:1057E0001F910F91FF90EF90DF90CF900C94552B6D
:1057F0002115310541F4DC01ED91FC910190F0811E
:10580000E02D642F09940C94552B9A01462F50E0FB
:1058100060E070E00C94F82B9A01AB0160E070E05E
:105820000C94F82B4F925F926F927F928F929F927F
:10583000AF92BF92CF92DF92EF92FF920F931F939E
:10584000CF93DF93EC016A017B01B22E9A01AB0189
:10585000C701B6010E94A92F882319F062E772E000
:1058600027C026013701E89477F82FEF3FEF4FE785
:105870005FE7C301B2010E94A92F81110DC02FEF74
:105880003FEF4FE75FE7C301B2010E94652D181695
:105890001CF466E772E00CC02FEF3FEF4FE75FE4C8
:1058A000C701B6010E94B42E1816ACF46AE772E084
:1058B000CE01DF91CF911F910F91FF90EF90DF907C
:1058C000CF90BF90AF909F908F907F906F905F90A0
:1058D0004F900C94202B2FEF3FEF4FE75FECC70169
:1058E000B6010E94652D87FDE1CF20E030E0A901DF
:1058F000C701B6010E94652D87FF0AC06DE2CE0187
:105900000E94382B8C01F7FAF094F7F8F09402C05B
:1059100000E010E0A12C60E070E080E09FE3AB14B9
:1059200041F020E030E040E251E40E94692DA39470
:10593000F6CF9B01AC01C701B6010E94012D6B019E
:105940007C010E94D62D2B013C010E94022E9B015E
:10595000AC01C701B6010E94002D6B017C012AE059
:10596000B301A201CE010E94552B080F191FBB20C5
:1059700039F069E271E0CE010E94202B080F191F57
:105980007B2C772041F120E030E040E251E4C70178
:10599000B6010E94B82E6B017C010E94D12D4B01F3
:1059A000AA2497FCA094BA2C2AE030E0B501A40107
:1059B000CE010E94AE2B080F191FC501B4010E9431
:1059C000042E9B01AC01C701B6010E94002D6B01A2
:1059D0007C017A94D6CFC801DF91CF911F910F91AE
:1059E000FF90EF90DF90CF90BF90AF909F908F90FF
:1059F0007F906F905F904F9008950C94122C0895B3
:105A00005058BB27AA270ED075C166D130F06BD194
:105A100020F031F49F3F11F41EF45BC10EF4E095C9
:105A2000E7FB51C1E92F77D180F3BA1762077307FB
:105A30008407950718F071F49EF58FC10EF4E09578
:105A40000B2EBA2FA02D0B01B90190010C01CA0138
:105A5000A0011124FF27591B99F0593F50F4503EE3
:105A600068F11A16F040A22F232F342F4427585FD5
:105A7000F3CF469537952795A795F0405395C9F7ED
:105A80007EF41F16BA0B620B730B840BBAF09150A5
:105A9000A1F0FF0FBB1F661F771F881FC2F70EC044
:105AA000BA0F621F731F841F48F487957795679517
:105AB000B795F7959E3F08F0B3CF9395880F08F000
:105AC0009927EE0F979587950895D9D008F481E02E
:105AD00008950CD00FC107D140F0FED030F021F472
