:100000000C9453010C9484010C9484010C9484018D
:100010000C9484010C9484010C9484010C9484014C
:100020000C9484010C9484010C9484010C9484013C
:100030000C9484010C9484010C9484010C9484012C
:100040000C9484010C94D1040C9484010C948401CC
:100050000C9484010C9484010C9484010C94B507D5
:100060000C9484010C94230B0C94590B0C94840174
:100070000C9484010C9484010C9484010C948401EC
:100080000C94FF040C9484010C9484010C9484015E
:100090000C9484010C9484010C9484010C948401CC
:1000A0000C9484010C9484010C942D050C9484010F
:1000B0000C9484010C9484010C9484010C945B05D1
:1000C0000C9484010C9484010C9484010C9484019C
:1000D0000C9484010C9484010C9484010C9484018C
:1000E0000C948401DC08DF08CE08D208D808160971
:1000F000E308E708ED08F108F508FB08FF08030925
:10010000160909090D0911090C94BA090C940D0975
:100110000C9416090C94DF080C9405070C94F50850
:100120000C9495020C94E00B0C9411090C94E708C4
:100130000C94FF080C94E3080C943A0A0C94DC0825
:100140000C94D6020C94CE080C948D0B0C940309DD
:100150000C94FB080C94C8090C94AF090C94D208B9
:100160000C94D8080C940D030C945C0A0C94DC09D4
:100170000C94ED080C9409090C94830B0C94F10871
:1001800000000A0B02090C0D0E0807030401000011
:10019000000000000000000000000000000000005F
:1001A000000000000000000000000000121110001C
:1001B000000000000000000000000000000000003F
:1001C000000000000000010210202008081020405C
:1001D000102040800201020108040201010204080B
:1001E0001020408080402010080402018004020199
:1001F00080402010080402010804020101020408E2
:1002000010204080010204081020408005050505EB
:10021000070508080808020202020A0A080804047E
:1002200004040101010101010101030303030303AC
:100230000303040707070C0C0C0C0C0C0C0C02023B
:10024000020206060606060606060B0B0B0B0B0B38
:100250000B0B000020002300260029002C002F009B
:100260003200000100000301060109010000220024
:10027000250028002B002E00310034000201000070
:10028000050108010B0100002100240027002A00BD
:100290002D003000330001010000040107010A01B4
:1002A000D6028D0B0D0311241FBECFEFD1E2DEBFAE
:1002B000CDBF00E00CBF12E0A0E0B2E0E2EAF0E265
:1002C00000E00BBF02C007900D92AC3AB107D9F71E
:1002D00024E0ACEAB2E001C01D92A834B207E1F715
:1002E00012E0C4EAD2E000E006C022970109FE0154
:1002F0000BBF0E94120EC03AD10780E00807A9F791
:100300000E94D10B0C943F100C94000086EC92E0FC
:100310000E948C0C8CEC92E00E948C0C82ED92E09E
:100320000C948C0C60E0809130020E94170960E010
:1003300080912E020E94170961E080912C020E9498
:10034000170961E080912A020E94170961E08091FB
:1003500028020E94170961E0809126020E94170975
:1003600060E0809124020E94170960E080912202DF
:100370000E94170920E042E060E18CEE92E00E94CA
:100380003F0626E040E855E260E070E087EA93E04F
:100390000E94C10A65E972E088ED92E00E940F07B1
:1003A000109204030895809130020E94860921E092
:1003B000892B09F420E02093080380912E020E94EB
:1003C000860921E0892B09F420E02093070380911E
:1003D00024020E94860921E0892B09F420E0209361
:1003E0000603809122020E94860921E0892B09F4EC
:1003F00020E02093050380910803882311F081E019
:100400000895809107038111FACF8091060381112D
:10041000F6CF822F0895882311F061E001C060E0DB
:1004200080912C020C945009BC0187EA93E00C9453
:10043000320C0F931F93CF93DF938C01EB018CEE63
:1004400092E00E94FD0640E060E08CEE92E00E94A7
:100450002506B8018CEE92E00E941E0C41E060E09F
:100460008CEE92E00E942506BE018CEE92E0DF91B8
:10047000CF911F910F910C941E0C8FEA92E00E9475
:100480009707882321F081E08093AC0208951092B1
:10049000AC0261E0809128020E94500964E670E09D
:1004A00080E090E00E942E0860E0809128020E9487
:1004B000500964E670E080E090E00E942E0861E060
:1004C000809128020E94500964E670E080E090E08C
:1004D0000E942E0860E0809128020C94500910922E
:1004E000AE021092AD026091AD027091AE02603129
:1004F0007105B4F46B5F40E08CEE92E00E9425063B
:100500006CE972E08CEE92E00E942C0C8091AD02BE
:100510009091AE0201969093AE028093AD02E3CF2C
:100520001092AE021092AD020895CF93DF931F9206
:10053000CDB7DEB7682F88ED92E069830E940B0784
:100540006981019779F5633259F06A3271F48FEA63
:1005500092E00E9493070F90DF91CF910C946F026D
:100560000F90DF91CF910C943D028FEA92E00E94B0
:1005700081076091AD027091AE026F5F7F4F709303
:10058000AE026093AD026B5F40E08CEE92E00E94A1
:10059000250662E372E08CEE92E00F90DF91CF913E
:1005A0000C942C0C0F90DF91CF910895CF92EF9285
:1005B0000F9380E2C82E9EE1E92E0CE12AE148E18A
:1005C00066E18CEE92E00E94DD0624E0E22E04E07B
:1005D0002AE032E04EE052E062E172E088ED92E023
:1005E0000E9456076CE972E082ED92E00E94FA0CDC
:1005F0006CE972E08CEC92E00E94FA0C6CE972E01B
:1006000086EC92E00E94FA0C64E372E08FEA92E0DA
:100610000F91EF90CF900C947B070C9486010F9371
:100620001F93CF93DF9300D000D0CDB7DEB78C01FE
:100630006CE972E082ED92E00E94720D87EA93E02D
:100640000E94AF09892BB1F067EA73E0CE010196F1
:100650000E94720CBE016F5F7F4F82ED92E00E949C
:10066000660DCE0101960E948C0C62ED72E0C8010D
:100670000E945D0DC80126960FB6F894DEBF0FBE2E
:10068000CDBFDF91CF911F910F9108951F93CF930D
:10069000DF93CDB7DEB72C970FB6F894DEBF0FBE51
:1006A000CDBFCE0101960E940F036BE572E0CE0133
:1006B00001960E94CA0D811103C01091AC0201C0C5
:1006C00011E0CE0101960E948C0C1123D9F18CEE21
:1006D00092E00E941E068FEA92E00E94930769E36F
:1006E00072E0CE0101960E94FA0C6EE372E0CE0138
:1006F00007960E94FA0CBE016F5F7F4FCE010796EE
:100700000E941902CE0107960E948C0CCE01019620
:100710000E948C0C81E0809304036CE772E0CE01B0
:1007200001960E94FA0CCE0101960E941402CE019D
:1007300001960E948C0C61E0809126020E94500973
:1007400060E04FC0CE0101960E940F0368E572E0A1
:10075000CE0101960E94CA0D811103C01091AC0216
:1007600001C011E0CE0101960E948C0C1123E9F129
:100770008CEE92E00E941E068FEA92E00E949307A0
:1007800069E372E0CE0101960E94FA0C6FE572E017
:10079000CE0107960E94FA0CBE016F5F7F4FCE011B
:1007A00007960E941902CE0107960E948C0CCE017A
:1007B00001960E948C0C1092040369E772E0CE014E
:1007C00001960E94FA0CCE0101960E941402CE01FD
:1007D00001960E948C0C60E0809126020E945009D4
:1007E00061E080912A020E9450090E94D30188236F
:1007F00051F080910403882331F061E080912C0254
:100800000E94500903C080E00E940B022C960FB694
:10081000F894DEBF0FBECDBFDF91CF911F91089539
:10082000CF92DF92EF92FF920F931F93CF93DF93BC
:100830006C018B017A01EC01C65FDC4F888187FF78
:1008400004C0FB011182108223C02CE02C9DC0014A
:100850002D9D900D11242881AC01420F511D27FDC3
:100860005A952091090330E0421753078CF42881F0
:10087000AC01420F511D27FD5A959A01FA01EE0F66
:10088000FF1FE20FF31FE25FFC4F208126FD19C01E
:1008900088818F5F88838CE08C9D90018D9D300DC9
:1008A00011248881A901480F511D87FD5A95809117
:1008B000090390E048175907B4F488818C303CF163
:1008C00012C02881820F911D27FD9A95FC01EE0F21
:1008D000FF1FE80FF91FE25FFC4F808160E08F731C
:1008E0000E945009D5CFF80180819181049680340F
:1008F0009C4918F480E49CE904C0F801808191814E
:100900000496F701918380838FEF888341C0F801BB
:10091000808191814881B901640F711D47FD7A95ED
:10092000AB01FB01EE0FFF1FE40FF51FE25FFC4F71
:1009300041815281840F951FF701918380838881C3
:10094000A901480F511D87FD5A95FA01EE0FFF1FAF
:10095000E40FF51FE25FFC4F808186FF19C088819C
:10096000280F311D87FD3A95F901EE0FFF1FE20FA9
:10097000F31FE25FFC4F808161E08F73DF91CF91C5
:100980001F910F91FF90EF90DF90CF900C94500942
:10099000DF91CF911F910F91FF90EF90DF90CF905B
:1009A00008951F920F920FB60F9211240BB60F925B
:1009B0002F933F934F935F936F937F938F939F9367
:1009C000AF93BF93EF93FF9348E850E064E870E083
:1009D00081E090E00E941004FF91EF91BF91AF91F0
:1009E0009F918F917F916F915F914F913F912F9147
:1009F0000F900BBE0F900FBE0F901F9018951F9277
:100A00000F920FB60F9211240BB60F922F933F93B4
:100A10004F935F936F937F938F939F93AF93BF9306
:100A2000EF93FF9348E950E064E970E082E090E0E2
:100A30000E941004FF91EF91BF91AF919F918F9110
:100A40007F916F915F914F913F912F910F900BBECE
:100A50000F900FBE0F901F9018951F920F920FB618
:100A60000F9211240BB60F922F933F934F935F93E6
:100A70006F937F938F939F93AF93BF93EF93FF9366
:100A800048EA50E064EA70E083E090E00E941004DD
:100A9000FF91EF91BF91AF919F918F917F916F9156
:100AA0005F914F913F912F910F900BBE0F900FBE12
:100AB0000F901F9018951F920F920FB60F9211244E
:100AC0000BB60F922F933F934F935F936F937F9348
:100AD0008F939F93AF93BF93EF93FF9348E251E0BF
:100AE00064E271E080E090E00E941004FF91EF91D9
:100AF000BF91AF919F918F917F916F915F914F9136
:100B00003F912F910F900BBE0F900FBE0F901F9033
:100B10001895CF93DF93EC0160E08E810E9450091D
:100B200081E090E00E94560861E08E810E945009A9
:100B300081E090E00E94560860E08E810E9450099A
:100B400084E690E0DF91CF910C945608EF92FF92EB
:100B50000F931F93CF93DF938C01C0E0D0E0E62E7C
:100B6000F12CB7010C2E02C0759567950A94E2F737
:100B70006170F801EC0FFD1F87810E9450092196DA
:100B8000C430D10571F7C801DF91CF911F910F914A
:100B9000FF90EF900C948905EF92FF920F931F93B3
:100BA000CF93DF938C01C0E0D0E0E62EF12CB701AB
:100BB0000C2E02C0759567950A94E2F76170F801F2
:100BC000EC0FFD1F87810E9450092196C830D10586
:100BD00071F7C801DF91CF911F910F91FF90EF90B6
:100BE0000C9489051F93CF93DF93EC01162F642F8C
:100BF0008C810E9450098D818F3F19F060E00E9426
:100C000050098F85612F84FF06C0CE01DF91CF91FF
:100C10001F910C94CC0570E084E0759567958A95DA
:100C2000E1F7CE010E94A605612FCE01DF91CF91A1
:100C30001F910C94A60540E00C94F20561E00E941F
:100C40001B0680ED97E00C945608443008F043E012
:100C5000FC012389421710F04FEF420FFC01E40F13
:100C6000F11D2489260F2068622F0C941B06FC01BD
:100C70006089262F2460208B6C600C941B060F93D8
:100C80001F93CF93DF93EC01423018F08F8588607B
:100C90008F874B8B1C8A80E48D8B6E8B70E0605C41
:100CA0007F4F6F8B222329F0413019F48F858460A8
:100CB0008F8761E08C810E9417098D818F3F19F029
:100CC00061E00E94170961E08E810E94170900E02F
:100CD00010E08F8584FF03C088E090E002C084E0CC
:100CE00090E00817190754F4FE01E00FF11F61E0CE
:100CF00087810E9417090F5F1F4FEBCF80E593ECB0
:100D00000E94560860E08C810E94500960E08E814C
:100D10000E9450098D818F3F19F060E00E945009B8
:100D20006F8564FD1DC063E0CE010E94A60584E9C5
:100D300091E10E94560863E0CE010E94A60584E975
:100D400091E10E94560863E0CE010E94A60586E963
:100D500090E00E94560862E0CE010E94A60516C0EF
:100D60006062CE010E941B0684E991E10E94560850
:100D70006F856062CE010E941B0686E990E00E94AA
:100D800056086F856062CE010E941B066F85606207
:100D9000CE010E941B0684E0888BCE010E9437069C
:100DA000CE010E941E0682E0898B66E0CE01DF91B3
:100DB000CF911F910F910C941B06CF92EF920F933E
:100DC000FC011382128286E892E09183808364831F
:100DD0008FEF8583468327830087E186C28613864B
:100DE000148615861686178620E041E060E1CF0163
:100DF0000F91EF90CF900C943F06FC016189262F54
:100E00002160218B65600C941B0641E00E94F20575
:100E100081E090E00895FC01878190850895FC01B0
:100E2000778766870895FF920F931F93CF93DF9381
:100E3000EC01F12C0F2D10E08E8182958F7090E0E7
:100E40000817190794F4EC81FD81E00FF11F61E0B0
:100E500080810E941709EC81FD81E00FF11F60E0A5
:100E600080810E945009F394E5CFF12C0F2D10E002
:100E70008E818F7090E00817190794F4EA81FB8146
:100E8000E00FF11F60E080810E941709EA81FB8179
:100E9000E00FF11F61E080810E945009F394E6CFDA
:100EA000DF91CF911F910F91FF900895EF920F93D3
:100EB000FC015383428335832483E29480EFE8224C
:100EC0000F700E290683108A118A7183608381E076
:100ED000828B82E090E09387828784EF91E0958710
:100EE00084871786168610861782138ACF010F9182
:100EF000EF900C941307FC0171836083168A1282B1
:100F00000895FC012689233161F031E0320F368BE0
:100F1000E20FF11D6283FC01E30FF11D128281E0FB
:100F2000089580E00895FC01168A12820895DC017C
:100F3000ED91FC911197519112964C9120E030E087
:100F4000511104C081E0442379F00DC054130BC04B
:100F50005191DC01A20FB31F13964C912F5F3F4FAD
:100F60002331310569F780E008951F920F920FB683
:100F70000F9211242F933F938F939F93AF93BF931F
:100F800080919F039091A003A091A103B091A2032F
:100F900030919E0323E0230F2D3720F40196A11DED
:100FA000B11D05C026E8230F0296A11DB11D209397
:100FB0009E0380939F039093A003A093A103B093FB
:100FC000A2038091A3039091A403A091A503B091E3
:100FD000A6030196A11DB11D8093A3039093A403C2
:100FE000A093A503B093A603BF91AF919F918F915A
:100FF0003F912F910F900FBE0F901F9018952FB714
:10100000F89460919F037091A0038091A103909147
:10101000A2032FBF08953FB7F8948091A303909146
:10102000A403A091A503B091A60326B5A89B05C073
:101030002F3F19F00196A11DB11D3FBF6627782FE4
:10104000892F9A2F620F711D811D911D42E0660F3D
:10105000771F881F991F4A95D1F70895CF92DF9285
:10106000EF92FF92CF93DF936B017C010E940B08FC
:10107000EB01C114D104E104F10489F00E94E90DEF
:101080000E940B086C1B7D0B683E734090F381E05F
:10109000C81AD108E108F108C851DC4FEACFDF9146
:1010A000CF91FF90EF90DF90CF900895823091051F
:1010B00038F0880F991F880F991F05970197F1F74E
:1010C0000895789484B5826084BD84B5816084BDC0
:1010D00085B5826085BD85B5816085BDEEE6F0E0B1
:1010E000808181608083E1E8F0E01082808182600D
:1010F0008083808181608083E0E8F0E0808181608E
:101100008083E1EBF0E0808184608083E0EBF0E0BD
:10111000808181608083E1E9F0E08081826080836A
:10112000808181608083E0E9F0E08081816080835C
:10113000E1EAF0E080818260808380818160808349
:10114000E0EAF0E0808181608083E1E2F1E080818B
:1011500082608083808181608083E0E2F1E0808131
:1011600081608083EAE7F0E0808184608083808111
:1011700082608083808181608083808180688083B9
:101180001092C100089590E0FC013197E231F10521
:1011900008F04CC0EE58FF4F0C940C0E809180006C
:1011A0008F7703C0809180008F7D809380000895A9
:1011B00080918000877FF9CF84B58F7702C084B596
:1011C0008F7D84BD08958091B0008F7703C080919A
:1011D000B0008F7D8093B0000895809190008F774C
:1011E00007C0809190008F7D03C080919000877F21
:1011F0008093900008958091A0008F7707C0809120
:10120000A0008F7D03C08091A000877F8093A00005
:101210000895809120018F7707C0809120018F7DF4
:1012200003C080912001877F809320010895CF9390
:10123000DF9390E0FC01EA53FE4F2491FC01E45F50
:10124000FD4F8491882349F190E0880F991FFC019C
:10125000EA57FD4FA591B49184599D4FFC01C5916A
:10126000D4919FB7611108C0F8948C912095822386
:101270008C93888182230AC0623051F4F8948C9157
:10128000322F309583238C938881822B888304C0EE
:10129000F8948C91822B8C939FBFDF91CF9108950E
:1012A0000F931F93CF93DF931F92CDB7DEB7282FF5
:1012B00030E0F901E058FE4F8491F901EA53FE4F06
:1012C0001491F901E45FFD4F04910023C9F08823D4
:1012D00021F069830E94C3086981E02FF0E0EE0FDE
:1012E000FF1FE459FD4FA591B4919FB7F8948C91DD
:1012F000611103C01095812301C0812B8C939FBF86
:101300000F90DF91CF911F910F910895CF93DF93AD
:10131000282F30E0F901E058FE4F8491F901EA539B
:10132000FE4FD491F901E45FFD4FC491CC2391F0BD
:1013300081110E94C308EC2FF0E0EE0FFF1FEE5A60
:10134000FD4FA591B4912C912D2381E090E021F4E3
:1013500080E002C080E090E0DF91CF910895FC0131
:10136000818D228D90E0805C9F4F821B91098F734D
:1013700099270895FC01918D828D981731F0828D07
:10138000E80FF11D858D90E008958FEF9FEF089590
:10139000FC01918D828D981761F0828DDF01A80F7D
:1013A000B11D5D968C91928D9F5F9F73928F90E09F
:1013B00008958FEF9FEF089583E89BE0892B41F01C
:1013C00080E090E0892B21F00E94830B811125C0E1
:1013D00080E090E0892B41F080E090E0892B21F0C3
:1013E0000E94000081111CC080E090E0892B41F038
:1013F00080E090E0892B21F00E940000811113C051
:1014000080E090E0892BA1F080E090E0892B81F0D2
:101410000E94000081110AC008950E940000D8CFE8
:101420000E940000E1CF0E940000EACF0C9400006F
:101430000895FC01848DDF01A80FB11DA35ABF4F91
:101440002C91848D90E001968F739927848FA689C3
:10145000B7892C93A089B1898C9180648C93938DEA
:10146000848D981306C00288F389E02D80818F7DDA
:1014700080830895CF93DF93EC01888D8823C9F092
:10148000EA89FB89808185FD05C0A889B9898C918D
:1014900086FD0FC00FB607FCF5CF808185FFF2CF28
:1014A000A889B9898C9185FFEDCFCE010E94190AD8
:1014B000E7CFDF91CF910895CF92DF92FF920F9304
:1014C0001F93CF93DF931F92CDB7DEB76C0181E0FE
:1014D000D60158968C9358975B969C915B975C9637
:1014E0008C915C97981307C05096ED91FC915197A1
:1014F000808185FD2EC0F601038D10E00F5F1F4F28
:101500000F731127F02EF601848DF81211C00FB65B
:1015100007FCF9CFD6015096ED91FC91519780814F
:1015200085FFF1CFC60169830E94190A6981EBCF5B
:10153000838DE80FF11DE35AFF4F6083D6015B9660
:101540000C935B975296ED91FC915397808180624A
:101550000CC0D6015696ED91FC915797608350963A
:10156000ED91FC91519780818064808381E090E0CF
:101570000F90DF91CF911F910F91FF90DF90CF904F
:101580000895BF92CF92DF92EF92FF92CF93DF93B5
:10159000EC016A017B01B22EE889F98982E080833F
:1015A000411581EE580761057105A1F060E079E011
:1015B0008DE390E0A70196010E94EA0D21503109C8
:1015C000410951095695479537952795211580E191
:1015D000380798F0E889F989108260E874E88EE1AC
:1015E00090E0A70196010E94EA0D215031094109BE
:1015F00051095695479537952795EC85FD8530839C
:10160000EE85FF852083188EEC89FD89B082EA89FA
:10161000FB89808180618083EA89FB898081886081
:101620008083EA89FB89808180688083EA89FB89DD
:1016300080818F7D8083DF91CF91FF90EF90DF904D
:10164000CF90BF9008951F920F920FB60F92112462
:101650000BB60F922F938F939F93EF93FF93E0918D
:10166000B703F091B8038081E091BD03F091BE0310
:1016700082FD12C090818091C0038F5F8F73209193
:10168000C103821751F0E091C003F0E0E955FC4F2F
:10169000958F8093C00301C08081FF91EF919F914E
:1016A0008F912F910F900BBE0F900FBE0F901F9038
:1016B00018951F920F920FB60F9211240BB60F922E
:1016C0002F933F934F935F936F937F938F939F934A
:1016D000AF93BF93EF93FF9387EA93E00E94190AB9
:1016E000FF91EF91BF91AF919F918F917F916F91FA
:1016F0005F914F913F912F910F900BBE0F900FBEB6
:101700000F901F90189587EA93E00E94AF0921E09F
:10171000892B09F420E0822F08951092AA031092D9
:10172000A90388EE93E0A0E0B0E08093AB03909330
:10173000AC03A093AD03B093AE038EE892E0909318
:10174000A8038093A70385EC90E09093B403809363
:10175000B30384EC90E09093B6038093B50380ECE0
:1017600090E09093B8038093B70381EC90E090935E
:10177000BA038093B90382EC90E09093BC0380930A
:10178000BB0386EC90E09093BE038093BD03109260
:10179000C0031092C1031092C2031092C3030895B4
:1017A00008950E9461080E94D00B0E949201CCED26
:1017B000D9E00E9446032097E1F30E94DC09F9CFAB
:1017C000CF92DF92EF92FF920F931F93CF93DF930D
:1017D0007C016A01EB0100E010E00C151D0571F0C1
:1017E0006991D701ED91FC910190F081E02DC70145
:1017F0001995892B19F00F5F1F4FEFCFC801DF91AB
:10180000CF911F910F91FF90EF90DF90CF900895AF
:101810006115710581F0DB010D900020E9F7AD0144
:1018200041505109461B570BDC01ED91FC910280A0
:10183000F381E02D199480E090E00895DC01ED91B2
:10184000FC91DB0114964D915C9115976D917C9103
:101850000280F381E02D19940C94080C6AE972E07F
:101860000C94080C0F931F93CF93DF93EC010E940D
:101870001E0C8C01CE010E942E0C800F911FDF9157
:10188000CF911F910F9108950F931F93CF93DF93E3
:10189000EC010E94FF07688779878A879B87E88128
:1018A000F9810680F781E02DCE01199597FF15C0CB
:1018B0000E94FF07088519852A853B85601B710BEF
:1018C000820B930B0C811D812E813F816017710764
:1018D0008207930720F38FEF9FEFDF91CF911F9146
:1018E0000F9108950F931F93CF93DF93EC018B011A
:1018F0006CE972E00E94FA0CC8010E94440C97FD4A
:1019000005C0682FCE010E94B60DF6CFCE01DF9143
:10191000CF911F910F910895FC01808191810C94CA
:10192000AE0ECF93DF93EC0188819981009711F07F
:101930000E94AE0E198218821D821C821B821A829E
:10194000DF91CF9108950F931F93CF93DF93EC0115
:101950008B016F5F7F4F888199810E943D0F0097B7
:1019600031F0998388831B830A8381E001C080E082
:10197000DF91CF911F910F910895CF93DF93EC01E9
:1019800088819981892B29F08A819B818617970705
:1019900060F4CE010E94A30C882341F08C819D81CC
:1019A000892B19F4E881F981108281E0DF91CF91D0
:1019B0000895EF92FF920F931F93CF93DF93EC0163
:1019C0007B018A01BA010E94BD0C811104C0CE01C5
:1019D0000E94910C07C01D830C83B70188819981F7
:1019E0000E943810CE01DF91CF911F910F91FF908F
:1019F000EF900895FC0111821082138212821582E9
:101A000014826115710559F0FB0101900020E9F77E
:101A1000AF0141505109461B570B0C94D90C089546
:101A20000F931F93CF93DF938C01EB01FC01808117
:101A30009181009799F0428153812C813D81421719
:101A4000530750F0688179810E9438108C819D8104
:101A5000F8019583848313C00E94AE0E888199811A
:101A6000F801918380838A819B81938382838C8117
:101A70009D8195838483198218821B821A821D821C
:101A80001C82DF91CF911F910F910895CF93DF9327
:101A9000EC01FB018617970761F060817181611588
:101AA000710529F0448155810E94D90C02C00E9421
:101AB000910CCE01DF91CF910895FC01118210822B
:101AC00013821282158214820C94460DCF93DF93F9
:101AD000EC018617970711F00E94100DCE01DF91DF
:101AE000CF910895CF93DF93EC016115710561F0FB
:101AF000FB0101900020E9F7AF0141505109461B5D
:101B0000570B0E94D90C02C00E94910CCE01DF91AC
:101B1000CF910895EF92FF920F931F93CF93DF938E
:101B2000EC017B010C811D816115710511F480E0D0
:101B300016C04115510591F0040F151FB8010E9400
:101B4000BD0C8823A1F3288139818C819D81B70147
:101B5000820F931F0E9438101D830C8381E0DF9158
:101B6000CF911F910F91FF90EF900895CF93DF9346
:101B70001F921F92CDB7DEB769831A8241E050E011
:101B8000BE016F5F7F4F0E948A0D0F900F90DF9113
:101B9000CF910895FC0124813581232B31F421E07C
:101BA00061157105A1F0FB0108C0FC0180819181E4
:101BB0006115710531F421E0FC018081882339F041
:101BC00005C00E942F1021E0892B09F020E0822F10
:101BD00008950895A1E21A2EAA1BBB1BFD010DC09A
:101BE000AA1FBB1FEE1FFF1FA217B307E407F507CD
:101BF00020F0A21BB30BE40BF50B661F771F881FA9
:101C0000991F1A9469F760957095809590959B013E
:101C1000AC01BD01CF010895EE0FFF1F0590F491B7
:101C2000E02D19940790F691E02D1994CF93DF934E
:101C30008230910510F482E090E0E0914604F0914A
:101C4000470420E030E0A0E0B0E0309739F1408177
:101C5000518148175907B8F04817590771F4828124
:101C60009381109729F013969C938E9312972CC012
:101C7000909347048093460427C02115310531F025
:101C80004217530718F0A901DB0101C0EF019A01C7
:101C9000BD01DF010280F381E02DD7CF2115310591
:101CA000F9F0281B390B2430310580F48A819B819F
:101CB0006115710521F0FB019383828304C0909329
:101CC000470480934604FE01329644C0FE01E20FB1
:101CD000F31F8193919322503109398328833AC0AD
:101CE0002091440430914504232B41F420910202B9
:101CF0003091030230934504209344042091000264
:101D0000309101022115310541F42DB73EB74091C4
:101D1000040250910502241B350BE0914404F0911C
:101D20004504E217F307A0F42E1B3F0B28173907D1
:101D300078F0AC014E5F5F4F2417350748F04E0F27
:101D40005F1F50934504409344048193919302C0D4
:101D5000E0E0F0E0CF01DF91CF910895CF93DF93E2
:101D6000009709F487C0FC01329713821282C09158
:101D70004604D0914704209781F420813181280FB7
:101D8000391F80914404909145048217930779F597
:101D9000F0934504E09344046DC0DE0120E030E0A0
:101DA000AE17BF0750F412964D915C9113979D01A9
:101DB0004115510509F1DA01F3CFB383A2834081C4
:101DC0005181840F951F8A179B0771F48D919C9107
:101DD0001197840F951F02969183808312968D919F
:101DE0009C911397938382832115310529F4F093F5
:101DF0004704E09346043EC0D9011396FC93EE934A
:101E000012974D915D91A40FB51FEA17FB0779F466
:101E100080819181840F951F0296D90111969C9320
:101E20008E938281938113969C938E931297E0E018
:101E3000F0E08A819B81009719F0FE01EC01F9CF57
:101E4000CE01029628813981820F931F209144048C
:101E5000309145042817390769F4309729F4109216
:101E600047041092460402C013821282D0934504A4
:101E7000C0934404DF91CF9108956F927F928F9227
:101E80009F92AF92BF92CF92DF92EF92FF920F9309
:101E90001F93CF93DF93EC01CB01209781F4DF9167
:101EA000CF911F910F91FF90EF90DF90CF90BF9057
:101EB000AF909F908F907F906F900C94160EFE01C4
:101EC000E60FF71F9E0122503109E217F30708F4CD
:101ED000ACC0D9010D911C91119706171707B8F0E6
:101EE0000530110508F49FC0A80144505109461758
:101EF000570708F498C002501109061B170B0193ED
:101F000011936D937C93CF010E94AE0E8CC05B0148
:101F1000A01AB10A4E01800E911EA0914604B09104
:101F20004704612C712C60E070E0109709F449C0FF
:101F3000A815B905C9F5ED90FC901197670142E02D
:101F4000C40ED11CCA14DB0478F147018A189B081F
:101F5000640142E0C40ED11C1296BC9012971396F5
:101F6000AC91B5E0CB16D10440F0B282A38391824C
:101F70008082D9018D939C9309C00E5F1F4F0E0D77
:101F80001F1DF90111830083EB2DFA2F61157105D7
:101F900031F0DB011396FC93EE93129744C0F0935B
:101FA0004704E09346043FC06D917C9111976616FB
:101FB000770608F43B01BD0112960D90BC91A02D4F
:101FC000B4CF609144047091450468157905E9F433
:101FD00068167906D0F44091000250910102411533
:101FE000510541F44DB75EB760910402709105024E
:101FF000461B570BE417F507C0F4F0934504E09334
:102000004404F901918380830EC00E94160E7C0166
:10201000009759F0A801BE010E942610CE010E942F
:10202000AE0EC70104C0CE0102C080E090E0DF9197
:10203000CF911F910F91FF90EF90DF90CF90BF90C5
:10204000AF909F908F907F906F900895FB01DC017F
:1020500002C001900D9241505040D8F70895FB0105
:10206000DC018D91019080190110D9F3990B08952D
:10207000FB01DC0101900D920020E1F7089512E0D0
:10208000C4EAD2E000E006C022970109FE010BBFBE
:102090000E94120EC63AD10780E00807A9F7F8940B
:0220A000FFCF70
:1020A20000004804800001000000212223241719A7
:1020B2001B1D3132334134353642373839432A30E9
:1020C20023440D000C000A0009000800020006006B
:1020D20005002A00313837350050696E3A00415206
:1020E2004D454420456E7465722050696E20746FB0
:1020F20020556E2D41726D0064697361726D0044EA
:10210200495341524D454420456E746572205069D1
:102112006E20746F2041726D0064697361726D6527
:102122006400000000000507E00B000000005C0AEC
:10213200E00BAF09C809BA093A0A0D0A006E616ECE
:0C21420000696E66006F7666002E0000DB
:00000001FF
