:100000000C9453010C9484010C9484010C9484018D
:100010000C9484010C9484010C9484010C9484014C
:100020000C9484010C9484010C9484010C9484013C
:100030000C9484010C9484010C9484010C9484012C
:100040000C9484010C94D3050C9484010C948401C9
:100050000C9484010C9484010C9484010C940E0A79
:100060000C9484010C947C0D0C94B20D0C948401BE
:100070000C9484010C9484010C9484010C948401EC
:100080000C9401060C9484010C9484010C9484015A
:100090000C9484010C9484010C9484010C948401CC
:1000A0000C9484010C9484010C942F060C9484010C
:1000B0000C9484010C9484010C9484010C945D06CE
:1000C0000C9484010C9484010C9484010C9484019C
:1000D0000C9484010C9484010C9484010C9484018C
:1000E0000C948401350B380B270B2B0B310B6F0B4A
:1000F0003C0B400B460B4A0B4E0B540B580B5C0B46
:100100006F0B620B660B6A0B0C94460B0C94FF078B
:100110000C943C0B0C94580B0C94350C0C94620B07
:100120000C944E0B0C9494030C945D030C946F0B85
:100130000C94660B0C94350B0C94DC0D0C94B50CE4
:100140000C941E030C942B0B0C946A0B0C94540B04
:100150000C94930C0C94210C0C944A0B0C94380BBB
:100160000C94080C0C94130C0C94270B0C94E60DB7
:100170000C94310B0C945C0B0C94400B0C94390ECA
:1001800000000A0B02090C0D0E0807030401000011
:10019000000000000000000000000000000000005F
:1001A000000000000000000000000000121110001C
:1001B000000000000000000000000000000000003F
:1001C000000000000000010210202008081020405C
:1001D000102040800201020108040201010204080B
:1001E0001020408080402010080402018004020199
:1001F00080402010080402010804020101020408E2
:1002000010204080010204081020408005050505EB
:10021000070508080808020202020A0A080804047E
:1002200004040101010101010101030303030303AC
:100230000303040707070C0C0C0C0C0C0C0C02023B
:10024000020206060606060606060B0B0B0B0B0B38
:100250000B0B000020002300260029002C002F009B
:100260003200000100000301060109010000220024
:10027000250028002B002E00310034000201000070
:10028000050108010B0100002100240027002A00BD
:100290002D003000330001010000040107010A01B4
:1002A0005D03E60D940311241FBECFEFD1E2DEBF44
:1002B000CDBF00E00CBF12E0A0E0B2E0ECEFF6E250
:1002C00000E00BBF02C007900D92A63BB107D9F723
:1002D00024E0A6EBB2E001C01D92A136B207E1F71F
:1002E00012E0C4EAD2E000E006C022970109FE0154
:1002F0000BBF0E943F11C03AD10780E00807A9F761
:100300000E942A0E0C946C130C94000084ED92E071
:100310000E94B90F8AED92E00E94B90F80EE92E040
:100320000C94B90F0F931F93CF93DF930AE212E05F
:1003300061E0F80180810E94A90BC4E2D2E061E093
:1003400088810E94A90B64E670E080E090E00E9442
:10035000870A60E0F80180810E94A90B60E0888133
:100360000E94A90B64E670E080E090E00E94870A9A
:1003700061E080913002DF91CF911F910F910C9439
:10038000A90BAF92BF92CF92DF92EF92FF920F93A1
:100390001F93CF93DF9360E0809134020E94700B33
:1003A00060E0809132020E94700B80E3A82E82E010
:1003B000B82E61E0F50180810E94700B9EE2C92E8B
:1003C00092E0D92E61E0F60180810E94700B2CE250
:1003D000E22E22E0F22E61E0F70180810E94700B94
:1003E0000AE212E061E0F80180810E94700B60E097
:1003F000809128020E94700B60E0809126020E948A
:10040000700BC4E2D2E061E088810E94700B20E0B2
:1004100042E060E18AEF92E00E94410726E040E876
:1004200055E260E070E080EC93E00E941A0D6EE10E
:1004300073E086EE92E00E9409081092120360E0D9
:10044000F50180810E94A90B60E0F60180810E9485
:10045000A90B60E0F70180810E94A90B60E0F80120
:1004600080810E94A90B60E08881DF91CF911F916C
:100470000F91FF90EF90DF90CF90BF90AF900C94D2
:10048000A90B809134020E94DF0B21E0892B09F433
:1004900020E020931503809132020E94DF0B21E0BF
:1004A000892B09F420E020931403809128020E94F4
:1004B000DF0B21E0892B09F420E0209313038091C6
:1004C0001503811102C081E00895809114038823EF
:1004D000D1F3822F089581110C94920160E08091F4
:1004E00030020C94A90BBC0180EC93E00C94920EAA
:1004F0000F931F93CF93DF93CDB7DEB72C970FB633
:10050000F894DEBF0FBECDBF8B01BC01CE010796B4
:100510000E948A10B801CE0101960E948A108AEFCB
:1005200092E00E94200740E060E08AEF92E00E94A3
:100530002707BE01695F7F4F8AEF92E00E94770E26
:1005400041E060E08AEF92E00E942707BE016F5F02
:100550007F4F8AEF92E00E94770ECE0101960E94B3
:10056000B90FCE0107960E94B90F2C960FB6F894DA
:10057000DEBF0FBECDBFDF91CF911F910F910895C8
:100580008DEB92E00E94F009882331F081E08093A6
:10059000B8021092B70208951092B80261E08091FB
:1005A0002C020E94A90B64E670E080E090E00E94BB
:1005B000870A60E080912C020E94A90B64E670E03B
:1005C00080E090E00E94870A61E080912C020E9406
:1005D000A90B64E670E080E090E00E94870A60E08A
:1005E00080912C020C94A90B1092BA021092B902BD
:1005F0006091B9027091BA0260317105B4F46B5F19
:1006000041E08AEF92E00E94270766E372E08AEFFA
:1006100092E00E94850E8091B9029091BA020196F3
:100620009093BA028093B902E3CF1092BC02109269
:10063000BB021092BA021092B9020895CF93DF93D1
:100640001F92CDB7DEB7682F86EE92E069830E94D5
:1006500005086981019769F5633219F0643419F06E
:100660000BC00E94C0028DEB92E00E94EC090F903B
:10067000DF91CF910C94F4028DEB92E00E94DA09A5
:100680006091BB027091BC026F5F7F4F7093BC02A0
:100690006093BB026B5F41E08AEF92E00E94270704
:1006A00068E372E08AEF92E00F90DF91CF910C94B3
:1006B000850E0F90DF91CF910895CF92EF920F9317
:1006C00030E2C32E4EE1E42E0CE12AE148E166E17E
:1006D0008AEF92E00E94DF0754E0E52E04E02CE070
:1006E00032E040E152E064E172E086EE92E00E9486
:1006F000630867EA72E080EE92E00E94271067EAE2
:1007000072E08AED92E00E94271067EA72E084EDC1
:1007100092E00E9427106AE372E08DEB92E00F9165
:10072000EF90CF900C94D4090C948601CF93DF9373
:1007300000D000D0CDB7DEB767EA72E080EE92E07D
:100740000E949F1080EC93E00E94080C892B89F096
:1007500060EC73E0CE0101960E949F0FBE016F5FB7
:100760007F4F80EE92E00E949310CE0101960E948E
:10077000B90F26960FB6F894DEBF0FBECDBFDF913E
:10078000CF910895CF93DF93CDB7DEB72C970FB6F7
:10079000F894DEBF0FBECDBF0E94960386EE92E0B6
:1007A0000E94C409882329F0682F80EC93E00E94FE
:1007B000A40E909112038091B802992329F0882306
:1007C00069F081E090E004C0882341F082E090E08D
:1007D00090930B0280930A021092B80267E772E0CE
:1007E00080EE92E00E94F710811107C080910A020A
:1007F00090910B02029709F042C010920B021092E6
:100800000A0267EA72E080EE92E00E949F106FE6B3
:1008100072E0CE0101960E9427106EE772E0CE01D1
:1008200007960E942710BE016F5F7F4FCE0107968B
:100830000E947802CE0107960E94B90FCE01019660
:100840000E94B90F81E08093120367E872E0CE0145
:1008500001960E942710CE0101960E947302CE01DC
:1008600001960E94B90F61E080912A020E94A90BB3
:1008700060E080912E020E94A90B61E055C064E700
:1008800072E080EE92E00E94F710811108C0809122
:100890000A0290910B028130910509F078C0109204
:1008A0000B0210920A0267EA72E080EE92E00E9468
:1008B0009F101092B60280E00E946B026FE672E019
:1008C000CE0101960E9427106BE772E0CE010796D9
:1008D0000E942710BE016F5F7F4FCE0107960E94D6
:1008E0007802CE0107960E94B90FCE0101960E94B0
:1008F000B90F1092120364E872E0CE0101960E94D3
:100900002710CE0101960E947302CE0101960E942B
:10091000B90F60E080912A020E94A90B61E08091EA
:100920002E020E94A90B60E0809124020E94A90B74
:100930000E944102882321F08091120381116EC030
:100940008091B702882379F00E9492018091B602CB
:10095000811109C083E090E090930B0280930A021A
:1009600081E08093B602809128020E94DF0B4AE06A
:1009700050E0BC0180EC93E00E94590F2C960FB61A
:10098000F894DEBF0FBECDBFDF91CF9108950397DE
:1009900079F610920B0210920A02809134020E94A2
:1009A000DF0B892B49F46FE372E0CE0101960E94C0
:1009B000271064E472E01EC0809132020E94DF0BB7
:1009C000892B49F46FE372E0CE0101960E94271053
:1009D00064E572E00FC0809128020E94DF0B01974E
:1009E00009F0A6CF6FE372E0CE0101960E942710B6
:1009F00063E672E0CE0107960E942710BE016F5F8A
:100A00007F4FCE0107960E947802CE0107960E9482
:100A1000B90FCE0101960E94B90F8ACF81E0809371
:100A2000B7028ECFCF92DF92EF92FF920F931F9378
:100A3000CF93DF936C018B017A01EC01C95EDC4F2F
:100A4000888187FF04C0FB011182108223C02CE043
:100A50002C9DC0012D9D900D11242881AC01420FC9
:100A6000511D27FD5A952091160330E04217530778
:100A70008CF42881AC01420F511D27FD5A959A0133
:100A8000FA01EE0FFF1FE20FF31FE55EFC4F20811E
:100A900026FD19C088818F5F88838CE08C9D900132
:100AA0008D9D300D11248881A901480F511D87FDAE
:100AB0005A958091160390E048175907B4F488813D
:100AC0008C303CF112C02881820F911D27FD9A9530
:100AD000FC01EE0FFF1FE80FF91FE55EFC4F808160
:100AE00060E08F730E94A90BD5CFF80180819181BE
:100AF000049680349C4918F480E49CE904C0F80111
:100B0000808191810496F701918380838FEF8883A0
:100B100041C0F801808191814881B901640F711D44
:100B200047FD7A95AB01FB01EE0FFF1FE40FF51FA8
:100B3000E55EFC4F41815281840F951FF70191833F
:100B400080838881A901480F511D87FD5A95FA01BC
:100B5000EE0FFF1FE40FF51FE55EFC4F808186FF5F
:100B600019C08881280F311D87FD3A95F901EE0FD4
:100B7000FF1FE20FF31FE55EFC4F808161E08F7382
:100B8000DF91CF911F910F91FF90EF90DF90CF9069
:100B90000C94A90BDF91CF911F910F91FF90EF90D3
:100BA000DF90CF9008951F920F920FB60F921124ED
:100BB0000BB60F922F933F934F935F936F937F9357
:100BC0008F939F93AF93BF93EF93FF9348E850E0C9
:100BD00064E870E081E090E00E941205FF91EF91DF
:100BE000BF91AF919F918F917F916F915F914F9145
:100BF0003F912F910F900BBE0F900FBE0F901F9043
:100C000018951F920F920FB60F9211240BB60F92E8
:100C10002F933F934F935F936F937F938F939F9304
:100C2000AF93BF93EF93FF9348E950E064E970E01E
:100C300082E090E00E941205FF91EF91BF91AF9189
:100C40009F918F917F916F915F914F913F912F91E4
:100C50000F900BBE0F900FBE0F901F9018951F9214
:100C60000F920FB60F9211240BB60F922F933F9352
:100C70004F935F936F937F938F939F93AF93BF93A4
:100C8000EF93FF9348EA50E064EA70E083E090E07D
:100C90000E941205FF91EF91BF91AF919F918F91AB
:100CA0007F916F915F914F913F912F910F900BBE6C
:100CB0000F900FBE0F901F9018951F920F920FB6B6
:100CC0000F9211240BB60F922F933F934F935F9384
:100CD0006F937F938F939F93AF93BF93EF93FF9304
:100CE00048E251E064E271E080E090E00E94120589
:100CF000FF91EF91BF91AF919F918F917F916F91F4
:100D00005F914F913F912F910F900BBE0F900FBEAF
:100D10000F901F901895CF93DF93EC0160E08E81C8
:100D20000E94A90B81E090E00E94AF0A61E08E81F1
:100D30000E94A90B81E090E00E94AF0A60E08E81E2
:100D40000E94A90B84E690E0DF91CF910C94AF0A4A
:100D5000EF92FF920F931F93CF93DF938C01C0E02C
:100D6000D0E0E62EF12CB7010C2E02C075956795E8
:100D70000A94E2F76170F801EC0FFD1F87810E9471
:100D8000A90B2196C430D10571F7C801DF91CF912D
:100D90001F910F91FF90EF900C948B06EF92FF92B2
:100DA0000F931F93CF93DF938C01C0E0D0E0E62E2A
:100DB000F12CB7010C2E02C0759567950A94E2F7E5
:100DC0006170F801EC0FFD1F87810E94A90B21962D
:100DD000C830D10571F7C801DF91CF911F910F91F4
:100DE000FF90EF900C948B061F93CF93DF93EC0151
:100DF000162F642F8C810E94A90B8D818F3F19F0D3
:100E000060E00E94A90B8F85612F84FF06C0CE0190
:100E1000DF91CF911F910C94CE0670E084E0759520
:100E200067958A95E1F7CE010E94A806612FCE0151
:100E3000DF91CF911F910C94A80640E00C94F4062A
:100E400061E00E941D0780ED97E00C94AF0A4430EA
:100E500008F043E0FC012389421710F04FEF420FE6
:100E6000FC01E40FF11D2489260F2068622F0C94E9
:100E70001D07FC016089262F2460208B6C600C9478
:100E80001D070F931F93CF93DF93EC01423018F0AF
:100E90008F8588608F874B8B1C8A80E48D8B6E8B4F
:100EA00070E0605C7F4F6F8B222329F0413019F492
:100EB0008F8584608F8761E08C810E94700B8D81AB
:100EC0008F3F19F061E00E94700B61E08E810E94FB
:100ED000700B00E010E08F8584FF03C088E090E095
:100EE00002C084E090E00817190754F4FE01E00FF7
:100EF000F11F61E087810E94700B0F5F1F4FEBCFE6
:100F000080E593EC0E94AF0A60E08C810E94A90BFF
:100F100060E08E810E94A90B8D818F3F19F060E007
:100F20000E94A90B6F8564FD1DC063E0CE010E9485
:100F3000A80684E991E10E94AF0A63E0CE010E9415
:100F4000A80684E991E10E94AF0A63E0CE010E9405
:100F5000A80686E990E00E94AF0A62E0CE010E94F6
:100F6000A80616C06062CE010E941D0784E991E1C7
:100F70000E94AF0A6F856062CE010E941D0786E95C
:100F800090E00E94AF0A6F856062CE010E941D074B
:100F90006F856062CE010E941D0784E0888BCE01C0
:100FA0000E943907CE010E94200782E0898B66E00B
:100FB000CE01DF91CF911F910F910C941D07CF921D
:100FC000EF920F93FC011382128281E992E09183E8
:100FD000808364838FEF8583468327830087E18640
:100FE000C2861386148615861686178620E041E091
:100FF00060E1CF010F91EF90CF900C94410741E059
:101000000E94F40681E090E00895FC0187819085BC
:101010000895FC01778766870895DC0118967C9314
:101020006E93179781E053968C9353971E96ED918C
:10103000FC911F97309719F019968C911994089587
:10104000FF920F931F93CF93DF93EC01F12C0F2DA1
:1010500010E08E8182958F7090E00817190794F444
:10106000EC81FD81E00FF11F61E080810E94700B37
:10107000EC81FD81E00FF11F60E080810E94A90BEF
:10108000F394E5CFF12C0F2D10E08E818F7090E05E
:101090000817190794F4EA81FB81E00FF11F60E063
:1010A00080810E94700BEA81FB81E00FF11F61E0FB
:1010B00080810E94A90BF394E6CFDF91CF911F911D
:1010C0000F91FF900895EF920F93FC015383428399
:1010D00035832483E29480EFE8220F700E29068383
:1010E000108A118A7183608381E0828B82E090E0B4
:1010F0009387828784EF91E0958784871786168689
:1011000010861782138ACF010F91EF900C9420085C
:10111000FF920F931F93CF93DF93EC010E9420085F
:1011200000E010E0FF24F3948E81982F9F70829549
:101130008F70989FC0011124081719070CF068C020
:101140008091B603EC81FD81E80FF11D60E08081A4
:101150000E94A90B8091B503EA81FB81E80FF11D84
:1011600080810E94DF0B2091B3033091B403280FDC
:10117000311D3093B4032093B3037091B5038111F3
:1011800004C08091B603888B798BEE816E2F6F70CF
:10119000472F50E0862F90E0019748175907A1F498
:1011A000E295EF704091B60350E08E2F90E00197EA
:1011B0004817590749F46E9FC001112428173907B1
:1011C00011F4FA8A01C01A8A7F5F7093B50376130F
:1011D0001CC01092B5038091B603EC81FD81E80F2D
:1011E000F11D61E080810E94A90B8091B6038F5FA1
:1011F0008093B6039E8192959F70891306C01092CA
:10120000B6031092B4031092B3030F5F1F4F8CCF3D
:101210008A89DF91CF911F910F91FF9008950F93CD
:101220001F93CF93DF93EC011B8A0E94580A009111
:10123000AF031091B0032091B1033091B203601B52
:10124000710B820B930B6B3071058105910508F4CE
:1012500091C00E94580A6093AF037093B0038093CB
:10126000B1039093B203CE010E9488088F819885C4
:101270008130910561F11CF4892B71F07BC08230C3
:10128000910509F43EC0039709F074C060E070E076
:10129000CE010E940D086EC08A8981116BC00E9428
:1012A000580A0091AB031091AC032091AD0330912B
:1012B000AE03601B710B820B930B0A851B8520E02C
:1012C00030E00617170728073907B0F153C00E940E
:1012D000580A0091AB031091AC032091AD033091FB
:1012E000AE03601B710B820B930B0C851D8520E0F8
:1012F00030E0061717072807390718F462E070E096
:101300002CC08A898823B1F10E94580A0091AB034E
:101310001091AC032091AD033091AE03601B710BB3
:10132000820B930B0A851B8520E030E00617170718
:101330002807390730F11EC099898E8182958F70F8
:101340002889E881F981E20FF11D989FE00DF11DD8
:1013500011248081898761E070E0CE010E940D0830
:101360000E94580A6093AB037093AC038093AD0363
:101370009093AE038F819885DF91CF911F910F914C
:10138000089563E070E0E9CFCF93DF93EC010E9412
:101390000F09019729F48B89882319F0898501C0E9
:1013A00080E0DF91CF910895FC0171836083168AFC
:1013B00012820895FC012689233161F031E0320F59
:1013C000368BE20FF11D6283FC01E30FF11D1282E7
:1013D00081E0089580E00895FC01168A1282089544
:1013E000DC01ED91FC911197519112964C9120E006
:1013F00030E0511104C081E0442379F00DC0541352
:101400000BC05191DC01A20FB31F13964C912F5FBB
:101410003F4F2331310569F780E008951F920F9205
:101420000FB60F9211242F933F938F939F93AF93F7
:10143000BF938091B8039091B903A091BA03B09182
:10144000BB033091B70323E0230F2D3720F401961F
:10145000A11DB11D05C026E8230F0296A11DB11DD7
:101460002093B7038093B8039093B903A093BA0372
:10147000B093BB038091BC039091BD03A091BE03C8
:10148000B091BF030196A11DB11D8093BC03909341
:10149000BD03A093BE03B093BF03BF91AF919F91D3
:1014A0008F913F912F910F900FBE0F901F90189525
:1014B0002FB7F8946091B8037091B9038091BA0383
:1014C0009091BB032FBF08953FB7F8948091BC0360
:1014D0009091BD03A091BE03B091BF0326B5A89B18
:1014E00005C02F3F19F00196A11DB11D3FBF662712
:1014F000782F892F9A2F620F711D811D911D42E057
:10150000660F771F881F991F4A95D1F70895CF92CC
:10151000DF92EF92FF92CF93DF936B017C010E94E9
:10152000640AEB01C114D104E104F10489F00E94C2
:1015300016110E94640A6C1B7D0B683E734090F389
:1015400081E0C81AD108E108F108C851DC4FEACFA0
:10155000DF91CF91FF90EF90DF90CF900895823090
:10156000910538F0880F991F880F991F05970197EB
:10157000F1F70895789484B5826084BD84B5816064
:1015800084BD85B5826085BD85B5816085BDEEE68B
:10159000F0E0808181608083E1E8F0E0108280816A
:1015A00082608083808181608083E0E8F0E08081D8
:1015B00081608083E1EBF0E0808184608083E0EBF8
:1015C000F0E0808181608083E1E9F0E080818260E9
:1015D0008083808181608083E0E9F0E080818160A8
:1015E0008083E1EAF0E08081826080838081816095
:1015F0008083E0EAF0E0808181608083E1E2F1E0D5
:10160000808182608083808181608083E0E2F1E07C
:10161000808181608083EAE7F0E08081846080835C
:101620008081826080838081816080838081806806
:1016300080831092C100089590E0FC013197E2315F
:10164000F10508F04CC0EE58FF4F0C943911809111
:1016500080008F7703C0809180008F7D8093800011
:10166000089580918000877FF9CF84B58F7702C07D
:1016700084B58F7D84BD08958091B0008F7703C0BD
:101680008091B0008F7D8093B0000895809190008C
:101690008F7707C0809190008F7D03C0809190006C
:1016A000877F8093900008958091A0008F7707C076
:1016B0008091A0008F7D03C08091A000877F8093E0
:1016C000A0000895809120018F7707C080912001AC
:1016D0008F7D03C080912001877F80932001089532
:1016E000CF93DF9390E0FC01EA53FE4F2491FC017D
:1016F000E45FFD4F8491882349F190E0880F991FA2
:10170000FC01EA57FD4FA591B49184599D4FFC010E
:10171000C591D4919FB7611108C0F8948C91209520
:1017200082238C93888182230AC0623051F4F8941A
:101730008C91322F309583238C938881822B8883E0
:1017400004C0F8948C91822B8C939FBFDF91CF9132
:1017500008950F931F93CF93DF931F92CDB7DEB7FA
:10176000282F30E0F901E058FE4F8491F901EA5347
:10177000FE4F1491F901E45FFD4F04910023C9F07D
:10178000882321F069830E941C0B6981E02FF0E01F
:10179000EE0FFF1FE459FD4FA591B4919FB7F89448
:1017A0008C91611103C01095812301C0812B8C9312
:1017B0009FBF0F90DF91CF911F910F910895CF930D
:1017C000DF93282F30E0F901E058FE4F8491F901B2
:1017D000EA53FE4FD491F901E45FFD4FC491CC234D
:1017E00091F081110E941C0BEC2FF0E0EE0FFF1F17
:1017F000EE5AFD4FA591B4912C912D2381E090E0FC
:1018000021F480E002C080E090E0DF91CF91089564
:10181000FC01818D228D90E0805C9F4F821B91099D
:101820008F7399270895FC01918D828D981731F05F
:10183000828DE80FF11D858D90E008958FEF9FEF69
:101840000895FC01918D828D981761F0828DDF01E2
:10185000A80FB11D5D968C91928D9F5F9F73928FA3
:1018600090E008958FEF9FEF08958CED9DE0892B18
:1018700041F080E090E0892B21F00E94DC0D811185
:1018800025C080E090E0892B41F080E090E0892B3A
:1018900021F00E94000081111CC080E090E0892BA3
:1018A00041F080E090E0892B21F00E94000081113E
:1018B00013C080E090E0892BA1F080E090E0892BBC
:1018C00081F00E94000081110AC008950E9400006A
:1018D000D8CF0E940000E1CF0E940000EACF0C9414
:1018E00000000895FC01848DDF01A80FB11DA35AEB
:1018F000BF4F2C91848D90E001968F739927848F30
:10190000A689B7892C93A089B1898C9180648C9326
:10191000938D848D981306C00288F389E02D808111
:101920008F7D80830895CF93DF93EC01888D88238A
:10193000C9F0EA89FB89808185FD05C0A889B9893C
:101940008C9186FD0FC00FB607FCF5CF808185FF17
:10195000F2CFA889B9898C9185FFEDCFCE010E9485
:10196000720CE7CFDF91CF910895CF92DF92FF9273
:101970000F931F93CF93DF931F92CDB7DEB76C0108
:1019800081E0D60158968C9358975B969C915B9713
:101990005C968C915C97981307C05096ED91FC91E2
:1019A0005197808185FD2EC0F601038D10E00F5FF9
:1019B0001F4F0F731127F02EF601848DF81211C0FE
:1019C0000FB607FCF9CFD6015096ED91FC915197D7
:1019D000808185FFF1CFC60169830E94720C698105
:1019E000EBCF838DE80FF11DE35AFF4F6083D601E3
:1019F0005B960C935B975296ED91FC915397808187
:101A000080620CC0D6015696ED91FC915797608389
:101A10005096ED91FC91519780818064808381E0A4
:101A200090E00F90DF91CF911F910F91FF90DF9089
:101A3000CF900895BF92CF92DF92EF92FF92CF9313
:101A4000DF93EC016A017B01B22EE889F98982E01B
:101A50008083411581EE580761057105A1F060E0B2
:101A600079E08DE390E0A70196010E9417112150C3
:101A70003109410951095695479537952795211503
:101A800080E1380798F0E889F989108260E874E805
:101A90008EE190E0A70196010E94171121503109B3
:101AA000410951095695479537952795EC85FD8550
:101AB0003083EE85FF852083188EEC89FD89B08206
:101AC000EA89FB89808180618083EA89FB89808142
:101AD00088608083EA89FB89808180688083EA89C5
:101AE000FB8980818F7D8083DF91CF91FF90EF9084
:101AF000DF90CF90BF9008951F920F920FB60F9274
:101B000011240BB60F922F938F939F93EF93FF9314
:101B1000E091D003F091D1038081E091D603F09160
:101B2000D70382FD12C090818091D9038F5F8F739C
:101B30002091DA03821751F0E091D903F0E0E054EC
:101B4000FC4F958F8093D90301C08081FF91EF9165
:101B50009F918F912F910F900BBE0F900FBE0F9002
:101B60001F9018951F920F920FB60F9211240BB66B
:101B70000F922F933F934F935F936F937F938F9326
:101B80009F93AF93BF93EF93FF9380EC93E00E94FA
:101B9000720CFF91EF91BF91AF919F918F917F91C7
:101BA0006F915F914F913F912F910F900BBE0F90CE
:101BB0000FBE0F901F90189580EC93E00E94080CC8
:101BC00021E0892B09F420E0822F08951092C303AD
:101BD0001092C20388EE93E0A0E0B0E08093C403CB
:101BE0009093C503A093C603B093C70389E992E01D
:101BF0009093C1038093C00385EC90E09093CD0354
:101C00008093CC0384EC90E09093CF038093CE0339
:101C100080EC90E09093D1038093D00381EC90E02E
:101C20009093D3038093D20382EC90E09093D503FA
:101C30008093D40386EC90E09093D7038093D603EF
:101C40001092D9031092DA031092DB031092DC0396
:101C5000089508950E94BA0A0E94290E0E94C101A7
:101C6000C5E3DCE00E94C2032097E1F30E94350C3B
:101C7000F9CFCF92DF92EF92FF920F931F93CF9302
:101C8000DF937C016A01EB0100E010E00C151D05FB
:101C900071F06991D701ED91FC910190F081E02DF7
:101CA000C7011995892B19F00F5F1F4FEFCFC8019E
:101CB000DF91CF911F910F91FF90EF90DF90CF9028
:101CC00008956115710581F0DB010D900020E9F7A1
:101CD000AD0141505109461B570BDC01ED91FC91C0
:101CE0000280F381E02D199480E090E00895DC01FA
:101CF000ED91FC91DB0114964D915C9115976D91DE
:101D00007C910280F381E02D19940C94610EDC012A
:101D1000ED91FC910190F081E02D199465EA72E05B
:101D20000C94610E0F931F93CF93DF93EC010E94ED
:101D3000770E8C01CE010E948E0E800F911FDF91D5
:101D4000CF911F910F9108950F931F93CF93DF931E
:101D5000EC010E94870E8C01CE010E948E0E800F36
:101D6000911FDF91CF911F910F9108958F929F92B4
:101D7000AF92BF92CF92DF92EF92FF920F931F9399
:101D8000CF93DF93CDB7DEB7A1970FB6F894DEBF40
:101D90000FBECDBF7C01C42EE52FCB01D22E19A2E0
:101DA00021E02D1510F02AE0D22E8E010F5D1F4F7D
:101DB0008D2C912CA12CB12C6C2D7E2FA501940182
:101DC0000E9417118C2DD29E8019112401501109E7
:101DD0008A3014F4805D01C0895CF801808321158C
:101DE00031054105510521F0C22EE32FCA01E4CF90
:101DF000B801C7010E94610EA1960FB6F894DEBF2C
:101E00000FBECDBFDF91CF911F910F91FF90EF904B
:101E1000DF90CF90BF90AF909F908F900895CF921A
:101E2000DF92EF92FF920F931F93CF93DF93EC011A
:101E30006A017B012115310579F4E881F98101906E
:101E4000F081E02D642FDF91CF911F910F91FF90D2
:101E5000EF90DF90CF9019942A303105E9F477FFA5
:101E60001AC06DE20E94870E8C0144275527BA01E3
:101E70004C195D096E097F092AE0CE010E94B60E59
:101E8000800F911FDF91CF911F910F91FF90EF90E5
:101E9000DF90CF9008952AE0B701A601CE01DF912F
:101EA000CF911F910F91FF90EF90DF90CF900C9406
:101EB000B60E0F931F93CF93DF93EC019A01AB0102
:101EC000662757FD6095762F0E940F0F8C01CE017B
:101ED0000E948E0E800F911FDF91CF911F910F9165
:101EE00008950F931F93CF93DF93EC010E94580A3C
:101EF000688779878A879B87E881F9810680F781DF
:101F0000E02DCE01199597FF15C00E94580A08854B
:101F100019852A853B85601B710B820B930B0C8105
:101F20001D812E813F81601771078207930720F37F
:101F30008FEF9FEFDF91CF911F910F9108950F9336
:101F40001F93CF93DF93EC018B0167EA72E00E944D
:101F50002710C8010E94710F97FD05C0682FCE01A0
:101F60000E94E310F6CFCE01DF91CF911F910F9128
:101F70000895FC01808191810C94DB11CF93DF9354
:101F8000EC0188819981009711F00E94DB11198280
:101F900018821D821C821B821A82DF91CF910895C4
:101FA0000F931F93CF93DF93EC018B016F5F7F4FF4
:101FB000888199810E946A12009731F09983888301
:101FC0001B830A8381E001C080E0DF91CF911F91E4
:101FD0000F910895CF93DF93EC0188819981892B2C
:101FE00029F08A819B818617970760F4CE010E94B1
:101FF000D00F882341F08C819D81892B19F4E881D1
:10200000F981108281E0DF91CF910895EF92FF92E4
:102010000F931F93CF93DF93EC017B018A01BA01E9
:102020000E94EA0F811104C0CE010E94BE0F07C0BA
:102030001D830C83B701888199810E946513CE01AD
:10204000DF91CF911F910F91FF90EF900895FC01C8
:102050001182108213821282158214826115710519
:1020600059F0FB0101900020E9F7AF0141505109FF
:10207000461B570B0C94061008950F931F93CF9394
:10208000DF938C01EB01FC0180819181009799F035
:10209000428153812C813D814217530750F0688162
:1020A00079810E9465138C819D81F80195838483D9
:1020B00013C00E94DB1188819981F801918380838C
:1020C0008A819B81938382838C819D819583848384
:1020D000198218821B821A821D821C82DF91CF9185
:1020E0001F910F910895CF93DF93EC01FB018617A9
:1020F000970761F0608171816115710529F0448154
:1021000055810E94061002C00E94BE0FCE01DF91D1
:10211000CF910895FC0111821082138212821582E0
:1021200014820C947310CF93DF93EC0186179707FA
:1021300011F00E943D10CE01DF91CF910895CF9311
:10214000DF93EC016115710561F0FB010190002046
:10215000E9F7AF0141505109461B570B0E94061089
:1021600002C00E94BE0FCE01DF91CF910895EF9281
:10217000FF920F931F93CF93DF93EC017B010C81B0
:102180001D816115710511F480E016C041155105DE
:1021900091F0040F151FB8010E94EA0F8823A1F3E4
:1021A000288139818C819D81B701820F931F0E9404
:1021B00065131D830C8381E0DF91CF911F910F91F7
:1021C000FF90EF900895CF93DF931F921F92CDB7AA
:1021D000DEB769831A8241E050E0BE016F5F7F4F36
:1021E0000E94B7100F900F90DF91CF910895FC01DE
:1021F00024813581232B31F421E061157105A1F093
:10220000FB0108C0FC01808191816115710531F4E9
:1022100021E0FC018081882339F005C00E945C1315
:1022200021E0892B09F020E0822F08950895A1E292
:102230001A2EAA1BBB1BFD010DC0AA1FBB1FEE1F40
:10224000FF1FA217B307E407F50720F0A21BB30B8B
:10225000E40BF50B661F771F881F991F1A9469F707
:1022600060957095809590959B01AC01BD01CF0163
:102270000895EE0FFF1F0590F491E02D199407903B
:10228000F691E02D1994CF93DF938230910510F4ED
:1022900082E090E0E0915F04F091600420E030E0A3
:1022A000A0E0B0E0309739F14081518148175907DB
:1022B000B8F04817590771F482819381109729F07B
:1022C00013969C938E9312972CC0909360048093E6
:1022D0005F0427C02115310531F04217530718F06C
:1022E000A901DB0101C0EF019A01BD01DF010280FC
:1022F000F381E02DD7CF21153105F9F0281B390BDB
:102300002430310580F48A819B816115710521F0AB
:10231000FB019383828304C09093600480935F04E5
:10232000FE01329644C0FE01E20FF31F81939193A8
:1023300022503109398328833AC020915D043091BD
:102340005E04232B41F4209102023091030230936A
:102350005E0420935D04209100023091010221155A
:10236000310541F42DB73EB740910402509105026A
:10237000241B350BE0915D04F0915E04E217F30736
:10238000A0F42E1B3F0B2817390778F0AC014E5FE5
:102390005F4F2417350748F04E0F5F1F50935E04C0
:1023A00040935D048193919302C0E0E0F0E0CF019F
:1023B000DF91CF910895CF93DF93009709F487C001
:1023C000FC01329713821282C0915F04D0916004A5
:1023D000209781F420813181280F391F80915D047D
:1023E00090915E048217930779F5F0935E04E09371
:1023F0005D046DC0DE0120E030E0AE17BF0750F491
:1024000012964D915C9113979D014115510509F16B
:10241000DA01F3CFB383A28340815181840F951FEA
:102420008A179B0771F48D919C911197840F951FCA
:1024300002969183808312968D919C91139793833A
:1024400082832115310529F4F0936004E0935F0441
:102450003EC0D9011396FC93EE9312974D915D9176
:10246000A40FB51FEA17FB0779F480819181840FCF
:10247000951F0296D90111969C938E938281938128
:1024800013969C938E931297E0E0F0E08A819B81F3
:10249000009719F0FE01EC01F9CFCE0102962881D8
:1024A0003981820F931F20915D0430915E042817BB
:1024B000390769F4309729F41092600410925F0490
:1024C00002C013821282D0935E04C0935D04DF9138
:1024D000CF9108956F927F928F929F92AF92BF9209
:1024E000CF92DF92EF92FF920F931F93CF93DF93E0
:1024F000EC01CB01209781F4DF91CF911F910F91D7
:10250000FF90EF90DF90CF90BF90AF909F908F9013
:102510007F906F900C944311FE01E60FF71F9E0110
:1025200022503109E217F30708F4ACC0D9010D912C
:102530001C91119706171707B8F00530110508F41C
:102540009FC0A801445051094617570708F498C086
:1025500002501109061B170B019311936D937C9385
:10256000CF010E94DB118CC05B01A01AB10A4E01A1
:10257000800E911EA0915F04B0916004612C712CBB
:1025800060E070E0109709F449C0A815B905C9F5D5
:10259000ED90FC901197670142E0C40ED11CCA1463
:1025A000DB0478F147018A189B08640142E0C40EFD
:1025B000D11C1296BC9012971396AC91B5E0CB1635
:1025C000D10440F0B282A38391828082D9018D939D
:1025D0009C9309C00E5F1F4F0E0D1F1DF901118343
:1025E0000083EB2DFA2F6115710531F0DB01139695
:1025F000FC93EE93129744C0F0936004E0935F0461
:102600003FC06D917C9111976616770608F43B01E7
:10261000BD0112960D90BC91A02DB4CF60915D04C8
:1026200070915E0468157905E9F468167906D0F4AE
:1026300040910002509101024115510541F44DB7FE
:102640005EB76091040270910502461B570BE417B8
:10265000F507C0F4F0935E04E0935D04F901918303
:1026600080830EC00E9443117C01009759F0A8019D
:10267000BE010E945313CE010E94DB11C70104C0AA
:10268000CE0102C080E090E0DF91CF911F910F91C9
:10269000FF90EF90DF90CF90BF90AF909F908F9082
:1026A0007F906F900895FB01DC0102C001900D92B4
:1026B00041505040D8F70895FB01DC018D91019005
:1026C00080190110D9F3990B0895FB01DC010190E9
:1026D0000D920020E1F7089512E0C4EAD2E000E094
:1026E00006C022970109FE010BBF0E943F11C63AA6
:0C26F000D10780E00807A9F7F894FFCF9D
:1026FC000000610480000100000001002522232459
:10270C0017191B1D313233413435364237383943B2
:10271C002A3023440D0028000C000A000900080090
:10272C0002000600050020002A0032333839005020
:10273C00494E3A00545249472046726F6E742044F9
:10274C006F6F720054524947204261636B20446F93
:10275C006F720054524947204D6F74696F6E005070
:10276C00696E3A0064697361726D00444953415259
:10277C004D45440064697361726D6564000000002E
:10278C0000FF07390E00000000B50C390E080C21B3
:10279C000C130C930C0D0A006E616E00696E6600D2
:0627AC006F7666002E00AE
:00000001FF
