:100000000C94EB000C9413010C9413010C94130149
:100010000C9413010C9413010C9413010C94130110
:100020000C9413010C9413010C94EF0F0C94810E9B
:100030000C9413010C9413010C9413010C941301F0
:100040000C9413010C9459040C9413010C94130197
:100050000C9413010C9413010C9413010C9442089A
:100060000C9413010C9413010C9413010C941301C0
:100070000C9413010C9413010C9413010C941301B0
:100080000C9413010C9413010C9413010C941301A0
:100090000C9413010C9413010C9413010C94130190
:1000A0000C9413010C9413010C9413015C095F0967
:1000B0004E095209580980098009800963096709B6
:1000C0006B097109750980097B09000000020009AC
:1000D0000F0000030401000C0000000000000000FD
:1000E00000000000000000000408020110408040F1
:1000F000102040804080080204018040201002014E
:10010000108010204040040404040403040502028B
:1001100002020403020202020606060606060404A0
:1001200002020204000000002300260029002C0027
:100130002F0000000000250028002B002E003100B9
:1001400000000000240027002A002D003000080BCA
:100150000002020201000904000001020200000581
:1001600024001001052401010104240206052406CF
:1001700000010705810310004009040100020A0084
:10018000000007050202400000070583024000004E
:1001900012010002EF0201404123418000010102EF
:1001A00003011201000200000040412341800001D0
:1001B0000102030141726475696E6F204C4C43006B
:1001C00041726475696E6F2059756E0004030904ED
:1001D0008E020F0BC50211241FBECFEFDAE0DEBF87
:1001E000CDBF12E0A0E0B1E0E6EEF9E202C005907A
:1001F0000D92A833B107D9F723E0A8E3B2E001C01C
:100200001D92AE36B207E1F711E0C4EDD1E004C0B3
:100210002297FE010E94A112C03DD107C9F70E949A
:100220002D0B0C94E6140C94000082E592E00E94E1
:10023000851088E592E00E9485108EE592E00C948E
:10024000851040ED57E060E070E083EC92E00E94A2
:10025000B50720E835E240E050E063E073E083EC6E
:1002600092E00E946E0783EC92E00E946B0765E4C7
:1002700071E08091F4029091F5020E948C0B6AE08B
:1002800070E080E090E00E94BB0841E060E083EC19
:1002900092E00E94270860E0809130010E9481096D
:1002A00060E080912E010E94810961E080912C0123
:1002B0000E94810961E080912A010E94810961E028
:1002C000809128010E94810961E0809126010E94AD
:1002D000810960E0809124010E94810960E08091A1
:1002E00022010E94810920E042E060E188E792E07B
:1002F0000E94CB0540E855E260E070E083E093E0C7
:100300000E94FA0A6DE472E084E692E00E949B0685
:10031000109290020895809130010E94F00921E02E
:10032000892B09F420E02093940280912E010E94F1
:10033000F00921E0892B09F420E0209393028091B9
:1003400024010E94F00921E0892B09F420E0209388
:100350009202809122010E94F00921E0892B09F488
:1003600020E02093910280919402882311F081E093
:100370000895809193028111FACF809192028111A8
:10038000F6CF822F0895882311F061E001C060E06C
:1003900080912C010C94BA09BC0183E093E00C9489
:1003A000920B0F931F93CF93DF938C01EB0188E7A0
:1003B00092E00E94890640E060E088E792E00E94B7
:1003C000B105B80188E792E00E947E0B41E060E051
:1003D00088E792E00E94B105BE0188E792E0DF91D4
:1003E000CF911F910F910C947E0B8BE392E00E94B2
:1003F0002307882321F081E080933802089510922A
:10040000380261E0809128010E94BA0964E670E038
:1004100080E090E00E94BB0860E0809128010E948B
:10042000BA0964E670E080E090E00E94BB0861E0F9
:10043000809128010E94BA0964E670E080E090E0B3
:100440000E94BB0860E0809128010C94BA091092C8
:100450003A02109239026091390270913A02603189
:100460007105B4F46B5F40E088E792E00E94B1054B
:1004700061ED71E088E792E00E948C0B8091390277
:1004800090913A02019690933A0280933902E3CF19
:1004900010923A02109239020895CF93DF931F927F
:1004A000CDB7DEB7682F84E692E069830E94970695
:1004B0006981019779F5633259F06A3271F48BE3FF
:1004C00092E00E941F070F90DF91CF910C942702BA
:1004D0000F90DF91CF910C94F5018BE392E00E9495
:1004E0000D076091390270913A026F5F7F4F7093F0
:1004F0003A02609339026B5F40E088E792E00E9425
:10050000B10567E571E088E792E00F90DF91CF9148
:100510000C948C0B0F90DF91CF910895CF92EF92B6
:100520000F9380E2C82E9EE1E92E0CE12AE148E11A
:1005300066E188E792E00E94690624E0E22E04E08A
:100540002AE031E04EE051E062E171E084E692E0C1
:100550000E94E20661ED71E08EE592E00E94F310E8
:1005600061ED71E088E592E00E94F31061ED71E0C9
:1005700082E592E00E94F31069E571E08BE392E07E
:100580000F91EF90CF900C9407070C9415010F93E7
:100590001F93CF93DF9300D000D000D0CDB7DEB74C
:1005A0008C0161ED71E08EE592E00E946B1183E0B9
:1005B00093E00E94430A892BB1F063E073E0CE011F
:1005C00001960E943F0CBE016F5F7F4F8EE592E067
:1005D0000E945F11CE0101960E9485106EE572E0C7
:1005E000C8010E945611C80126960FB6F894DEBFC6
:1005F0000FBECDBFDF91CF911F910F910895CF9284
:10060000DF92EF92FF920F931F93CF93DF93CDB7BB
:10061000DEB72C970FB6F894DEBF0FBECDBF0E9499
:100620008C08672B682B692B41F40E948C08623080
:1006300071058105910508F478C083EC92E00E9471
:10064000410760939502709396028093970290936E
:1006500098020091990210919A0220919B02309188
:100660009C02601771078207930740F46093990218
:1006700070939A0280939B0290939C02009199023E
:1006800010919A0220919B0230919C026B017C0197
:10069000C01AD10AE20AF30A970186010A3F11053E
:1006A0002105310508F441C06093990270939A02C4
:1006B00080939B0290939C0283EC92E00E946B07D4
:1006C0006EE571E08091F4029091F5020E948C0B2E
:1006D00066E671E08091F4029091F5020E948C0B25
:1006E0000E948C08AB01BC012AE030E08091F4024A
:1006F0009091F5020E94FD0B68E671E08091F40292
:100700009091F5020E948C0B65E070E080E090E033
:100710000E94BB086AE070E080E090E00E94BB08A5
:1007200061E083EC92E00E94E907CE0101960E940D
:10073000C70263E971E0CE0101960E94C2118111E6
:1007400003C01091380201C011E0CE0101960E9451
:1007500085101123D9F188E792E00E94AA058BE366
:1007600092E00E941F0761E771E0CE0101960E94AE
:10077000F31066E771E0CE0107960E94F310BE0108
:100780006F5F7F4FCE0107960E94D101CE01079681
:100790000E948510CE0101960E94851081E0809311
:1007A000900264EB71E0CE0101960E94F310CE013D
:1007B00001960E94CC01CE0101960E94851061E055
:1007C000809126010E94BA0960E04FC0CE010196D7
:1007D0000E94C70260E971E0CE0101960E94C21139
:1007E000811103C01091380201C011E0CE010196C1
:1007F0000E9485101123E9F188E792E00E94AA0582
:100800008BE392E00E941F0761E771E0CE01019641
:100810000E94F31067E971E0CE0107960E94F31081
:10082000BE016F5F7F4FCE0107960E94D101CE01BE
:1008300007960E948510CE0101960E9485101092A5
:10084000900261EB71E0CE0101960E94F310CE019F
:1008500001960E94CC01CE0101960E94851060E0B5
:10086000809126010E94BA0961E080912A010E94CC
:10087000BA090E948B01882351F08091900288234D
:1008800031F061E080912C010E94BA0903C080E040
:100890000E94C3012C960FB6F894DEBF0FBECDBFE9
:1008A000DF91CF911F910F91FF90EF90DF90CF904C
:1008B00008951F920F920FB60F9211242F933F931A
:1008C0004F935F936F937F938F939F93AF93BF9358
:1008D000EF93FF9380919E0287FF05C010928500E1
:1008E000109284001AC020919E02332727FD309574
:1008F00080919D0290E0281739077CF480919E0238
:10090000992787FD9095FC01EE0FFF1FE80FF91F57
:10091000E156FD4F808186FD15C080919E028F5F5C
:1009200080939E0220919E02332727FD309580916F
:100930009D0290E028173907BCF480919E028C300C
:100940005CF112C080919E02992787FD9095FC0171
:10095000EE0FFF1FE80FF91FE156FD4F808160E0A9
:100960008F730E94BA09D9CF80918400909185003D
:10097000049680349C4918F480E49CE905C0809179
:10098000840090918500049690938900809388005C
:100990008FEF80939E0238C02091840030918500B3
:1009A00080919E02992787FD9095FC01EE0FFF1F15
:1009B000E80FF91FE156FD4F81819281820F931F4D
:1009C000909389008093880080919E02992787FDEB
:1009D0009095FC01EE0FFF1FE80FF91FE156FD4F48
:1009E000808186FF11C080919E02992787FD909596
:1009F000FC01EE0FFF1FE80FF91FE156FD4F80814C
:100A000061E08F730E94BA09FF91EF91BF91AF919E
:100A10009F918F917F916F915F914F913F912F9116
:100A20000F900FBE0F901F901895CF93DF93EC019E
:100A300060E08E810E94BA0981E090E00E94E308A4
:100A400061E08E810E94BA0981E090E00E94E30893
:100A500060E08E810E94BA0984E690E0DF91CF9138
:100A60000C94E308EF92FF920F931F93CF93DF93C1
:100A70008C01C0E0D0E0E62EF12CB7010C2E02C0B4
:100A8000759567950A94E2F76170F801EC0FFD1F08
:100A900087810E94BA092196C430D10571F7C80137
:100AA000DF91CF911F910F91FF90EF900C9415055E
:100AB000EF92FF920F931F93CF93DF938C01C0E0CF
:100AC000D0E0E62EF12CB7010C2E02C0759567958B
:100AD0000A94E2F76170F801EC0FFD1F87810E9414
:100AE000BA092196C830D10571F7C801DF91CF91BD
:100AF0001F910F91FF90EF900C9415051F93CF93CA
:100B0000DF93EC01162F642F8C810E94BA098D812E
:100B10008F3F19F060E00E94BA098F85612F84FF32
:100B200006C0CE01DF91CF911F910C94580570E063
:100B300084E0759567958A95E1F7CE010E943205AC
:100B4000612FCE01DF91CF911F910C94320540E0CF
:100B50000C947E0561E00E94A70580ED97E00C945F
:100B6000E308443008F043E0FC012389421710F009
:100B70004FEF420FFC01E40FF11D2489260F20687E
:100B8000622F0C94A705FC016089262F2460208B1E
:100B90006C600C94A7050F931F93CF93DF93EC0128
:100BA000423018F08F8588608F874B8B1C8A80E4D9
:100BB0008D8B6E8B70E0605C7F4F6F8B222329F0F2
:100BC000413019F48F8584608F8761E08C810E94A9
:100BD00081098D818F3F19F061E00E94810961E0F8
:100BE0008E810E94810900E010E08F8584FF03C0A0
:100BF00088E090E002C084E090E00817190754F400
:100C0000FE01E00FF11F61E087810E9481090F5F03
:100C10001F4FEBCF80E593EC0E94E30860E08C81EE
:100C20000E94BA0960E08E810E94BA098D818F3FCF
:100C300019F060E00E94BA096F8564FD1DC063E091
:100C4000CE010E94320584E991E10E94E30863E04D
:100C5000CE010E94320584E991E10E94E30863E03D
:100C6000CE010E94320586E990E00E94E30862E02E
:100C7000CE010E94320516C06062CE010E94A70517
:100C800084E991E10E94E3086F856062CE010E94D1
:100C9000A70586E990E00E94E3086F856062CE01B7
:100CA0000E94A7056F856062CE010E94A70584E0BF
:100CB000888BCE010E94C305CE010E94AA0582E066
:100CC000898B66E0CE01DF91CF911F910F910C943B
:100CD000A705CF92EF920F93FC01138212828EEB45
:100CE00091E09183808364838FEF8583468327839C
:100CF0000087E186C28613861486158616861786B7
:100D000020E041E060E1CF010F91EF90CF900C9493
:100D1000CB05FC016189262F2160218B65600C9435
:100D2000A70541E00E947E0581E090E00895FC0166
:100D3000878190850895FC01778766870895FF92E3
:100D40000F931F93CF93DF93EC01F12C0F2D10E045
:100D50008E8182958F7090E00817190794F4EC81CA
:100D6000FD81E00FF11F61E080810E948109EC812B
:100D7000FD81E00FF11F60E080810E94BA09F394C9
:100D8000E5CFF12C0F2D10E08E818F7090E00817C9
:100D9000190794F4EA81FB81E00FF11F60E0808184
:100DA0000E948109EA81FB81E00FF11F61E08081EF
:100DB0000E94BA09F394E6CFDF91CF911F910F9172
:100DC000FF900895EF920F93FC0153834283358384
:100DD0002483E29480EFE8220F700E290683108AA4
:100DE000118A7183608381E0828B82E090E0938737
:100DF000828784EF91E09587848717861686108610
:100E00001782138ACF010F91EF900C949F06FC017B
:100E100071836083168A12820895FC01268923312A
:100E200061F031E0320F368BE20FF11D6283FC017D
:100E3000E30FF11D128281E0089580E00895FC0126
:100E4000168A12820895DC01ED91FC91119751915F
:100E500012964C9120E030E0511104C081E044230F
:100E600079F00DC054130BC05191DC01A20FB31FD8
:100E700013964C912F5F3F4F2331310569F780E086
:100E800008950C948C080F931F93CF93DF93EC017C
:100E9000662359F00E948C0869837A838B839C8334
:100EA000DF91CF911F910F9108950E948C080981C5
:100EB0001A812B813C81601B710B820B930B623377
:100EC00071058105910530F763E070E080E090E006
:100ED0000E94BB08EACF60E00C944307CF92DF92F8
:100EE000EF92FF920F931F93CF93DF9300D000D028
:100EF000CDB7DEB78C017B01FC0172AB61AB8BE13E
:100F0000C82ED12CC70129833A834B835C830E946E
:100F1000000B29813A814B815C81811113C0F1E082
:100F2000CF1AD10879F064E670E080E090E0298380
:100F30003A834B835C830E94BB085C814B813A817E
:100F40002981E0CFBA01A901F80181A992A90F90E6
:100F50000F900F900F90DF91CF911F910F91FF9005
:100F6000EF90DF90CF900C94FA0AFC0113AA14AA18
:100F700015AA16AA118212821382148241155105F4
:100F80006105710521F0CB01BA010C94BB080895ED
:100F90001F93CF93DF93EC01162F62EC71E089A9C8
:100FA0009AA90E948C0B4AE050E0612F89A99AA966
:100FB0000E940A0C69EC71E089A99AA90E948C0B25
:100FC00062E370E080E090E0DF91CF911F910C949C
:100FD000BB081F93CF93DF93EC01162F8D818823DD
:100FE00089F189A99AA9DC01ED91FC910480F58130
:100FF000E02D0995892BA9F307C02637310519F192
:101000002835310509F41D8289A99AA9DC01ED91E1
:10101000FC910480F581E02D09951816190694F4C9
:1010200089A99AA9DC01ED91FC910680F781E02D58
:1010300009959C01332723363105F9F6612FCE013E
:101040000E94C80783E6DF91CF911F9108950F9307
:101050001F93CF93DF931F92CDB7DEB78C0166232A
:1010600049F081E0F801858360E0C80149830E946E
:10107000E9074981F80145830F90DF91CF911F91D6
:101080000F9108951F920F920FB60F9211242F9374
:101090003F938F939F93AF93BF938091FB02909167
:1010A000FC02A091FD02B091FE023091FA0223E011
:1010B000230F2D3720F40196A11DB11D05C026E890
:1010C000230F0296A11DB11D2093FA028093FB020B
:1010D0009093FC02A093FD02B093FE028091FF0268
:1010E00090910003A0910103B09102030196A11D0C
:1010F000B11D8093FF0290930003A0930103B0936E
:101100000203BF91AF919F918F913F912F910F90CB
:101110000FBE0F901F9018952FB7F8946091FB02A7
:101120007091FC028091FD029091FE022FBF089504
:101130003FB7F8948091FF0290910003A0910103C2
:10114000B091020326B5A89B05C02F3F19F0019668
:10115000A11DB11D3FBF6627782F892F9A2F620FDF
:10116000711D811D911D42E0660F771F881F991F19
:101170004A95D1F70895CF92DF92EF92FF92CF93E5
:10118000DF936B017C010E949808EB01C114D1042C
:10119000E104F10489F00E94E1110E9498086C1B9F
:1011A0007D0B683E734090F381E0C81AD108E108D6
:1011B000F108C851DC4FEACFDF91CF91FF90EF905B
:1011C000DF90CF9008958230910538F0880F991FF5
:1011D000880F991F05970197F1F70895789484B5C2
:1011E000826084BD84B5816084BD85B5826085BD23
:1011F00085B5816085BDEEE6F0E080818160808309
:10120000E1E8F0E0108280818260808380818160EB
:101210008083E0E8F0E0808181608083E1E9F0E0B4
:10122000808182608083808181608083E0E9F0E05A
:10123000808181608083E1ECF0E080818460808344
:10124000808182608083808181608083E3ECF0E034
:10125000808181608083E0ECF0E080818260808327
:10126000E2ECF0E0808181608083EAE7F0E0808159
:1012700084608083808182608083808181608083BC
:10128000808180688083089590E0FC013197EF3081
:10129000F105B0F5EA5AFF4F0C949F12809180003F
:1012A0008F7703C0809180008F7D809380000895A8
:1012B00080918000877FF9CF84B58F7702C084B595
:1012C0008F7D84BD0895809190008F7707C08091B5
:1012D00090008F7D03C080919000877F8093900065
:1012E00008958091C0008F7703C08091C0008F7DEA
:1012F0008093C00008958091C200877F8093C200D0
:101300000895CF93DF9390E0FC01E851FF4F2491C3
:10131000FC01EA5FFE4F8491882349F190E0880F39
:10132000991FFC01E05CFE4FA591B4918E5C9E4F2D
:10133000FC01C591D4919FB7611108C0F8948C91BC
:10134000209582238C93888182230AC0623051F4D5
:10135000F8948C91322F309583238C938881822B43
:10136000888304C0F8948C91822B8C939FBFDF916B
:10137000CF9108950F931F93CF93DF931F92CDB713
:10138000DEB7282F30E0F901E653FF4F8491F901D1
:10139000E851FF4F1491F901EA5FFE4F04910023D9
:1013A000C9F0882321F069830E9444096981E02FF4
:1013B000F0E0EE0FFF1FEE5CFE4FA591B4919FB7DA
:1013C000F8948C91611103C01095812301C0812B89
:1013D0008C939FBF0F90DF91CF911F910F91089534
:1013E000CF93DF93282F30E0F901E653FF4F84912C
:1013F000F901E851FF4FD491F901EA5FFE4FC49122
:10140000CC2391F081110E944409EC2FF0E0EE0F03
:10141000FF1FEC5DFE4FA591B4912C912D2381E02F
:1014200090E021F480E002C080E090E0DF91CF9175
:101430000895CF93DF931F92CDB7DEB76983DC01A8
:10144000ED91FC910280F381E02D41E050E0BE017E
:101450006F5F7F4F09950F90DF91CF910895CF93E4
:10146000DF93EC018C859D8597FF05C082E00E948B
:101470006A0D9D878C878C859D85DF91CF9108951E
:1014800083E00C94E50FFC018485958597FD06C0EB
:1014900082E00E94120D90E00196089582E00E9481
:1014A000120D90E00895FC018485958597FD05C097
:1014B0002FEF3FEF35872487089582E00C946A0D63
:1014C000CF93DF93EC0180913D01882331F083E0DD
:1014D0000E949B0D1816190634F081E090E09B8362
:1014E0008A8380E090E0DF91CF910895FC01208114
:1014F0002E5F208342E450E06EE471E080E80C94BB
:10150000360EFC0121818081813A59F4213209F0A3
:101510005CC047E050E066E371E080E00E94360E78
:1015200067C0813209F051C0233289F4838190E091
:10153000982F88273281832BA0E0B0E0809332017E
:1015400090933301A0933401B09335010FC0203242
:1015500039F467E070E086E391E00E94670E0AC00C
:10156000223221F4828180933D0104C02D7F2032FC
:1015700009F03EC08091360190913701A091380169
:10158000B0913901803B9440A105B10501F58091EE
:101590003D0180FD1CC0809100089091010890934E
:1015A000FF0A8093FE0A87E797E7909301088093EC
:1015B00000082BE088E190E00FB6F894A89580939E
:1015C00060000FBE2093600013C080E0089588E1A2
:1015D0000FB6F89480936000109260000FBEA8953B
:1015E0008091FE0A9091FF0A909301088093000871
:1015F00081E008952FEF3FEFFC01358724870895A0
:10160000CF93C0913D016AE070E080E090E00E94DD
:10161000BB0881E0C11101C080E0CF910895109214
:1016200006031092050388EE93E0A0E0B0E08093FB
:10163000070390930803A0930903B0930A038EE174
:1016400092E090930403809303038FEF9FEF9093B6
:10165000100380930F03089508950E94EE080E94DE
:101660002C0B83E593E00E9472100E942101C0E0E0
:10167000D0E00E94FF022097E1F30E940000F9CF22
:10168000CF92DF92EF92FF920F931F93CF93DF934E
:101690007C016A01EB0100E010E00C151D0571F002
:1016A0006991D701ED91FC910190F081E02DC70186
:1016B0000995892B19F00F5F1F4FEFCFC801DF91FC
:1016C000CF911F910F91FF90EF90DF90CF900895F1
:1016D0006115710581F0DB010D900020E9F7AD0186
:1016E00041505109461B570BDC01ED91FC910280E2
:1016F000F381E02D099480E090E00895DC01ED9104
:10170000FC91DB0114964D915C9115976D917C9144
:101710000280F381E02D09940C94680B6FEC71E06A
:101720000C94680B0F931F93CF93DF93EC010E94EF
:101730007E0B8C01CE010E948E0B800F911FDF91DA
:10174000CF911F910F9108958F929F92AF92BF9268
:10175000CF92DF92EF92FF920F931F93CF93DF937D
:10176000CDB7DEB7A1970FB6F894DEBF0FBECDBFE1
:101770007C01C42EE52FCB01D22E19A221E02D151C
:1017800010F02AE0D22E8E010F5D1F4F8D2C912C70
:10179000A12CB12C6C2D7E2FA50194010E947D12ED
:1017A0008C2DD29E80191124015011098A3014F415
:1017B000805D01C0895CF8018083211531054105F8
:1017C000510521F0C22EE32FCA01E4CFB801C701B1
:1017D0000E94680BA1960FB6F894DEBF0FBECDBF76
:1017E000DF91CF911F910F91FF90EF90DF90CF90FD
:1017F000BF90AF909F908F9008952115310541F4CF
:10180000DC01ED91FC910190F081E02D642F0994B1
:101810000C94A40B9A01462F50E060E070E00C9409
:10182000FD0B0F931F93CF93DF93EC010E948C0865
:10183000688779878A879B87E881F9810680F781A5
:10184000E02DCE01099597FF15C00E948C080885F0
:1018500019852A853B85601B710B820B930B0C81CC
:101860001D812E813F81601771078207930720F346
:101870008FEF9FEFDF91CF911F910F9108950F93FD
:101880001F93CF93DF93EC018B0161ED71E00E9418
:10189000F310C8010E94110C97FD05C0682FCE01FE
:1018A0000E94AF11F6CFCE01DF91CF911F910F9122
:1018B0000895615030F02091F100FC0120830196E1
:1018C000F8CF289884E680935C03089540915703ED
:1018D00050915803209155033091560342175307F6
:1018E000B4F49091E8009570E1F39091E80092FDD6
:1018F00019C08093F100809157039091580301968D
:101900008F739927892B19F48EEF8093E8008091CB
:10191000570390915803019690935803809357036F
:1019200081E0089580E00895CF92DF92EF92FF92D8
:101930000F931F93CF93DF931F92CDB7DEB7082F7E
:10194000162FF42E862F880F8E5F99830E94660CC7
:1019500083E00E94660CE02EC02E9981D92E8C2D3A
:101960008E19811798F4F601F7FE02C0849101C028
:1019700080810E94660C082F80E00E94660C802304
:10198000FFEFCF1ADF0A8111EACF01C081E00F908B
:10199000DF91CF911F910F91FF90EF90DF90CF904B
:1019A00008958091D70081608093D70080EA80936A
:1019B000D80089B5806189BD89B5826089BD09B4C7
:1019C00000FEFDCF61E070E080E090E00E94BB0887
:1019D0008091D8008F7C80618093D8008091E00056
:1019E000807F8093E0000895CF93DF931F92CDB75F
:1019F000DEB71982CE0101960E94760A0E94691212
:101A0000BE016F5F7F4F0E94E21189810F90DF91CD
:101A1000CF9108952FB7FC012083F89467706093ED
:101A2000E9000895CF93DF931F92CDB7DEB7682FFB
:101A3000CE0101960E940A0D8091F20099819FBF0C
:101A40000F90DF91CF910895FF920F931F93CF9343
:101A5000DF9300D0CDB7DEB7F62E8A0190915B03FD
:101A6000992311F057FF03C08FEF9FEF2BC0682F12
:101A7000CE0101967A830E940A0D8091F20090E0D7
:101A8000A8017A81801791070CF4AC01EF2DF72F94
:101A9000F40E84E6FE1639F0289880935C0390914A
:101AA000F1009193F7CF4115510521F08091F2009B
:101AB000882321F089818FBFCA0104C08BE68093FF
:101AC000E800F8CF0F900F90DF91CF911F910F9109
:101AD000FF900895CF93DF931F92CDB7DEB741E01B
:101AE00050E0BE016F5F7F4F0E94240D019719F4F3
:101AF000898190E002C08FEF9FEF0F90DF91CF912F
:101B00000895CF93DF931F92CDB7DEB7682FCE0134
:101B100001960E940A0D9091E800892F807295FF2E
:101B200004C09091F20080E4891B99819FBF0F90BF
:101B3000DF91CF9108956F927F928F929F92AF9293
:101B4000BF92CF92DF92EF92FF920F931F93CF93AA
:101B5000DF931F92CDB7DEB7782E7B01C42EB52E52
:101B600080915B03882369F0042F152F8AEFD82E0C
:101B7000872D8072982E9AE3A92E872D8074882E47
:101B800011C08FEF9FEF57C0872D0E94810D682EE7
:101B900081110CC0DA94A9F361E070E080E090E07C
:101BA0000E94BB080115110579F73BC0282F30E0D2
:101BB000021713070CF4602E672DCE0101960E94C8
:101BC0000A0D8091E80085FF29C0262D30E0021B18
:101BD000130B992039F06A948FEF6816B1F01092C8
:101BE000F100F9CFF701862D77FE07C0815058F03C
:101BF00094919093F1003196F9CF815020F091911A
:101C00009093F100FACFE20EF31E8091E80085FF79
:101C10000FC00115110511F481100AC089818FBF11
:101C2000C1CF5D9884E680935D038C2D9B2D03C00E
:101C3000A092E800F3CF0F90DF91CF911F910F9109
:101C4000FF90EF90DF90CF90BF90AF909F908F90DC
:101C50007F906F9008951092E900109258031092AF
:101C6000570390935603809355030895CF92DF92C4
:101C7000FF920F931F93CF93DF9300D0CDB7DEB7C2
:101C8000F82E8A016B0101151105B1F0F601F7FE7E
:101C900002C0849101C0808149835A830E94660CEE
:101CA00001501109FFEFCF1ADF0A49815A818111D2
:101CB000EACF8FEF9FEF01C0CA010F900F90DF9125
:101CC000CF911F910F91FF90DF90CF9008951F93B8
:101CD000CF93DF931F92CDB7DEB7162F2091E80088
:101CE00022FFFCCF612F79830E94590C8BEF8093E8
:101CF000E800812F7981972F0F90DF91CF911F916D
:101D000008951F920F920FB60F921124DF92EF9257
:101D1000FF920F931F932F933F934F935F936F9374
:101D20007F938F939F93AF93BF93EF93FF93CF9343
:101D3000DF93CDB7DEB76C97DEBFCDBF1092E90061
:101D40008091E80083FF23C168E0CE0145960E94A0
:101D5000590C82EF8093E8003D8937FF05C08091E0
:101D6000E80080FFFCCF03C08EEF8093E800832F54
:101D7000807609F0F0C02E894F89D88C21110CC0D3
:101D8000303829F480915A038093F10002C01092F8
:101D9000F1001092F100F4C0842F90E09D292130D1
:101DA00049F43111EDC0019709F0EAC080915A035E
:101DB0008D7F0AC0233059F43111E2C0019709F038
:101DC000DFC080915A03826080935A03D9C02530C6
:101DD00041F48091E80080FFFCCF40684093E3002D
:101DE000CFC0263009F08DC0EB8CFC8C22E0D212E3
:101DF0002CC080E090E00E942B0E0E94F40C99E031
:101E00008E010F5F1F4FF801292F11922A95E9F7D4
:101E10009983DA8291E09E8390EA98879AEF998776
:101E20002091570330915803275F3F4F3C832B830A
:101E30008D83C7010E942B0E49E050E0B80180E07D
:101E40000E94360E0E94F40C9BC0C7010E942B0E0C
:101E50000E946912BE016B5E7F4F0E940B120097B9
:101E600019F00CF08DC090C081E0D8120EC08B8D9F
:101E70009C8D089719F481E080935403809154035A
:101E800081112FC062EA71E031C0E3E0DE127CC054
:101E90008F89882349F1823029F440E86BE080EC97
:101EA00091E01CC0813029F440E86BE084EB91E0C4
:101EB00015C0833009F068C00E9469128E010F5F5F
:101EC0001F4FB8010E942A12F80101900020E9F783
:101ED0003197E01BF10B40E06E2FC8010E94940C7B
:101EE0004DC060E971E002C06CEC71E061157105F4
:101EF00009F44AC0FB01449150E080E80E94360E8C
:101F00003FC0273009F440C0283021F481E080939D
:101F1000F10036C02930A1F53370B1F5EFE3F1E0FF
:101F200081E021E036E39081992361F08093E9001C
:101F30002093EB0091919093EC003093ED008F5F34
:101F4000873089F78EE78093EA001092EA008F8944
:101F500080935B0315C08B8D9C8D0E942B0E898D09
:101F6000811105C0CE0145960E94810A07C00E94DA
:101F70006912BE016B5E7F4F0E944912882321F0D7
:101F80008EEF8093E80003C081E28093EB006C96B3
:101F90000FB6F894DEBF0FBECDBFDF91CF91FF919A
:101FA000EF91BF91AF919F918F917F916F915F91D1
:101FB0004F913F912F911F910F91FF90EF90DF90E4
:101FC0000F900FBE0F901F9018958093E90080919D
:101FD000F200882319F08AE38093E80008951F92A5
:101FE0000F920FB60F9211242F933F934F935F934D
:101FF0006F937F938F939F93AF93BF93CF93EF9301
:10200000FF93C091E1008091E100837F8093E10024
:102010008093E100C3FF0FC01092E90081E080933C
:10202000EB001092EC0082E38093ED0010925B03D2
:1020300088E08093F000C2FF19C083E00E94E50FA2
:1020400080915D03882339F080915D0381508093F6
:102050005D03882389F180915C03882339F08091A6
:102060005C03815080935C03882341F1C4FF10C05E
:102070008091E2008E7E81608093E2008091E10099
:102080008F7E8093E100809159038E7E806111C024
:10209000C0FF16C08091E2008E7E80618093E200D6
:1020A0008091E1008E7E8093E100809159038E7EC5
:1020B00081608093590304C05D9ACDCF289AD6CF12
:1020C000FF91EF91CF91BF91AF919F918F917F91B0
:1020D0006F915F914F913F912F910F900FBE0F9095
:1020E0001F90189510925B0310925A031092590397
:1020F0000E94D10CE1EEF0E080818E7E80838DE045
:102100008093E200559A209A0895FC018081918184
:102110000C943D13CF93DF93EC0188819981009754
:1021200011F00E943D13198218821D821C821B82AD
:102130001A82DF91CF9108950F931F93CF93DF936E
:10214000EC018B016F5F7F4F888199810E94CC13D6
:10215000009731F0998388831B830A8381E001C053
:1021600080E0DF91CF911F910F910895CF93DF937E
:10217000EC0188819981892B29F08A819B818617BE
:10218000970760F4CE010E949C10882341F08C8157
:102190009D81892B19F4E881F981108281E0DF911A
:1021A000CF910895EF92FF920F931F93CF93DF93F8
:1021B000EC017B018A01BA010E94B610811104C0B2
:1021C000CE010E948A1007C01D830C83B70188814D
:1021D00099810E94A814CE01DF91CF911F910F9198
:1021E000FF90EF900895FC011182108213821282F9
:1021F000158214826115710559F0FB0101900020D0
:10220000E9F7AF0141505109461B570B0C94D2100E
:1022100008950F931F93CF93DF938C01EB01FC0183
:1022200080819181009799F0428153812C813D8179
:102230004217530750F0688179810E94A8148C815D
:102240009D81F8019583848313C00E943D1388818A
:102250009981F801918380838A819B819383828312
:102260008C819D8195838483198218821B821A82B6
:102270001D821C82DF91CF911F910F910895CF9302
:10228000DF93EC01FB018617970761F06081718194
:102290006115710529F0448155810E94D21002C058
:1022A0000E948A10CE01DF91CF910895FC01118226
:1022B000108213821282158214820C943F11CF93E4
:1022C000DF93EC018617970711F00E940911CE01E8
:1022D000DF91CF910895CF93DF93EC0161157105E4
:1022E00061F0FB0101900020E9F7AF014150510975
:1022F000461B570B0E94D21002C00E948A10CE01CA
:10230000DF91CF910895EF92FF920F931F93CF9398
:10231000DF93EC017B010C811D816115710511F4C6
:1023200080E016C04115510591F0040F151FB8014A
:102330000E94B6108823A1F3288139818C819D8168
:10234000B701820F931F0E94A8141D830C8381E0A4
:10235000DF91CF911F910F91FF90EF900895CF9350
:10236000DF9300D0CDB7DEB769831A8241E050E039
:10237000BE016F5F7F4F0E9483110F900F90DF911E
:10238000CF910895FC0124813581232B31F421E084
:1023900061157105A1F0FB0108C0FC0180819181EC
:1023A0006115710531F421E0FC018081882339F049
:1023B00005C00E949F1421E0892B09F020E0822FA4
:1023C00008950895EF92FF920F931F93CF93DF9399
:1023D0007B01FC01C281D38100E010E0209781F0F5
:1023E000E881F9810280F381E02DB701CE010995E2
:1023F00097FD08C0080F191F0884D985C02DEECF9E
:10240000C80102C08FEF9FEFDF91CF911F910F9115
:10241000FF90EF9008950F931F93CF93DF938B015D
:10242000FC01C281D381209771F0E881F981048099
:10243000F581E02DB801CE010995009731F40884AB
:10244000D985C02DF0CF80E090E0DF91CF911F9132
:102450000F9108950F931F93CF93DF938B01FC018E
:10246000C281D381209771F0E881F9810680F781DC
:10247000E02DB801CE010995080F111D0884D985FA
:10248000C02DF0CFF8011082DF91CF911F910F91F5
:1024900008950F931F93CF93DF938B01FC01C281AB
:1024A000D381209771F0E881F9810190F081E02DCE
:1024B000B801CE010995811106C00884D985C02DC7
:1024C000F0CF80E001C081E0DF91CF911F910F91AB
:1024D00008958091620381110DC082E080935E03B4
:1024E00084E080935F03109261031092600381E0A7
:1024F000809362038EE593E00895A1E21A2EAA1B51
:10250000BB1BFD010DC0AA1FBB1FEE1FFF1FA217A3
:10251000B307E407F50720F0A21BB30BE40BF50BA0
:10252000661F771F881F991F1A9469F76095709529
:10253000809590959B01AC01BD01CF010895EE0FF0
:10254000FF1F0590F491E02D0994CF93DF93823023
:10255000910510F482E090E0E0916C03F0916D033E
:1025600020E030E0A0E0B0E0309739F140815181C7
:1025700048175907B8F04817590771F482819381B9
:10258000109729F013969C938E9312972CC09093DA
:102590006D0380936C0327C02115310531F042177C
:1025A000530718F0A901DB0101C0EF019A01BD0139
:1025B000DF010280F381E02DD7CF21153105F9F03D
:1025C000281B390B2430310580F48A819B816115E9
:1025D000710521F0FB019383828304C090936D0306
:1025E00080936C03FE01329644C0FE01E20FF31F9C
:1025F0008193919322503109398328833AC02091E5
:102600006A0330916B03232B41F420910201309136
:10261000030130936B0320936A03209100013091F2
:1026200001012115310541F42DB73EB74091040158
:1026300050910501241B350BE0916A03F0916B0367
:10264000E217F307A0F42E1B3F0B2817390778F089
:10265000AC014E5F5F4F2417350748F04E0F5F1FE8
:1026600050936B0340936A038193919302C0E0E01F
:10267000F0E0CF01DF91CF910895CF93DF930097E2
:1026800009F487C0FC01329713821282C0916C0357
:10269000D0916D03209781F420813181280F391F5B
:1026A00080916A0390916B038217930779F5F093F9
:1026B0006B03E0936A036DC0DE0120E030E0AE17EB
:1026C000BF0750F412964D915C9113979D014115EF
:1026D000510509F1DA01F3CFB383A283408151811F
:1026E000840F951F8A179B0771F48D919C91119708
:1026F000840F951F02969183808312968D919C91F1
:102700001397938382832115310529F4F0936D0388
:10271000E0936C033EC0D9011396FC93EE9312979D
:102720004D915D91A40FB51FEA17FB0779F48081E5
:102730009181840F951F0296D90111969C938E93D7
:102740008281938113969C938E931297E0E0F0E040
:102750008A819B81009719F0FE01EC01F9CFCE012F
:10276000029628813981820F931F20916A0330914C
:102770006B032817390769F4309729F410926D0319
:1027800010926C0302C013821282D0936B03C09329
:102790006A03DF91CF910895A0E0B0E0E2EDF3E1AC
:1027A0000C94B314EC01CB01209719F40E94A512EC
:1027B000B8C0FE01E60FF71F9E0122503109E21753
:1027C000F30708F4ACC0D9010D911C9111970617BD
:1027D0001707B8F00530110508F49FC0A801445050
:1027E00051094617570708F498C002501109061BF3
:1027F000170B019311936D937C93CF010E943D13AE
:102800008CC05B01A01AB10A4E01800E911EA091EE
:102810006C03B0916D03612C712C60E070E0109737
:1028200009F449C0A815B905C9F5ED90FC901197B8
:10283000670142E0C40ED11CCA14DB0478F14701E1
:102840008A189B08640142E0C40ED11C1296BC9009
:1028500012971396AC91B5E0CB16D10440F0B2823A
:10286000A38391828082D9018D939C9309C00E5FCE
:102870001F4F0E0D1F1DF90111830083EB2DFA2F41
:102880006115710531F0DB011396FC93EE931297FD
:1028900044C0F0936D03E0936C033FC06D917C9155
:1028A00011976616770608F43B01BD0112960D904C
:1028B000BC91A02DB4CF60916A0370916B03681531
:1028C0007905E9F468167906D0F440910001509139
:1028D00001014115510541F44DB75EB76091040106
:1028E00070910501461B570BE417F507C0F4F093F0
:1028F0006B03E0936A03F901918380830EC00E9409
:10290000A5127C01009759F0A801BE010E949614FF
:10291000CE010E943D13C70104C0CE0102C080E079
:1029200090E0CDB7DEB7EEE00C94CF14FB01DC01F4
:1029300002C001900D9241505040D8F70895FB011C
:10294000DC018D91019080190110D9F3990B089544
:10295000FB01DC0101900D920020E1F708952F9218
:102960003F924F925F926F927F928F929F92AF921F
:10297000BF92CF92DF92EF92FF920F931F93CF936C
:10298000DF93CDB7DEB7CA1BDB0B0FB6F894DEBF03
:102990000FBECDBF09942A88398848885F846E8429
:1029A0007D848C849B84AA84B984C884DF80EE8073
:1029B000FD800C811B81AA81B981CE0FD11D0FB67C
:1029C000F894DEBF0FBECDBFED01089511E0C4ED58
:1029D000D1E004C0FE010E94A1122296C63DD1079B
:0629E000C9F7F894FFCFD7
:1029E60000006E0380000100000021222324171935
:1029F6001B1D3132334134353642373839432A309C
:102A060023440D000C000A0009000800020006001D
:102A16000500FFFFFFFF00E100000000000000C10D
:102A26008081000000564D4450565F317C315F5620
:102A36004D4450560D0A002A003138373500564DA0
:102A46004450455F31007C005F564D4450450D0AA9
:102A56000050696E3A0041524D454420456E7465FA
:102A6600722050696E20746F20556E2D41726D0074
:102A760064697361726D0044495341524D45442067
:102A8600456E7465722050696E20746F2041726DB8
:102A96000064697361726D65640000000000910650
:102AA600400B564D4450435F005F564D4450430D16
:102AB6000A004572726F723A20417474656D7074C3
:102AC60020746F20736574206120726561642D6FB8
:102AD6006E6C79207661726961626C65206F722016
:102AE600646174612074797065206E6F74207375EB
:102AF60070706F727465640D0A0000000000190A98
:102B0600600A430A530A2F0A400A6E616E00696E14
:082B160066006F7666002E00D8
:00000001FF
