:100000000C9444010C9475010C9475010C947501C9
:100010000C9475010C9475010C9475010C94750188
:100020000C9475010C9475010C9475010C94750178
:100030000C9475010C9475010C9475010C94750168
:100040000C9475010C946B030C9475010C94750160
:100050000C9475010C9475010C9475010C94B906FF
:100060000C9475010C94FE090C94340A0C947501DF
:100070000C9475010C9475010C9475010C94750128
:100080000C9499030C9475010C9475010C947501F2
:100090000C9475010C9475010C9475010C94750108
:1000A0000C9475010C9475010C94C7030C947501A4
:1000B0000C9475010C9475010C9475010C94F50366
:1000C0000C9475010C9475010C9475010C947501D8
:1000D0000C9475010C9475010C9475010C947501C8
:1000E0000C947501E007E307D207D607DC071A086E
:1000F000E707EB07F107F507F907FF07030807080C
:100100001A080D08110815080C948A080C94680A3E
:100110000C9415090C94E0070C94FF070C945E0AEC
:100120000C9485050C94DC070C9403080C941A08B5
:100130000C94F1070C94A2020C9407080C940D087F
:100140000C94D6070C9495080C94B7080C941108DD
:100150000C94F5070C94BB0A0C94EB070C94F9076C
:100160000C9477020C94E3070C94A3080C941508E4
:100170000C94E7070C9437090C94D20700000A0B83
:1001800002090C0D0E080703040100000000000026
:10019000000000000000000000000000000000005F
:1001A000000000000000000012111000000000001C
:1001B000000000000000000000000000000000003F
:1001C000000001021020200808102040102040806C
:1001D000020102010804020101020408102040800B
:1001E0008040201008040201800402018040201099
:1001F00008040201080402010102040810204080E2
:1002000001020408102040800505050507050808BF
:100210000808020202020A0A080804040404010190
:1002200001010101010103030303030303030407A5
:1002300007070C0C0C0C0C0C0C0C0202020206063C
:100240000606060606060B0B0B0B0B0B0B0B000032
:100250002200250028002B002E003100340002016E
:100260000000050108010B01000021002400270007
:100270002A002D00300033000101000004010701B5
:100280000A017702680AA20211241FBECFEFD1E251
:10029000DEBFCDBF00E00CBF12E0A0E0B2E0E6E9B7
:1002A000FCE100E00BBF02C007900D92A83CB10733
:1002B000D9F724E0A8ECB2E001C01D92AE37B20736
:1002C000E1F712E0C6E8D2E000E006C0229701099B
:1002D000FE010BBF0E94150CC238D10780E0080751
:1002E000A9F70E94AC0A0C94390E0C94000040ED62
:1002F00057E060E070E08DE993E00E94200620E87E
:1003000035E240E050E06DED73E08DE993E00E944E
:1003100033068DE993E00E941D0662E372E080914E
:10032000CE039091CF030E94F90A6AE070E080E06A
:1003300090E00E94320741E060E08DE993E00E9486
:100340009E0660E0809130020E941B0860E0809170
:100350002E020E941B0861E080912C020E941B0863
:1003600061E080912A020E941B0861E080912802CE
:100370000E941B0861E0809126020E941B0860E039
:10038000809124020E941B0860E0809122020E945A
:100390001B0820E042E060E188EE92E00E94C70482
:1003A00026E040E855E260E070E08DED93E00C94CB
:1003B0009C09882311F061E001C060E080912C026B
:1003C0000C945408CF92DF92EF92FF920F931F93F9
:1003D0000E940307672B682B692B41F40E940307D7
:1003E000623071058105910508F478C08DE993E0CC
:1003F0000E94F3056093000370930103809302034E
:1004000090930303009104031091050320910603C8
:1004100030910703601771078207930740F46093D8
:1004200004037093050380930603909307030091E0
:1004300004031091050320910603309107036B011B
:100440007C01C01AD10AE20AF30A970186010A3F29
:1004500011052105310508F441C060930403709330
:10046000050380930603909307038DE993E00E94B0
:100470001D0664E472E08091CE039091CF030E9448
:10048000F90A6CE472E08091CE039091CF030E9450
:10049000F90A0E940307AB01BC012AE030E0809119
:1004A000CE039091CF030E94540B6EE472E08091D2
:1004B000CE039091CF030E94F90A65E070E080E0DE
:1004C00090E00E9432076AE070E080E090E00E94D5
:1004D000320761E08DE993E00E94600681E01F91A0
:1004E0000F91FF90EF90DF90CF900C94D901CF92B5
:1004F000EF920F9380E2C82E9EE1E92E0CE12AE1F3
:1005000048E166E188EE92E00E94650524E0E22E73
:1005100004E02AE032E04EE052E062E172E084ED75
:1005200092E00E94CE056EE672E08EEC92E00E94B0
:10053000D60B6EE672E088EC92E00F91EF90CF90D0
:100540000C94D60B88EC92E00E94680B8EEC92E043
:100550000C94680BCF92DF92EF92FF920F931F9350
:10056000CF93DF936C018B017A01EC01C75FDC4F05
:10057000888187FF04C0FB011182108223C02CE018
:100580002C9DC0012D9D900D11242881AC01420F9E
:10059000511D27FD5A952091080330E0421753075B
:1005A0008CF42881AC01420F511D27FD5A959A0108
:1005B000FA01EE0FFF1FE20FF31FE35FFC4F2081F4
:1005C00026FD19C088818F5F88838CE08C9D900107
:1005D0008D9D300D11248881A901480F511D87FD83
:1005E0005A958091080390E048175907B4F4888120
:1005F0008C303CF112C02881820F911D27FD9A9505
:10060000FC01EE0FFF1FE80FF91FE35FFC4F808135
:1006100060E08F730E945408D5CFF80180819181EA
:10062000049680349C4918F480E49CE904C0F801E5
:10063000808191810496F701918380838FEF888375
:1006400041C0F801808191814881B901640F711D19
:1006500047FD7A95AB01FB01EE0FFF1FE40FF51F7D
:10066000E35FFC4F41815281840F951FF701918315
:1006700080838881A901480F511D87FD5A95FA0191
:10068000EE0FFF1FE40FF51FE35FFC4F808186FF35
:1006900019C08881280F311D87FD3A95F901EE0FA9
:1006A000FF1FE20FF31FE35FFC4F808161E08F7358
:1006B000DF91CF911F910F91FF90EF90DF90CF903E
:1006C0000C945408DF91CF911F910F91FF90EF9000
:1006D000DF90CF9008951F920F920FB60F921124C2
:1006E0000BB60F922F933F934F935F936F937F932C
:1006F0008F939F93AF93BF93EF93FF9348E850E09E
:1007000064E870E081E090E00E94AA02FF91EF911E
:10071000BF91AF919F918F917F916F915F914F9119
:100720003F912F910F900BBE0F900FBE0F901F9017
:1007300018951F920F920FB60F9211240BB60F92BD
:100740002F933F934F935F936F937F938F939F93D9
:10075000AF93BF93EF93FF9348E950E064E970E0F3
:1007600082E090E00E94AA02FF91EF91BF91AF91C9
:100770009F918F917F916F915F914F913F912F91B9
:100780000F900BBE0F900FBE0F901F9018951F92E9
:100790000F920FB60F9211240BB60F922F933F9327
:1007A0004F935F936F937F938F939F93AF93BF9379
:1007B000EF93FF9348EA50E064EA70E083E090E052
:1007C0000E94AA02FF91EF91BF91AF919F918F91EB
:1007D0007F916F915F914F913F912F910F900BBE41
:1007E0000F900FBE0F901F9018951F920F920FB68B
:1007F0000F9211240BB60F922F933F934F935F9359
:100800006F937F938F939F93AF93BF93EF93FF93D8
:1008100048E251E064E271E080E090E00E94AA02C8
:10082000FF91EF91BF91AF919F918F917F916F91C8
:100830005F914F913F912F910F900BBE0F900FBE84
:100840000F901F901895CF93DF93EC0160E08E819D
:100850000E94540881E090E00E945A0761E08E8176
:100860000E94540881E090E00E945A0760E08E8167
:100870000E94540884E690E0DF91CF910C945A07CF
:10088000EF92FF920F931F93CF93DF938C01C0E001
:10089000D0E0E62EF12CB7010C2E02C075956795BD
:1008A0000A94E2F76170F801EC0FFD1F87810E9446
:1008B00054082196C430D10571F7C801DF91CF915A
:1008C0001F910F91FF90EF900C942304EF92FF92F1
:1008D0000F931F93CF93DF938C01C0E0D0E0E62EFF
:1008E000F12CB7010C2E02C0759567950A94E2F7BA
:1008F0006170F801EC0FFD1F87810E94540821965A
:10090000C830D10571F7C801DF91CF911F910F91C8
:10091000FF90EF900C9423041F93CF93DF93EC018F
:10092000162F642F8C810E9454088D818F3F19F0FF
:1009300060E00E9454088F85612F84FF06C0CE01BD
:10094000DF91CF911F910C94660470E084E075955F
:1009500067958A95E1F7CE010E944004612FCE0190
:10096000DF91CF911F910C94400440E00C948C04D3
:1009700061E00E94B50480ED97E00C945A07FC01F9
:100980006089262F2460208B6C600C94B5040F9333
:100990001F93CF93DF93EC01423018F08F8588606E
:1009A0008F874B8B1C8A80E48D8B6E8B70E0605C34
:1009B0007F4F6F8B222329F0413019F48F8584609B
:1009C0008F8761E08C810E941B088D818F3F19F019
:1009D00061E00E941B0861E08E810E941B0800E01C
:1009E00010E08F8584FF03C088E090E002C084E0BF
:1009F00090E00817190754F4FE01E00FF11F61E0C1
:100A000087810E941B080F5F1F4FEBCF80E593EC9F
:100A10000E945A0760E08C810E94540860E08E8139
:100A20000E9454088D818F3F19F060E00E945408A5
:100A30006F8564FD1DC063E0CE010E94400484E91F
:100A400091E10E945A0763E0CE010E94400484E9CC
:100A500091E10E945A0763E0CE010E94400486E9BA
:100A600090E00E945A0762E0CE010E94400416C046
:100A70006062CE010E94B50484E991E10E945A07A8
:100A80006F856062CE010E94B50486E990E00E9405
:100A90005A076F856062CE010E94B5046F8560625F
:100AA000CE010E94B50484E0888BCE010E94BF0471
:100AB000CE010E94B80482E0898B66E0CE01DF910E
:100AC000CF911F910F910C94B504CF92EF920F9399
:100AD000FC01138212828BE592E091838083648310
:100AE0008FEF8583468327830087E186C28613863E
:100AF000148615861686178620E041E060E1CF0156
:100B00000F91EF90CF900C94C70441E00E948C04A9
:100B100081E090E00895FF920F931F93CF93DF93AE
:100B2000EC01F12C0F2D10E08E8182958F7090E0FA
:100B30000817190794F4EC81FD81E00FF11F61E0C3
:100B400080810E941B08EC81FD81E00FF11F60E0B5
:100B500080810E945408F394E5CFF12C0F2D10E012
:100B60008E818F7090E00817190794F4EA81FB8159
:100B7000E00FF11F60E080810E941B08EA81FB8189
:100B8000E00FF11F61E080810E945408F394E6CFEA
:100B9000DF91CF911F910F91FF900895EF920F93E6
:100BA000FC015383428335832483E29480EFE8225F
:100BB0000F700E290683108A118A7183608381E089
:100BC000828B82E090E09387828784EF91E0958723
:100BD00084871786168610861782138ACF010F9195
:100BE000EF900C948B050C9403070F931F93CF93F6
:100BF000DF93EC01662359F00E94030769837A832F
:100C00008B839C83DF91CF911F910F9108950E9458
:100C1000030709811A812B813C81601B710B820BB8
:100C2000930B623371058105910530F763E070E045
:100C300080E090E00E943207EACF60E00C94F50576
:100C4000FC0113AA14AA15AA16AA118212821382F1
:100C50001482411551056105710521F0CB01BA01DE
:100C60000C9432070895FB01BA01A901DC01D29668
:100C7000FC93EE93D19726E0CF010C949C091F932F
:100C8000CF93DF93EC01162F6FE572E089A99AA943
:100C90000E94F90A4AE050E0612F89A99AA90E94AE
:100CA000610B66E672E089A99AA90E94F90A62E3DB
:100CB00070E080E090E0DF91CF911F910C943207BB
:100CC0001F93CF93DF93EC01162F8D81882389F139
:100CD00089A99AA9DC01ED91FC910480F581E02DB0
:100CE0001995892BA9F307C02637310519F1283545
:100CF000310509F41D8289A99AA9DC01ED91FC91C5
:100D00000480F581E02D19951816190694F489A927
:100D10009AA9DC01ED91FC910680F781E02D1995EF
:100D20009C01332723363105F9F6612FCE010E944D
:100D30003F0683E6DF91CF911F9108950F931F9394
:100D4000CF93DF931F92CDB7DEB78C01662349F0B6
:100D500081E0F801858360E0C80149830E94600654
:100D60004981F80145830F90DF91CF911F910F9139
:100D700008951F920F920FB60F9211242F933F9355
:100D80008F939F93AF93BF938091D5039091D60398
:100D9000A091D703B091D8033091D40323E0230F5F
:100DA0002D3720F40196A11DB11D05C026E8230FA3
:100DB0000296A11DB11D2093D4038093D503909377
:100DC000D603A093D703B093D8038091D903909111
:100DD000DA03A091DB03B091DC030196A11DB11DE4
:100DE0008093D9039093DA03A093DB03B093DC03E1
:100DF000BF91AF919F918F913F912F910F900FBE17
:100E00000F901F9018952FB7F8946091D5037091AB
:100E1000D6038091D7039091D8032FBF08953FB791
:100E2000F8948091D9039091DA03A091DB03B091FB
:100E3000DC0326B5A89B05C02F3F19F00196A11D24
:100E4000B11D3FBF6627782F892F9A2F620F711D22
:100E5000811D911D42E0660F771F881F991F4A95DB
:100E6000D1F70895CF92DF92EF92FF92CF93DF9365
:100E70006B017C010E940F07EB01C114D104E10456
:100E8000F10489F00E94EC0B0E940F076C1B7D0B94
:100E9000683E734090F381E0C81AD108E108F10878
:100EA000C851DC4FEACFDF91CF91FF90EF90DF90F8
:100EB000CF9008958230910538F0880F991F880FE0
:100EC000991F05970197F1F70895789484B582608A
:100ED00084BD84B5816084BD85B5826085BD85B5DE
:100EE000816085BDEEE6F0E0808181608083E1E88D
:100EF000F0E01082808182608083808181608083C5
:100F0000E0E8F0E0808181608083E1EBF0E08081C7
:100F100084608083E0EBF0E0808181608083E1E9A0
:100F2000F0E0808182608083808181608083E0E95D
:100F3000F0E0808181608083E1EAF0E0808182607E
:100F40008083808181608083E0EAF0E0808181603D
:100F50008083E1E2F1E08081826080838081816032
:100F60008083E0E2F1E0808181608083EAE7F0E065
:100F700080818460808380818260808380818160C1
:100F800080838081806880831092C100089590E002
:100F9000FC013197E231F10508F04CC0EE58FF4FEB
:100FA0000C940F0C809180008F7703C0809180009B
:100FB0008F7D80938000089580918000877FF9CF96
:100FC00084B58F7702C084B58F7D84BD08958091EC
:100FD000B0008F7703C08091B0008F7D8093B00008
:100FE0000895809190008F7707C0809190008F7D49
:100FF00003C080919000877F809390000895809136
:10100000A0008F7707C08091A0008F7D03C08091E2
:10101000A000877F8093A0000895809120018F77A2
:1010200007C0809120018F7D03C080912001877FC0
:10103000809320010895CF93DF9390E0FC01EE535D
:10104000FE4F2491FC01E85FFD4F8491882349F114
:1010500090E0880F991FFC01E859FD4FA591B491CC
:10106000825B9D4FFC01C591D4919FB7611108C06F
:10107000F8948C91209582238C93888182230AC0D6
:10108000623051F4F8948C91322F309583238C93F5
:101090008881822B888304C0F8948C91822B8C9356
:1010A0009FBFDF91CF9108950F931F93CF93DF934D
:1010B0001F92CDB7DEB7282F30E0F901E458FE4F7C
:1010C0008491F901EE53FE4F1491F901E85FFD4F51
:1010D00004910023C9F0882321F069830E94C70787
:1010E0006981E02FF0E0EE0FFF1FE25BFD4FA5915D
:1010F000B4919FB7F8948C91611103C0109581232E
:1011000001C0812B8C939FBF0F90DF91CF911F91D6
:101110000F910895FC01818D228D90E0805C9F4F9E
:10112000821B91098F7399270895FC01918D828DFF
:10113000981731F0828DE80FF11D858D90E00895AC
:101140008FEF9FEF0895FC01918D828D981761F0CC
:10115000828DDF01A80FB11D5D968C91928D9F5FEE
:101160009F73928F90E008958FEF9FEF08958EE523
:101170009AE0892B41F080E090E0892B21F00E94D9
:101180005E0A811125C080E090E0892B41F080E06B
:1011900090E0892B21F00E94000081111CC080E0AA
:1011A00090E0892B41F080E090E0892B21F00E94B3
:1011B0000000811113C080E090E0892BA1F080E055
:1011C00090E0892B81F00E94000081110AC00895EF
:1011D0000E940000D8CF0E940000E1CF0E940000D2
:1011E000EACF0C9400000895FC01848DDF01A80F64
:1011F000B11DA35ABF4F2C91848D90E001968F733F
:101200009927848FA689B7892C93A089B1898C915D
:1012100080648C93938D848D981306C00288F38923
:10122000E02D80818F7D80830895CF93DF93EC0143
:10123000888D8823C9F0EA89FB89808185FD05C0F6
:10124000A889B9898C9186FD0FC00FB607FCF5CF30
:10125000808185FFF2CFA889B9898C9185FFEDCF78
:10126000CE010E94F408E7CFDF91CF910895CF928D
:10127000DF92FF920F931F93CF93DF931F92CDB70F
:10128000DEB76C0181E0D60158968C9358975B9637
:101290009C915B975C968C915C97981307C05096D5
:1012A000ED91FC915197808185FD2EC0F601038D53
:1012B00010E00F5F1F4F0F731127F02EF601848D82
:1012C000F81211C00FB607FCF9CFD6015096ED9178
:1012D000FC915197808185FFF1CFC60169830E94FF
:1012E000F4086981EBCF838DE80FF11DE35AFF4FBE
:1012F0006083D6015B960C935B975296ED91FC91BF
:101300005397808180620CC0D6015696ED91FC9176
:10131000579760835096ED91FC915197808180643E
:10132000808381E090E00F90DF91CF911F910F912A
:10133000FF90DF90CF900895BF92CF92DF92EF920F
:10134000FF92CF93DF93EC016A017B01B22EE88913
:10135000F98982E08083411581EE580761057105A6
:10136000A1F060E079E08DE390E0A70196010E9492
:10137000ED0B215031094109510956954795379593
:101380002795211580E1380798F0E889F9891082BE
:1013900060E874E88EE190E0A70196010E94ED0BF1
:1013A000215031094109510956954795379527959F
:1013B000EC85FD853083EE85FF852083188EEC89D2
:1013C000FD89B082EA89FB89808180618083EA8916
:1013D000FB89808188608083EA89FB8980818068BD
:1013E0008083EA89FB8980818F7D8083DF91CF9123
:1013F000FF90EF90DF90CF90BF9008951F920F92D3
:101400000FB60F9211240BB60F922F938F939F93C9
:10141000EF93FF93E091ED03F091EE038081E09173
:10142000F303F091F40382FD12C090818091F603E2
:101430008F5F8F732091F703821751F0E091F603CD
:10144000F0E0E352FC4F958F8093F60301C080815A
:10145000FF91EF919F918F912F910F900BBE0F9065
:101460000FBE0F901F9018951F920F920FB60F92FC
:1014700011240BB60F922F933F934F935F936F936B
:101480007F938F939F93AF93BF93EF93FF938DEDD4
:1014900093E00E94F408FF91EF91BF91AF919F916B
:1014A0008F917F916F915F914F913F912F910F900D
:1014B0000BBE0F900FBE0F901F9018958DED93E00F
:1014C0000E948A0821E0892B09F420E0822F0895E8
:1014D0001092E0031092DF0388EE93E0A0E0B0E00A
:1014E0008093E1039093E203A093E303B093E403BA
:1014F0008BEB92E09093DE038093DD0385EC90E02C
:101500009093EA038093E90384EC90E09093EC03DA
:101510008093EB0380EC90E09093EE038093ED03D7
:1015200081EC90E09093F0038093EF0382EC90E0E5
:101530009093F2038093F10386EC90E09093F40390
:101540008093F3031092F6031092F7031092F803BE
:101550001092F903089508950E9465070E94AB0A4E
:101560000E947701C7EBD8E00E94E2012097E1F3E7
:101570000E94B708F9CFCF92DF92EF92FF920F93BC
:101580001F93CF93DF937C016A01EB0100E010E031
:101590000C151D0571F06991D701ED91FC91019039
:1015A000F081E02DC7011995892B19F00F5F1F4FAE
:1015B000EFCFC801DF91CF911F910F91FF90EF9076
:1015C000DF90CF9008956115710581F0DB010D90DA
:1015D0000020E9F7AD0141505109461B570BDC01D2
:1015E000ED91FC910280F381E02D199480E090E070
:1015F00008950C94E30A8F929F92AF92BF92CF927C
:10160000DF92EF92FF920F931F93CF93DF93CDB7AB
:10161000DEB7A1970FB6F894DEBF0FBECDBF7C0139
:10162000C42EE52FCB01D22E19A221E02D1510F0EA
:101630002AE0D22E8E010F5D1F4F8D2C912CA12CF4
:10164000B12C6C2D7E2FA50194010E94ED0B8C2DE9
:10165000D29E80191124015011098A3014F4805D42
:1016600001C0895CF80180832115310541055105D0
:1016700021F0C22EE32FCA01E4CFB801C7010E94B6
:10168000E30AA1960FB6F894DEBF0FBECDBFDF917F
:10169000CF911F910F91FF90EF90DF90CF90BF906F
:1016A000AF909F908F9008952115310541F4DC0192
:1016B000ED91FC910190F081E02D642F19940C9430
:1016C000FB0A9A01462F50E060E070E00C94540B46
:1016D000FC01808191810C94B10CCF93DF93EC01DC
:1016E00088819981009711F00E94B10C19821882AB
:1016F0001D821C821B821A82DF91CF9108950F9365
:101700001F93CF93DF93EC018B016F5F7F4F888135
:1017100099810E94400D009731F0998388831B8343
:101720000A8381E001C080E0DF91CF911F910F918A
:101730000895CF93DF93EC0188819981892B29F05B
:101740008A819B818617970760F4CE010E947F0BE8
:10175000882341F08C819D81892B19F4E881F981DE
:10176000108281E0DF91CF910895EF92FF920F9365
:101770001F93CF93DF93EC017B018A01BA010E9492
:10178000990B811104C0CE010E946D0B07C01D830F
:101790000C83B701888199810E94320ECE01DF91BE
:1017A000CF911F910F91FF90EF900895FC0111824E
:1017B000108213821282158214826115710559F00C
:1017C000FB0101900020E9F7AF0141505109461B90
:1017D000570B0C94B50B08950895A1E21A2EAA1B7D
:1017E000BB1BFD010DC0AA1FBB1FEE1FFF1FA217D1
:1017F000B307E407F50720F0A21BB30BE40BF50BCE
:10180000661F771F881F991F1A9469F76095709556
:10181000809590959B01AC01BD01CF010895EE0F1D
:10182000FF1F0590F491E02D19940790F691E02D9B
:101830001994CF93DF938230910510F482E090E009
:10184000E0917C04F0917D0420E030E0A0E0B0E085
:10185000309739F14081518148175907B8F048173E
:10186000590771F482819381109729F013969C9304
:101870008E9312972CC090937D0480937C0427C094
:101880002115310531F04217530718F0A901DB018A
:1018900001C0EF019A01BD01DF010280F381E02D5B
:1018A000D7CF21153105F9F0281B390B243031052C
:1018B00080F48A819B816115710521F0FB0193837E
:1018C000828304C090937D0480937C04FE01329651
:1018D00044C0FE01E20FF31F81939193225031091E
:1018E000398328833AC020917A0430917B04232BDA
:1018F00041F4209102023091030230937B04209343
:101900007A0420910002309101022115310541F441
:101910002DB73EB74091040250910502241B350BB0
:10192000E0917A04F0917B04E217F307A0F42E1BF8
:101930003F0B2817390778F0AC014E5F5F4F241733
:10194000350748F04E0F5F1F50937B0440937A0495
:101950008193919302C0E0E0F0E0CF01DF91CF915D
:101960000895CF93DF93009709F487C0FC01329765
:1019700013821282C0917C04D0917D04209781F45F
:1019800020813181280F391F80917A0490917B0446
:101990008217930779F5F0937B04E0937A046DC086
:1019A000DE0120E030E0AE17BF0750F412964D91F3
:1019B0005C9113979D014115510509F1DA01F3CFAF
:1019C000B383A28340815181840F951F8A179B079F
:1019D00071F48D919C911197840F951F02969183BC
:1019E000808312968D919C91139793838283211506
:1019F000310529F4F0937D04E0937C043EC0D901C5
:101A00001396FC93EE9312974D915D91A40FB51F21
:101A1000EA17FB0779F480819181840F951F029664
:101A2000D90111969C938E938281938113969C93F6
:101A30008E931297E0E0F0E08A819B81009719F085
:101A4000FE01EC01F9CFCE01029628813981820F87
:101A5000931F20917A0430917B042817390769F489
:101A6000309729F410927D0410927C0402C01382F6
:101A70001282D0937B04C0937A04DF91CF910895B2
:101A80006F927F928F929F92AF92BF92CF92DF928E
:101A9000EF92FF920F931F93CF93DF93EC01CB0153
:101AA000209781F4DF91CF911F910F91FF90EF90DC
:101AB000DF90CF90BF90AF909F908F907F906F906E
:101AC0000C94190CFE01E60FF71F9E0122503109FC
:101AD000E217F30708F4ACC0D9010D911C911197DE
:101AE00006171707B8F00530110508F49FC0A801C4
:101AF000445051094617570708F498C0025011097D
:101B0000061B170B019311936D937C93CF010E94D9
:101B1000B10C8CC05B01A01AB10A4E01800E911E5F
:101B2000A0917C04B0917D04612C712C60E070E088
:101B3000109709F449C0A815B905C9F5ED90FC90B6
:101B40001197670142E0C40ED11CCA14DB0478F17E
:101B500047018A189B08640142E0C40ED11C12960A
:101B6000BC9012971396AC91B5E0CB16D10440F01F
:101B7000B282A38391828082D9018D939C9309C004
:101B80000E5F1F4F0E0D1F1DF90111830083EB2DFA
:101B9000FA2F6115710531F0DB011396FC93EE937A
:101BA000129744C0F0937D04E0937C043FC06D9194
:101BB0007C9111976616770608F43B01BD011296D9
:101BC0000D90BC91A02DB4CF60917A0470917B04EC
:101BD00068157905E9F468167906D0F44091000299
:101BE000509101024115510541F44DB75EB7609126
:101BF000040270910502461B570BE417F507C0F469
:101C0000F0937B04E0937A04F901918380830EC002
:101C10000E94190C7C01009759F0A801BE010E9496
:101C2000290ECE010E94B10CC70104C0CE0102C032
:101C300080E090E0DF91CF911F910F91FF90EF90A6
:101C4000DF90CF90BF90AF909F908F907F906F90DC
:101C50000895FB01DC0102C001900D9241505040FB
:101C6000D8F70895FB01DC0101900D920020E1F707
:101C7000089512E0C6E8D2E000E006C0229701090C
:101C8000FE010BBF0E94150CC838D10780E0080781
:061C9000A9F7F894FFCF54
:101C960000007E0480000100000021222324171981
:101CA6001B1D3132334134353642373839432A30F9
:101CB60023440D000C000A0009000800020006007B
:101CC6000500564D4450565F317C315F564D4450A9
:101CD600560D0A00564D4450455F31007C005F5654
:101CE6004D4450450D0A00000000008505BB0A560C
:101CF6004D4450435F005F564D4450430D0A004526
:101D060072726F723A20417474656D707420746FCC
:101D160020736574206120726561642D6F6E6C7925
:101D2600207661726961626C65206F7220646174ED
:101D3600612074797065206E6F7420737570706F92
:101D4600727465640D0A00000000003709BB0A8A38
:081D560008A308950815090017
:00000001FF
