:100000000C9441010C9472010C9472010C947201D5
:100010000C9472010C9472010C9472010C94720194
:100020000C9472010C9472010C9472010C94720184
:100030000C9472010C9472010C9472010C94720174
:100040000C9472010C9433030C9472010C947201A1
:100050000C9472010C9472010C9472010C941906A8
:100060000C9472010C945E090C9494090C94720126
:100070000C9472010C9472010C9472010C94720134
:100080000C9461030C9472010C9472010C94720133
:100090000C9472010C9472010C9472010C94720114
:1000A0000C9472010C9472010C948F030C947201E5
:1000B0000C9472010C9472010C9472010C94BD03A7
:1000C0000C9472010C9472010C9472010C947201E4
:1000D0000C9472010C9472010C9472010C947201D4
:1000E0000C94720140074307320736073C077A0732
:1000F00047074B075107550759075F07630767070E
:100100007A076D07710775070C94BE090C94750882
:100110000C9497080C9471070C947A070C94F507CB
:100120000C9447070C9443070C944B070C94EA0774
:100130000C9455070C943C070C9436070C945F0202
:100140000C9432070C9417080C9467070C941B0A44
:100150000C94C8090C9403080C9451070C946D0777
:100160000C9475070C9440070C9459070C944D059A
:100170000C945F070C94630700000A0B02090C0D36
:100180000E0807030401000000000000000000004A
:10019000000000000000000000000000000000005F
:1001A000000000001211100000000000000000001C
:1001B000000000000000000000000000000001023C
:1001C0001020200808102040102040800201020169
:1001D0000804020101020408102040808040201021
:1001E000080402018004020180402010080402017A
:1001F00008040201010204081020408001020408E2
:1002000010204080050505050705080808080202BA
:1002100002020A0A080804040404010101010101A0
:1002200001010303030303030303040707070C0C83
:100230000C0C0C0C0C0C020202020606060606064A
:1002400006060B0B0B0B0B0B0B0B00002200250003
:1002500028002B002E0031003400020100000501AF
:1002600008010B0100002100240027002A002D00B6
:100270003000330001010000040107010A015F02A0
:10028000C80911241FBECFEFD1E2DEBFCDBF00E011
:100290000CBF12E0A0E0B2E0EEEEF5E100E00BBF33
:1002A00002C007900D92AA3AB107D9F724E0AAEA52
:1002B000B2E001C01D92AC33B207E1F712E0C2E830
:1002C000D2E000E006C022970109FE010BBF0E94A8
:1002D000F10ACE37D10780E00807A9F70E940C0A7F
:1002E0000C94F50A0C94000040ED57E060E070E0DB
:1002F0008FE593E00E94800520E032EC41E050E081
:100300006FE973E08FE593E00E9493058FE593E03A
:100310000E947D0564E172E08091900390919103C9
:100320000E94590A6AE070E080E090E00E94920624
:1003300041E060E08FE593E00E94FE0560E080917F
:1003400012020E947B0760E0809110020E947B07EE
:1003500061E080910E020E947B0761E080910C02B7
:100360000E947B0761E080910A020E947B0761E0A6
:10037000809108020E947B0760E0809106020E9443
:100380007B0760E0809104020C947B07CF92DF92A0
:10039000EF92FF920F931F930E946306672B682BC7
:1003A000692B41F40E946306623071058105910555
:1003B00008F47EC08FE593E00E9453056093C2026B
:1003C0007093C3028093C4029093C5020091C60249
:1003D0001091C7022091C8023091C90260177107BD
:1003E0008207930740F46093C6027093C70280931C
:1003F000C8029093C9020091C6021091C7022091D1
:10040000C8023091C9026B017C01C01AD10AE20A0C
:10041000F30A970186010A3F11052105310508F409
:1004200047C06093C6027093C7028093C80290933E
:10043000C9028FE593E00E947D0566E272E080913B
:100440009003909191030E94590A6EE272E08091AC
:100450009003909191030E94590A0E946306AB0198
:10046000BC012AE030E080919003909191030E94BA
:10047000B40A60E372E080919003909191030E942E
:10048000590A65E070E080E090E00E9492066AE020
:1004900070E080E090E00E94920661E08FE593E0DA
:1004A0001F910F91FF90EF90DF90CF900C94C005BB
:1004B0001F910F91FF90EF90DF90CF900895CF9212
:1004C000EF920F9382E0C82E93E0E92E04E025E03E
:1004D0004BE06CE08AEA92E00E942D050F91EF90CC
:1004E000CF900895CF92DF92EF92FF920F931F93D8
:1004F000CF93DF936C018B017A01EC01C553DD4F83
:10050000888187FF04C0FB011182108223C02CE088
:100510002C9DC0012D9D900D11242881AC01420F0E
:10052000511D27FD5A952091CA0230E0421753070A
:100530008CF42881AC01420F511D27FD5A959A0178
:10054000FA01EE0FFF1FE20FF31FE153FD4F208171
:1005500026FD19C088818F5F88838CE08C9D900177
:100560008D9D300D11248881A901480F511D87FDF3
:100570005A958091CA0290E048175907B4F48881CF
:100580008C303CF112C02881820F911D27FD9A9575
:10059000FC01EE0FFF1FE80FF91FE153FD4F8081B3
:1005A00060E08F730E94B407D5CFF80180819181FC
:1005B000049680349C4918F480E49CE904C0F80156
:1005C000808191810496F701918380838FEF8883E6
:1005D00041C0F801808191814881B901640F711D8A
:1005E00047FD7A95AB01FB01EE0FFF1FE40FF51FEE
:1005F000E153FD4F41815281840F951FF701918393
:1006000080838881A901480F511D87FD5A95FA0101
:10061000EE0FFF1FE40FF51FE153FD4F808186FFB2
:1006200019C08881280F311D87FD3A95F901EE0F19
:10063000FF1FE20FF31FE153FD4F808161E08F73D5
:10064000DF91CF911F910F91FF90EF90DF90CF90AE
:100650000C94B407DF91CF911F910F91FF90EF9011
:10066000DF90CF9008951F920F920FB60F92112432
:100670000BB60F922F933F934F935F936F937F939C
:100680008F939F93AF93BF93EF93FF9348E850E00E
:1006900064E870E081E090E00E947202FF91EF91C7
:1006A000BF91AF919F918F917F916F915F914F918A
:1006B0003F912F910F900BBE0F900FBE0F901F9088
:1006C00018951F920F920FB60F9211240BB60F922E
:1006D0002F933F934F935F936F937F938F939F934A
:1006E000AF93BF93EF93FF9348E950E064E970E064
:1006F00082E090E00E947202FF91EF91BF91AF9172
:100700009F918F917F916F915F914F913F912F9129
:100710000F900BBE0F900FBE0F901F9018951F9259
:100720000F920FB60F9211240BB60F922F933F9397
:100730004F935F936F937F938F939F93AF93BF93E9
:10074000EF93FF9348EA50E064EA70E083E090E0C2
:100750000E947202FF91EF91BF91AF919F918F9193
:100760007F916F915F914F913F912F910F900BBEB1
:100770000F900FBE0F901F9018951F920F920FB6FB
:100780000F9211240BB60F922F933F934F935F93C9
:100790006F937F938F939F93AF93BF93EF93FF9349
:1007A00048E251E064E271E080E090E00E94720271
:1007B000FF91EF91BF91AF919F918F917F916F9139
:1007C0005F914F913F912F910F900BBE0F900FBEF5
:1007D0000F901F901895CF93DF93EC0160E08E810E
:1007E0000E94B40781E090E00E94BA0661E08E8129
:1007F0000E94B40781E090E00E94BA0660E08E811A
:100800000E94B40784E690E0DF91CF910C94BA0681
:10081000EF92FF920F931F93CF93DF938C01C0E071
:10082000D0E0E62EF12CB7010C2E02C0759567952D
:100830000A94E2F76170F801EC0FFD1F87810E94B6
:10084000B4072196C430D10571F7C801DF91CF916B
:100850001F910F91FF90EF900C94EB03EF92FF929A
:100860000F931F93CF93DF938C01C0E0D0E0E62E6F
:10087000F12CB7010C2E02C0759567950A94E2F72A
:100880006170F801EC0FFD1F87810E94B40721966B
:10089000C830D10571F7C801DF91CF911F910F9139
:1008A000FF90EF900C94EB031F93CF93DF93EC0139
:1008B000162F642F8C810E94B4078D818F3F19F011
:1008C00060E00E94B4078F85612F84FF06C0CE01CF
:1008D000DF91CF911F910C942E0470E084E0759508
:1008E00067958A95E1F7CE010E940804612FCE0139
:1008F000DF91CF911F910C94080440E00C945404B4
:1009000061E00E947D0480ED97E00C94BA06FC0142
:100910006089262F2460208B6C600C947D040F93DB
:100920001F93CF93DF93EC01423018F08F858860DE
:100930008F874B8B1C8A80E48D8B6E8B70E0605CA4
:100940007F4F6F8B222329F0413019F48F8584600B
:100950008F8761E08C810E947B078D818F3F19F02A
:1009600061E00E947B0761E08E810E947B0700E0CE
:1009700010E08F8584FF03C088E090E002C084E02F
:1009800090E00817190754F4FE01E00FF11F61E031
:1009900087810E947B070F5F1F4FEBCF80E593ECB1
:1009A0000E94BA0660E08C810E94B40760E08E81EC
:1009B0000E94B4078D818F3F19F060E00E94B40758
:1009C0006F8564FD1DC063E0CE010E94080484E9C8
:1009D00091E10E94BA0663E0CE010E94080484E916
:1009E00091E10E94BA0663E0CE010E94080486E904
:1009F00090E00E94BA0662E0CE010E94080416C090
:100A00006062CE010E947D0484E991E10E94BA06F1
:100A10006F856062CE010E947D0486E990E00E94AD
:100A2000BA066F856062CE010E947D046F856062A8
:100A3000CE010E947D0484E0888BCE010E94870451
:100A4000CE010E94800482E0898B66E0CE01DF91B6
:100A5000CF911F910F910C947D04CF92EF920F9341
:100A6000FC01138212828DE392E091838083648380
:100A70008FEF8583468327830087E186C2861386AE
:100A8000148615861686178620E041E060E1CF01C6
:100A90000F91EF90CF900C948F0441E00E9454048A
:100AA00081E090E008950C9463060F931F93CF9319
:100AB000DF93EC01662359F00E94630669837A8311
:100AC0008B839C83DF91CF911F910F9108950E949A
:100AD000630609811A812B813C81601B710B820B9B
:100AE000930B643671058105910530F763E070E082
:100AF00080E090E00E949206EACF60E00C945505F9
:100B0000FC0113AA14AA15AA16AA11821282138232
:100B10001482411551056105710521F0CB01BA011F
:100B20000C9492060895FB01BA01A901DC01D2964A
:100B3000FC93EE93D19726E0CF010C94FC081F9311
:100B4000CF93DF93EC01162F61E472E089A99AA993
:100B50000E94590A4AE050E0612F89A99AA90E948F
:100B6000C10A68E472E089A99AA90E94590A62E35D
:100B700070E080E090E0DF91CF911F910C9492069D
:100B80001F93CF93DF93EC01162F8D81882389F17A
:100B900089A99AA9DC01ED91FC910480F581E02DF1
:100BA0001995892BA9F307C02637310519F1283586
:100BB000310509F41D8289A99AA9DC01ED91FC9106
:100BC0000480F581E02D19951816190694F489A969
:100BD0009AA9DC01ED91FC910680F781E02D199531
:100BE0009C01332723363105F9F6612FCE010E948F
:100BF0009F0583E6DF91CF911F9108950F931F9377
:100C0000CF93DF931F92CDB7DEB78C01662349F0F7
:100C100081E0F801858360E0C80149830E94C00536
:100C20004981F80145830F90DF91CF911F910F917A
:100C300008951F920F920FB60F9211242F933F9396
:100C40008F939F93AF93BF93809197039091980355
:100C5000A0919903B0919A033091960323E0230F5A
:100C60002D3720F40196A11DB11D05C026E8230FE4
:100C70000296A11DB11D2093960380939703909334
:100C80009803A0939903B0939A0380919B0390914A
:100C90009C03A0919D03B0919E030196A11DB11DDF
:100CA00080939B0390939C03A0939D03B0939E031A
:100CB000BF91AF919F918F913F912F910F900FBE58
:100CC0000F901F9018952FB7F8946091970370912B
:100CD00098038091990390919A032FBF08953FB78D
:100CE000F89480919B0390919C03A0919D03B091F7
:100CF0009E0326B5A89B05C02F3F19F00196A11DA4
:100D0000B11D3FBF6627782F892F9A2F620F711D63
:100D1000811D911D42E0660F771F881F991F4A951C
:100D2000D1F70895CF92DF92EF92FF92CF93DF93A6
:100D30006B017C010E946F06EB01C114D104E10438
:100D4000F10489F00E94C80A0E946F066C1B7D0B9B
:100D5000683E734090F381E0C81AD108E108F108B9
:100D6000C851DC4FEACFDF91CF91FF90EF90DF9039
:100D7000CF9008958230910538F0880F991F880F21
:100D8000991F05970197F1F70895789484B58260CB
:100D900084BD84B5816084BD85B5826085BD85B51F
:100DA000816085BDEEE6F0E0808181608083E1E8CE
:100DB000F0E0108280818260808380818160808306
:100DC000E0E8F0E0808181608083E1EBF0E0808109
:100DD00084608083E0EBF0E0808181608083E1E9E2
:100DE000F0E0808182608083808181608083E0E99F
:100DF000F0E0808181608083E1EAF0E080818260C0
:100E00008083808181608083E0EAF0E0808181607E
:100E10008083E1E2F1E08081826080838081816073
:100E20008083E0E2F1E0808181608083EAE7F0E0A6
:100E30008081846080838081826080838081816002
:100E400080838081806880831092C100089590E043
:100E5000FC013197E231F10508F04CC0EE58FF4F2C
:100E60000C94EB0A809180008F7703C08091800002
:100E70008F7D80938000089580918000877FF9CFD7
:100E800084B58F7702C084B58F7D84BD089580912D
:100E9000B0008F7703C08091B0008F7D8093B00049
:100EA0000895809190008F7707C0809190008F7D8A
:100EB00003C080919000877F809390000895809177
:100EC000A0008F7707C08091A0008F7D03C0809124
:100ED000A000877F8093A0000895809120018F77E4
:100EE00007C0809120018F7D03C080912001877F02
:100EF000809320010895CF93DF9390E0FC01E254AA
:100F0000FE4F2491FC01EC5FFD4F8491882349F151
:100F100090E0880F991FFC01EC59FD4FA591B49109
:100F2000865B9D4FFC01C591D4919FB7611108C0AC
:100F3000F8948C91209582238C93888182230AC017
:100F4000623051F4F8948C91322F309583238C9336
:100F50008881822B888304C0F8948C91822B8C9397
:100F60009FBFDF91CF9108950F931F93CF93DF938E
:100F70001F92CDB7DEB7282F30E0F901E858FE4FB9
:100F80008491F901E254FE4F1491F901EC5FFD4F99
:100F900004910023C9F0882321F069830E94270768
:100FA0006981E02FF0E0EE0FFF1FE65BFD4FA5919A
:100FB000B4919FB7F8948C91611103C0109581236F
:100FC00001C0812B8C939FBF0F90DF91CF911F9118
:100FD0000F910895FC01818D228D90E0805C9F4FE0
:100FE000821B91098F7399270895FC01918D828D41
:100FF000981731F0828DE80FF11D858D90E00895EE
:101000008FEF9FEF0895FC01918D828D981761F00D
:10101000828DDF01A80FB11D5D968C91928D9F5F2F
:101020009F73928F90E008958FEF9FEF08958EEB5E
:1010300099E0892B41F080E090E0892B21F00E941B
:10104000BE09811125C080E090E0892B41F080E04D
:1010500090E0892B21F00E94000081111CC080E0EB
:1010600090E0892B41F080E090E0892B21F00E94F4
:101070000000811113C080E090E0892BA1F080E096
:1010800090E0892B81F00E94000081110AC0089530
:101090000E940000D8CF0E940000E1CF0E94000013
:1010A000EACF0C9400000895FC01848DDF01A80FA5
:1010B000B11DA35ABF4F2C91848D90E001968F7380
:1010C0009927848FA689B7892C93A089B1898C919F
:1010D00080648C93938D848D981306C00288F38965
:1010E000E02D80818F7D80830895CF93DF93EC0185
:1010F000888D8823C9F0EA89FB89808185FD05C038
:10110000A889B9898C9186FD0FC00FB607FCF5CF71
:10111000808185FFF2CFA889B9898C9185FFEDCFB9
:10112000CE010E945408E7CFDF91CF910895CF926E
:10113000DF92FF920F931F93CF93DF931F92CDB750
:10114000DEB76C0181E0D60158968C9358975B9678
:101150009C915B975C968C915C97981307C0509616
:10116000ED91FC915197808185FD2EC0F601038D94
:1011700010E00F5F1F4F0F731127F02EF601848DC3
:10118000F81211C00FB607FCF9CFD6015096ED91B9
:10119000FC915197808185FFF1CFC60169830E9440
:1011A00054086981EBCF838DE80FF11DE35AFF4F9F
:1011B0006083D6015B960C935B975296ED91FC9100
:1011C0005397808180620CC0D6015696ED91FC91B8
:1011D000579760835096ED91FC9151978081806480
:1011E000808381E090E00F90DF91CF911F910F916C
:1011F000FF90DF90CF900895BF92CF92DF92EF9251
:10120000FF92CF93DF93EC016A017B01B22EE88954
:10121000F98982E08083411581EE580761057105E7
:10122000A1F060E079E08DE390E0A70196010E94D3
:10123000C90A2150310941095109569547953795F9
:101240002795211580E1380798F0E889F9891082FF
:1012500060E874E88EE190E0A70196010E94C90A57
:1012600021503109410951095695479537952795E0
:10127000EC85FD853083EE85FF852083188EEC8913
:10128000FD89B082EA89FB89808180618083EA8957
:10129000FB89808188608083EA89FB8980818068FE
:1012A0008083EA89FB8980818F7D8083DF91CF9164
:1012B000FF90EF90DF90CF90BF9008951F920F9214
:1012C0000FB60F9211240BB60F922F938F939F930B
:1012D000EF93FF93E091AF03F091B0038081E09131
:1012E000B503F091B60382FD12C090818091B803DE
:1012F0008F5F8F732091B903821751F0E091B8038B
:10130000F0E0E156FC4F958F8093B80301C08081D7
:10131000FF91EF919F918F912F910F900BBE0F90A6
:101320000FBE0F901F9018951F920F920FB60F923D
:1013300011240BB60F922F933F934F935F936F93AC
:101340007F938F939F93AF93BF93EF93FF938FE917
:1013500093E00E945408FF91EF91BF91AF919F914C
:101360008F917F916F915F914F913F912F910F904E
:101370000BBE0F900FBE0F901F9018958FE993E052
:101380000E94EA0721E0892B09F420E0822F0895CA
:101390001092A2031092A10388EE93E0A0E0B0E0C7
:1013A0008093A3039093A403A093A503B093A603F3
:1013B0008DE992E09093A00380939F0385EC90E0E9
:1013C0009093AC038093AB0384EC90E09093AE03D6
:1013D0008093AD0380EC90E09093B0038093AF03D3
:1013E00081EC90E09093B2038093B10382EC90E0A3
:1013F0009093B4038093B30386EC90E09093B6038C
:101400008093B5031092B8031092B9031092BA03F7
:101410001092BB03089508950E94C5060E940B0A0E
:101420000E947401C7E1D8E00E94C6012097E1F351
:101430000E941708F9CFCF92DF92EF92FF920F939D
:101440001F93CF93DF937C016A01EB0100E010E072
:101450000C151D0571F06991D701ED91FC9101907A
:10146000F081E02DC7011995892B19F00F5F1F4FEF
:10147000EFCFC801DF91CF911F910F91FF90EF90B7
:10148000DF90CF9008956115710581F0DB010D901B
:101490000020E9F7AD0141505109461B570BDC0113
:1014A000ED91FC910280F381E02D199480E090E0B1
:1014B00008950C94430A8F929F92AF92BF92CF925D
:1014C000DF92EF92FF920F931F93CF93DF93CDB7ED
:1014D000DEB7A1970FB6F894DEBF0FBECDBF7C017B
:1014E000C42EE52FCB01D22E19A221E02D1510F02C
:1014F0002AE0D22E8E010F5D1F4F8D2C912CA12C36
:10150000B12C6C2D7E2FA50194010E94C90A8C2D4F
:10151000D29E80191124015011098A3014F4805D83
:1015200001C0895CF8018083211531054105510511
:1015300021F0C22EE32FCA01E4CFB801C7010E94F7
:10154000430AA1960FB6F894DEBF0FBECDBFDF9160
:10155000CF911F910F91FF90EF90DF90CF90BF90B0
:10156000AF909F908F9008952115310541F4DC01D3
:10157000ED91FC910190F081E02D642F19940C9471
:101580005B0A9A01462F50E060E070E00C94B40AC8
:101590000895A1E21A2EAA1BBB1BFD010DC0AA1FB4
:1015A000BB1FEE1FFF1FA217B307E407F50720F0CC
:1015B000A21BB30BE40BF50B661F771F881F991F47
:1015C0001A9469F760957095809590959B01AC0190
:1015D000BD01CF010895EE0FFF1F0590F491E02D9E
:0E15E00019940790F691E02D1994F894FFCF1E
:1015EE00010000000D000C000A00090008000200B6
:1015FE0006000500564D4450565F317C315F564D06
:10160E004450560D0A00564D4450455F31007C0043
:10161E005F564D4450450D0A00000000004D051B5D
:10162E000A564D4450435F005F564D4450430D0AD9
:10163E00004572726F723A20417474656D70742039
:10164E00746F20736574206120726561642D6F6EF6
:10165E006C79207661726961626C65206F722064AC
:10166E006174612074797065206E6F74207375706B
:10167E00706F727465640D0A000000000097081BFD
:0A168E000AEA070308F507750800D3
:00000001FF
