:100000000C944E010C947F010C947F010C947F01A1
:100010000C947F010C947F010C947F010C947F0160
:100020000C947F010C947F010C947F010C947F0150
:100030000C947F010C947F010C947F010C947F0140
:100040000C947F010C94EF020C947F010C947F01BF
:100050000C947F010C947F010C947F010C943B065F
:100060000C947F010C94A9090C94DF090C947F0176
:100070000C947F010C947F010C947F010C947F0100
:100080000C941D030C947F010C947F010C947F0150
:100090000C947F010C947F010C947F010C947F01E0
:1000A0000C947F010C947F010C944B030C947F0102
:1000B0000C947F010C947F010C947F010C947903C4
:1000C0000C947F010C947F010C947F010C947F01B0
:1000D0000C947F010C947F010C947F010C947F01A0
:1000E0000C947F0162076507540758075E079C0759
:1000F00069076D07730777077B07810785078907FE
:100100009C078F07930797070C94130A0C945407C6
:100110000C9435080C9458070C9440080C94730701
:100120000C949C070C948F070C9477070C9465072C
:100130000C9489070C94E2080C9462080C949307C1
:100140000C9469070C9462070C946D070C94660A72
:100150000C944E080C94C0080C94090A0C940905E0
:100160000C9485070C9481070C945E070C947B0714
:100170000C940E020C94970700000A0B02090C0D58
:100180000E0807030401000000000000000000004A
:10019000000000000000000000000000000000005F
:1001A000000000001211100000000000000000001C
:1001B000000000000000000000000000000001023C
:1001C0001020200808102040102040800201020169
:1001D0000804020101020408102040808040201021
:1001E000080402018004020180402010080402017A
:1001F00008040201010204081020408001020408E2
:1002000010204080050505050705080808080202BA
:1002100002020A0A080804040404010101010101A0
:1002200001010303030303030303040707070C0C83
:100230000C0C0C0C0C0C020202020606060606064A
:1002400006060B0B0B0B0B0B0B0B00002000230007
:10025000260029002C002F003200000100000301BD
:100260000601090100002200250028002B002E00B5
:100270003100340002010000050108010B010000FB
:100280002100240027002A002D0030003300010146
:100290000000040107010A010E02130A11241FBE07
:1002A000CFEFD1E2DEBFCDBF00E00CBF12E0A0E097
:1002B000B2E0E4E8F6E100E00BBF02C007900D9267
:1002C000AE3AB107D9F724E0AEEAB2E001C01D9220
:1002D000A035B207E1F712E0CCE9D2E000E006C0B9
:1002E00022970109FE010BBF0E943C0BC839D107C0
:1002F00080E00807A9F70E94570A0C94400B0C9461
:10030000000040ED57E060E070E083E793E00E947A
:10031000A20520E835E240E050E063EB73E083E7BC
:1003200093E00E94B50583E793E00E949F056CE28D
:1003300072E08091A4039091A5030E94A40A6AE050
:1003400070E080E090E00E94B40641E060E083E766
:1003500093E00E94200660E080912A020E949D079F
:1003600060E0809128020E949D0761E08091260252
:100370000E949D0761E0809124020E949D0761E038
:10038000809122020E949D0761E0809120020E94DC
:100390009D0760E080911E020E949D0760E08091B1
:1003A0001C020E949D0720E042E060E182EC92E0A6
:1003B0000E944B0426E040E855E260E070E083EBE9
:1003C00093E00C94470980912A020E940C0821E0D6
:1003D000892B09F420E02093DD02809128020E94FD
:1003E0000C0821E0892B09F420E02093DC028091A5
:1003F0001E020E940C0821E0892B09F420E02093C2
:10040000DB0280911C020E940C0821E0892B09F478
:1004100020E02093DA0208950C94E301CF92EF924A
:100420000F9380E2C82E9EE1E92E0CE12AE148E11B
:1004300066E182EC92E00E94E90424E0E22E04E00E
:1004400024E032E048E052E06CE072E08EEA92E0B4
:100450000E9452050F91EF90CF900895CF92DF92B6
:10046000EF92FF920F931F93CF93DF936C018B0159
:100470007A01EC01C152DD4F888187FF04C0FB0186
:100480001182108223C02CE02C9DC0012D9D900D67
:1004900011242881AC01420F511D27FD5A9520914E
:1004A000DE0230E0421753078CF42881AC01420F82
:1004B000511D27FD5A959A01FA01EE0FFF1FE20F19
:1004C000F31FED51FD4F208126FD19C088818F5FFC
:1004D00088838CE08C9D90018D9D300D1124888146
:1004E000A901480F511D87FD5A958091DE0290E0C9
:1004F00048175907B4F488818C303CF112C0288128
:10050000820F911D27FD9A95FC01EE0FFF1FE80F4A
:10051000F91FED51FD4F808160E08F730E94D60777
:10052000D5CFF80180819181049680349C4918F4DC
:1005300080E49CE904C0F801808191810496F70170
:10054000918380838FEF888341C0F80180819181FE
:100550004881B901640F711D47FD7A95AB01FB011C
:10056000EE0FFF1FE40FF51FED51FD4F418152814A
:10057000840F951FF701918380838881A901480F1B
:10058000511D87FD5A95FA01EE0FFF1FE40FF51F6D
:10059000ED51FD4F808186FF19C08881280F311DE4
:1005A00087FD3A95F901EE0FFF1FE20FF31FED51A2
:1005B000FD4F808161E08F73DF91CF911F910F918B
:1005C000FF90EF90DF90CF900C94D607DF91CF9102
:1005D0001F910F91FF90EF90DF90CF9008951F92A1
:1005E0000F920FB60F9211240BB60F922F933F93D9
:1005F0004F935F936F937F938F939F93AF93BF932B
:10060000EF93FF9348E850E064E870E081E090E009
:100610000E942E02FF91EF91BF91AF919F918F9118
:100620007F916F915F914F913F912F910F900BBEF2
:100630000F900FBE0F901F9018951F920F920FB63C
:100640000F9211240BB60F922F933F934F935F930A
:100650006F937F938F939F93AF93BF93EF93FF938A
:1006600048E950E064E970E082E090E00E942E02E8
:10067000FF91EF91BF91AF919F918F917F916F917A
:100680005F914F913F912F910F900BBE0F900FBE36
:100690000F901F9018951F920F920FB60F92112472
:1006A0000BB60F922F933F934F935F936F937F936C
:1006B0008F939F93AF93BF93EF93FF9348EA50E0DC
:1006C00064EA70E083E090E00E942E02FF91EF91D7
:1006D000BF91AF919F918F917F916F915F914F915A
:1006E0003F912F910F900BBE0F900FBE0F901F9058
:1006F00018951F920F920FB60F9211240BB60F92FE
:100700002F933F934F935F936F937F938F939F9319
:10071000AF93BF93EF93FF9348E251E064E271E03F
:1007200080E090E00E942E02FF91EF91BF91AF9187
:100730009F918F917F916F915F914F913F912F91F9
:100740000F900BBE0F900FBE0F901F901895CF9378
:10075000DF93EC0160E08E810E94D60781E090E09B
:100760000E94DC0661E08E810E94D60781E090E065
:100770000E94DC0660E08E810E94D60784E690E04D
:10078000DF91CF910C94DC06EF92FF920F931F93B1
:10079000CF93DF938C01C0E0D0E0E62EF12CB701BF
:1007A0000C2E02C0759567950A94E2F76170F80106
:1007B000EC0FFD1F87810E94D6072196C430D1051A
:1007C00071F7C801DF91CF911F910F91FF90EF90CA
:1007D0000C94A703EF92FF920F931F93CF93DF9395
:1007E0008C01C0E0D0E0E62EF12CB7010C2E02C047
:1007F000759567950A94E2F76170F801EC0FFD1F9B
:1008000087810E94D6072196C830D10571F7C801AB
:10081000DF91CF911F910F91FF90EF900C94A70360
:100820001F93CF93DF93EC01162F642F8C810E94CE
:10083000D6078D818F3F19F060E00E94D6078F8523
:10084000612F84FF06C0CE01DF91CF911F910C94E0
:10085000EA0370E084E0759567958A95E1F7CE012B
:100860000E94C403612FCE01DF91CF911F910C94A0
:10087000C40340E00C94100461E00E94390480ED50
:1008800097E00C94DC06FC016089262F2460208B05
:100890006C600C9439040F931F93CF93DF93EC019A
:1008A000423018F08F8588608F874B8B1C8A80E4DC
:1008B0008D8B6E8B70E0605C7F4F6F8B222329F0F5
:1008C000413019F48F8584608F8761E08C810E94AC
:1008D0009D078D818F3F19F061E00E949D0761E0C7
:1008E0008E810E949D0700E010E08F8584FF03C089
:1008F00088E090E002C084E090E00817190754F403
:10090000FE01E00FF11F61E087810E949D070F5FEC
:100910001F4FEBCF80E593EC0E94DC0660E08C81FA
:100920000E94D60760E08E810E94D6078D818F3F9E
:1009300019F060E00E94D6076F8564FD1DC063E07A
:10094000CE010E94C40384E991E10E94DC0663E0C9
:10095000CE010E94C40384E991E10E94DC0663E0B9
:10096000CE010E94C40386E990E00E94DC0662E0AA
:10097000CE010E94C40316C06062CE010E943904F9
:1009800084E991E10E94DC066F856062CE010E94DD
:10099000390486E990E00E94DC066F856062CE0132
:1009A0000E9439046F856062CE010E94390484E0A0
:1009B000888BCE010E944304CE010E943C0482E059
:1009C000898B66E0CE01DF91CF911F910F910C943E
:1009D0003904CF92EF920F93FC011382128282E4CA
:1009E00092E09183808364838FEF8583468327839E
:1009F0000087E186C28613861486158616861786BA
:100A000020E041E060E1CF010F91EF90CF900C9496
:100A10004B0441E00E94100481E090E00895FF92B1
:100A20000F931F93CF93DF93EC01F12C0F2D10E068
:100A30008E8182958F7090E00817190794F4EC81ED
:100A4000FD81E00FF11F61E080810E949D07EC8134
:100A5000FD81E00FF11F60E080810E94D607F394D2
:100A6000E5CFF12C0F2D10E08E818F7090E00817EC
:100A7000190794F4EA81FB81E00FF11F60E08081A7
:100A80000E949D07EA81FB81E00FF11F61E08081F8
:100A90000E94D607F394E6CFDF91CF911F910F917B
:100AA000FF900895EF920F93FC01538342833583A7
:100AB0002483E29480EFE8220F700E290683108AC7
:100AC000118A7183608381E0828B82E090E093875A
:100AD000828784EF91E09587848717861686108633
:100AE0001782138ACF010F91EF900C940F050F938B
:100AF0001F93CF93DF93EC01662359F00E94850684
:100B000069837A838B839C83DF91CF911F910F91AF
:100B100008950E94850609811A812B813C81601B02
:100B2000710B820B930B643671058105910530F7CB
:100B300063E070E080E090E00E94B406EACF60E0FD
:100B40000C947705FC0113AA14AA15AA16AA1182FF
:100B5000128213821482411551056105710521F03D
:100B6000CB01BA010C94B4060895FB01BA01A901A6
:100B7000DC01D296FC93EE93D19726E0CF010C9442
:100B800047091F93CF93DF93EC01162F66E472E0C1
:100B900089A99AA90E94A40A4AE050E0612F89A974
:100BA0009AA90E940C0B6DE472E089A99AA90E948F
:100BB000A40A62E370E080E090E0DF91CF911F91A2
:100BC0000C94B4061F93CF93DF93EC01162F8D8105
:100BD000882389F189A99AA9DC01ED91FC9104800F
:100BE000F581E02D1995892BA9F307C0263731052A
:100BF00019F12835310509F41D8289A99AA9DC016A
:100C0000ED91FC910480F581E02D199518161906D7
:100C100094F489A99AA9DC01ED91FC910680F781F1
:100C2000E02D19959C01332723363105F9F6612F04
:100C3000CE010E94C10583E6DF91CF911F910895F7
:100C40000F931F93CF93DF931F92CDB7DEB78C0125
:100C5000662349F081E0F801858360E0C80149839B
:100C60000E94E2054981F80145830F90DF91CF9101
:100C70001F910F9108951F920F920FB60F9211249A
:100C80002F933F938F939F93AF93BF938091AB0329
:100C90009091AC03A091AD03B091AE033091AA0343
:100CA00023E0230F2D3720F40196A11DB11D05C0AF
:100CB00026E8230F0296A11DB11D2093AA0380935D
:100CC000AB039093AC03A093AD03B093AE038091BC
:100CD000AF039091B003A091B103B091B20301961C
:100CE000A11DB11D8093AF039093B003A093B103F6
:100CF000B093B203BF91AF919F918F913F912F918C
:100D00000F900FBE0F901F9018952FB7F894609119
:100D1000AB037091AC038091AD039091AE032FBFF4
:100D200008953FB7F8948091AF039091B003A091DC
:100D3000B103B091B20326B5A89B05C02F3F19F0AF
:100D40000196A11DB11D3FBF6627782F892F9A2FCD
:100D5000620F711D811D911D42E0660F771F881F74
:100D6000991F4A95D1F70895CF92DF92EF92FF92A3
:100D7000CF93DF936B017C010E949106EB01C114BC
:100D8000D104E104F10489F00E94130B0E94910642
:100D90006C1B7D0B683E734090F381E0C81AD1084C
:100DA000E108F108C851DC4FEACFDF91CF91FF9005
:100DB000EF90DF90CF9008958230910538F0880F42
:100DC000991F880F991F05970197F1F70895789457
:100DD00084B5826084BD84B5816084BD85B5826040
:100DE00085BD85B5816085BDEEE6F0E080818160DE
:100DF0008083E1E8F0E010828081826080838081DE
:100E000081608083E0E8F0E0808181608083E1EBB5
:100E1000F0E0808184608083E0EBF0E0808181609D
:100E20008083E1E9F0E0808182608083808181605D
:100E30008083E0E9F0E0808181608083E1EAF0E096
:100E4000808182608083808181608083E0EAF0E03D
:100E5000808181608083E1E2F1E080818260808333
:100E6000808181608083E0E2F1E080818160808325
:100E7000EAE7F0E080818460808380818260808303
:100E80008081816080838081806880831092C1002E
:100E9000089590E0FC013197E231F10508F04CC073
:100EA000EE58FF4F0C94360B809180008F7703C073
:100EB000809180008F7D80938000089580918000D4
:100EC000877FF9CF84B58F7702C084B58F7D84BDCD
:100ED00008958091B0008F7703C08091B0008F7D1E
:100EE0008093B0000895809190008F7707C0809123
:100EF00090008F7D03C080919000877F8093900049
:100F000008958091A0008F7707C08091A0008F7D09
:100F100003C08091A000877F8093A00008958091F6
:100F200020018F7707C0809120018F7D03C08091C1
:100F30002001877F809320010895CF93DF9390E075
:100F4000FC01E254FE4F2491FC01EC5FFD4F8491C3
:100F5000882349F190E0880F991FFC01E258FD4F6A
:100F6000A591B4918C599D4FFC01C591D4919FB727
:100F7000611108C0F8948C91209582238C9388810C
:100F800082230AC0623051F4F8948C91322F30954C
:100F900083238C938881822B888304C0F8948C915E
:100FA000822B8C939FBFDF91CF9108950F931F9356
:100FB000CF93DF931F92CDB7DEB7282F30E0F90132
:100FC000E858FE4F8491F901E254FE4F1491F90163
:100FD000EC5FFD4F04910023C9F0882321F0698361
:100FE0000E9449076981E02FF0E0EE0FFF1FEC59E6
:100FF000FD4FA591B4919FB7F8948C91611103C0F6
:101000001095812301C0812B8C939FBF0F90DF919E
:10101000CF911F910F910895CF93DF93282F30E048
:10102000F901E858FE4F8491F901E254FE4FD49142
:10103000F901EC5FFD4FC491CC2391F081110E9426
:101040004907EC2FF0E0EE0FFF1FE65BFD4FA59187
:10105000B4912C912D2381E090E021F480E002C036
:1010600080E090E0DF91CF910895FC01818D228D89
:1010700090E0805C9F4F821B91098F7399270895A0
:10108000FC01918D828D981731F0828DE80FF11D52
:10109000858D90E008958FEF9FEF0895FC01918D6D
:1010A000828D981761F0828DDF01A80FB11D5D96CA
:1010B0008C91928D9F5F9F73928F90E008958FEF38
:1010C0009FEF089589E09AE0892B41F080E090E05D
:1010D000892B21F00E94090A811125C080E090E04F
:1010E000892B41F080E090E0892B21F00E940000E4
:1010F00081111CC080E090E0892B41F080E090E0FD
:10110000892B21F00E940000811113C080E090E043
:10111000892BA1F080E090E0892B81F00E940000F3
:1011200081110AC008950E940000D8CF0E940000DB
:10113000E1CF0E940000EACF0C9400000895FC016A
:10114000848DDF01A80FB11DA35ABF4F2C91848D50
:1011500090E001968F739927848FA689B7892C9385
:10116000A089B1898C9180648C93938D848D981320
:1011700006C00288F389E02D80818F7D80830895E9
:10118000CF93DF93EC01888D8823C9F0EA89FB892E
:10119000808185FD05C0A889B9898C9186FD0FC025
:1011A0000FB607FCF5CF808185FFF2CFA889B989FA
:1011B0008C9185FFEDCFCE010E949F08E7CFDF9194
:1011C000CF910895CF92DF92FF920F931F93CF9309
:1011D000DF931F92CDB7DEB76C0181E0D601589640
:1011E0008C9358975B969C915B975C968C915C97DF
:1011F000981307C05096ED91FC915197808185FD21
:101200002EC0F601038D10E00F5F1F4F0F731127E3
:10121000F02EF601848DF81211C00FB607FCF9CF3D
:10122000D6015096ED91FC915197808185FFF1CFC9
:10123000C60169830E949F086981EBCF838DE80F07
:10124000F11DE35AFF4F6083D6015B960C935B97C9
:101250005296ED91FC915397808180620CC0D6012B
:101260005696ED91FC91579760835096ED91FC91C5
:10127000519780818064808381E090E00F90DF91BE
:10128000CF911F910F91FF90DF90CF900895BF9263
:10129000CF92DF92EF92FF92CF93DF93EC016A013E
:1012A0007B01B22EE889F98982E08083411581EEC5
:1012B000580761057105A1F060E079E08DE390E0E9
:1012C000A70196010E94140B2150310941095109CF
:1012D0005695479537952795211580E1380798F061
:1012E000E889F989108260E874E88EE190E0A7014E
:1012F00096010E94140B215031094109510956955C
:10130000479537952795EC85FD853083EE85FF85DC
:101310002083188EEC89FD89B082EA89FB8980815F
:1013200080618083EA89FB89808188608083EA8983
:10133000FB89808180688083EA89FB8980818F7D39
:101340008083DF91CF91FF90EF90DF90CF90BF909F
:1013500008951F920F920FB60F9211240BB60F92A1
:101360002F938F939F93EF93FF93E091C303F0919B
:10137000C4038081E091C903F091CA0382FD12C0C9
:1013800090818091CC038F5F8F732091CD03821762
:1013900051F0E091CC03F0E0ED54FC4F958F809339
:1013A000CC0301C08081FF91EF919F918F912F918C
:1013B0000F900BBE0F900FBE0F901F9018951F92AD
:1013C0000F920FB60F9211240BB60F922F933F93EB
:1013D0004F935F936F937F938F939F93AF93BF933D
:1013E000EF93FF9383EB93E00E949F08FF91EF91AF
:1013F000BF91AF919F918F917F916F915F914F912D
:101400003F912F910F900BBE0F900FBE0F901F902A
:10141000189583EB93E00E94350821E0892B09F4AD
:1014200020E0822F08951092B6031092B50388EE43
:1014300093E0A0E0B0E08093B7039093B803A0934B
:10144000B903B093BA0382EA92E09093B403809315
:10145000B30385EC90E09093C0038093BF0384ECCA
:1014600090E09093C2038093C10380EC90E090934E
:10147000C4038093C30381EC90E09093C6038093F0
:10148000C50382EC90E09093C8038093C70386EC79
:1014900090E09093CA038093C9031092CC031092FA
:1014A000CD031092CE031092CF03089508950E94A9
:1014B000E7060E94560A0E948101C2E6D8E00E9417
:1014C0000C022097E1F30E946208F9CFCF92DF92DD
:1014D000EF92FF920F931F93CF93DF937C016A01EA
:1014E000EB0100E010E00C151D0571F06991D701CA
:1014F000ED91FC910190F081E02DC7011995892BA8
:1015000019F00F5F1F4FEFCFC801DF91CF911F91EF
:101510000F91FF90EF90DF90CF90089561157105C6
:1015200081F0DB010D900020E9F7AD014150510938
:10153000461B570BDC01ED91FC910280F381E02DFD
:10154000199480E090E008950C948E0A8F929F92F7
:10155000AF92BF92CF92DF92EF92FF920F931F93C1
:10156000CF93DF93CDB7DEB7A1970FB6F894DEBF68
:101570000FBECDBF7C01C42EE52FCB01D22E19A208
:1015800021E02D1510F02AE0D22E8E010F5D1F4FA5
:101590008D2C912CA12CB12C6C2D7E2FA5019401AA
:1015A0000E94140B8C2DD29E801911240150110918
:1015B0008A3014F4805D01C0895CF80180832115B4
:1015C00031054105510521F0C22EE32FCA01E4CFB8
:1015D000B801C7010E948E0AA1960FB6F894DEBF2B
:1015E0000FBECDBFDF91CF911F910F91FF90EF9074
:1015F000DF90CF90BF90AF909F908F90089521156E
:10160000310541F4DC01ED91FC910190F081E02D78
:10161000642F19940C94A60A9A01462F50E060E0BA
:1016200070E00C94FF0A0895A1E21A2EAA1BBB1BBE
:10163000FD010DC0AA1FBB1FEE1FFF1FA217B3079E
:10164000E407F50720F0A21BB30BE40BF50B661FB4
:10165000771F881F991F1A9469F760957095809578
:1016600090959B01AC01BD01CF010895EE0FFF1FC6
:101670000590F491E02D19940790F691E02D1994BE
:04168000F894FFCF0C
:10168400010000002122232417191B1D313233418C
:1016940034353642373839432A3023440D000C00A0
:1016A4000A0009000800020006000500564D4450D7
:1016B400565F317C315F564D4450560D0A00000090
:1016C40000000905660A564D4450435F005F564DBD
:1016D4004450430D0A004572726F723A204174748B
:1016E400656D707420746F20736574206120726559
:1016F40061642D6F6E6C79207661726961626C65CC
:10170400206F7220646174612074797065206E6F3B
:101714007420737570706F727465640D0A00000034
:0E1724000000E208660A35084E084008C008BA
:00000001FF
